:100000000C94F1000C940E010C940E010C940E0152
:100010000C940E010C940E010C940E010C940E0124
:100020000C940E010C940E010C940E010C940E0114
:100030000C940E010C940E010C940E010C940E0104
:100040000C940E010C940E010C941A010C940E01E8
:100050000C940E010C940E010C940E010C940E01E4
:100060000C940E010C940E01C41AC41ABE1AC41AC0
:10007000BE1AC41AC41A2F1D2F1D2F1D2F1D2F1D70
:10008000BE1AC41AC41ABE1AC41AC11AC11AC41A92
:10009000111BD51ADA1ADF1AE41AE91AEE1AF31A42
:1000A000F81AFD1A021B071B0C1B561B501B4D1B7D
:1000B000501B411B441B471B2F1D561B561B561B19
:1000C000561B4D1B4A1B501B4D1B501B531B531BD8
:1000D000561B831B711B7A1B681B6B1B6E1B711BD2
:1000E000851B741B741B741B741B7A1B831B771B6F
:1000F0007A1B7D1B801B801B831BA61BA61BA01BC2
:10010000A61BA01BA61BA61B2F1D9D1B9D1B9D1B7D
:100110009D1B2F1DA61BA61BA01BA61BA31BA31B61
:10012000A61BCF1BCF1BC61BBA1BBD1BC01BC91BED
:10013000D11BC31BC31BC31BC31BD11BC91BC91BA7
:10014000C61BC91BCC1BCC1BCF1B451C291C3C1C34
:10015000451C3C1C2C1C451C711C311C311C311CC9
:10016000311C711C451C451C3C1C451C3A1C451C83
:10017000451C6F1C661C631C571C5A1C5D1C661CAE
:10018000711C6F1C6F1C6F1C6F1C711C661C601C2B
:10019000631C661C691C6C1C6F1C891C951C891CCB
:1001A000951C891C9E1CD11CD11CD11CD11CD11C9E
:1001B000D11C8C1C9E1C951C9E1CA11CA71CCC1C1D
:1001C000C91CCC1CC01CCC1CCC1CD11CD11CD11CEF
:1001D000D11CD11CD11CC31CC61CC91CCC1CCF1CDF
:1001E000CF1C11241FBECFEFD8E0DEBFCDBF11E082
:1001F000A0E0B1E0E8EBFAE302C005900D92A6366C
:10020000B107D9F723E0A6E6B1E001C01D92A831FD
:10021000B207E1F70E9460010C945A1D0C94000093
:10022000219A229A389A579A569A089521980895B1
:10023000219A08951F920F920FB60F9211242F93B7
:100240003F938F939F93EF93FF938091C0008C71A6
:1002500061F5809169019091C600E82FF0E0E659C0
:10026000FD4F90838F5F80936901833021F49091DB
:100270006B0290936701209167012223B1F090E017
:1002800030E02D5F3F4F8217930779F41092690198
:100290001092670180916C028D3321F481E080938C
:1002A000660103C081E080936801FF91EF919F9107
:1002B0008F913F912F910F900FBE0F901F90189527
:1002C0000E94331D0E94100129982A9840985F9837
:1002D0005E98789480916801882321F00E947A1AB0
:1002E00010926801F7CF20E030E02817390749F075
:1002F000EFE9FFE03197F1F700C000002F5F3F4FBB
:10030000F4CF089520E030E02817390739F045E0B0
:100310004A95F1F700002F5F3F4FF6CF08950E94F6
:10032000180140982A98299887EC90E00197F1F7F6
:1003300000C000005F9A87EC90E00197F1F700C0E1
:1003400000005E9A8FE99FE00197F1F700C000007E
:1003500008950E94180140982A98299887EC90E007
:100360000197F1F700C000005E9A87EC90E00197DA
:10037000F1F700C000005F9A8FE39FE10197F1F76A
:1003800000C0000008950F931F93CF93DF9300D018
:10039000CDB7DEB78B014A8389830E941801299863
:1003A0002AE02A95F1F700C020E030E0898190E052
:1003B0004A815AE05A95F1F700C0BC01022E02C0F2
:1003C000759567950A94E2F760FF02C0299A01C00B
:1003D00029982A9A5AE05A95F1F700C02A982F5F77
:1003E0003F4F2630310529F785E08A95F1F7000067
:1003F00029989AE09A95F1F700C0442321F025E36B
:100400002A95F1F726C0B801660F771F80E090E0CB
:1004100041E050E02AE02A95F1F700C09A01082E49
:1004200002C0220F331F0A94E2F726233723232B1F
:1004300011F0299A01C029982A9A2AE02A95F1F701
:1004400000C02A9801968031910521F755E25A950E
:10045000F1F700000F900F90DF91CF911F910F9156
:100460000895CF93DF9300D000D0CDB7DEB72C83B3
:100470004B836A8389830E94180129983AE03A9550
:10048000F1F700C0E0E0F0E0898190E06A814B8103
:100490002C815AE05A95F1F700C0DC010E2E02C003
:1004A000B595A7950A94E2F7A0FF02C0299A01C06A
:1004B00029982A9A3AE03A95F1F700C02A9831969D
:1004C000E630F10531F75AE15A95F1F700C0299865
:1004D0008AE08A95F1F700C02A9A9AE09A95F1F796
:1004E00000C02A9880E090E030E05AE05A95F1F799
:1004F00000C0F901082E02C0F595E7950A94E2F7CD
:10050000E0FF02C0299A01C029982A9A5AE05A9518
:10051000F1F700C02A9801968830910531F780E004
:1005200090E050E02AE02A95F1F700C09A01082EE9
:1005300002C0359527950A94E2F720FF02C0299A58
:1005400001C029982A9A3AE03A95F1F700C02A9812
:1005500001968830910531F780E090E070E05AE034
:100560005A95F1F700C09B01082E02C035952795DA
:100570000A94E2F720FF02C0299A01C029982A9A1A
:100580002AE02A95F1F700C02A9801968730910554
:1005900031F73AE13A95F1F700C00F900F900F90C4
:1005A0000F90DF91CF9108950F931F93CF93DF9317
:1005B00000D000D0CDB7DEB72C834B836A8389830C
:1005C0000E9418012998E7E0F0E0898190E06A81B3
:1005D0004B812C813AE03A95F1F700C0DC010E2EF8
:1005E00002C0B595A7950A94E2F7A0FF02C0299A28
:1005F00001C029982A9A3AE03A95F1F700C02A9862
:10060000319740F78AE08A95F1F700C0299835E2E2
:100610003A95F1F70000611166C02A9A8AE08A953E
:10062000F1F700C02A9885E090E050E03AE03A9572
:10063000F1F700C0BA01082E02C0759567950A94BB
:10064000E2F760FF02C0299A01C029982A9A3AE08D
:100650003A95F1F700C02A98019740F787E090E0BB
:1006600030E04AE04A95F1F700C0A901082E02C027
:10067000559547950A94E2F740FF02C0299A01C0B8
:1006800029982A9A4AE04A95F1F700C02A980197DA
:1006900040F787E090E010E02AE02A95F1F700C0EB
:1006A0009801082E02C0359527950A94E2F720FF9D
:1006B00002C0299A01C029982A9A3AE03A95F1F79E
:1006C00000C02A98019740F78AE08A95F1F700C0A8
:1006D00029982A9A2AE02A95F1F700C02A983AE246
:1006E0003A95F1F700C00F900F900F900F90DF91A7
:1006F000CF911F910F9108950F931F93CF93DF9385
:100700001F92CDB7DEB789830E941801299827E090
:1007100030E0898190E04AE04A95F1F700C0AC01F1
:10072000022E02C0559547950A94E2F740FF02C099
:10073000299A01C029982A9A4AE04A95F1F700C0FF
:100740002A982150310938F78AE08A95F1F700C0DC
:100750000E9416012AE22A95F1F700C087E090E096
:100760004AE14A95F1F700C02A9A2AE12A95F1F761
:1007700000C02A980197A1F72FE030E000E010E0D8
:1007800081E090E04AE14A95F1F700C02A9A4AE1F7
:100790004A95F1F700C02A98199B09C0AC01022EB6
:1007A00002C0440F551F0A94E2F7042B152B215069
:1007B000310940F78AE18A95F1F700C02A9A2AE1C7
:1007C0002A95F1F700C02A9845E24A95F1F7000012
:1007D0000E941801C8010F90DF91CF911F910F91D6
:1007E00008950F931F93CF93DF931F92CDB7DEB77A
:1007F00089830E9418014AE14A95F1F700C020E080
:1008000030E0898190E04AE04A95F1F700C0AC0100
:10081000022E02C0559547950A94E2F740FF02C0A8
:10082000299A01C029982A9A4AE04A95F1F700C00E
:100830002A982F5F3F4F2630310529F78AE08A95A5
:10084000F1F700C029989AE09A95F1F700C02A9A2A
:100850004AE04A95F1F700C02A9885E28A95F1F7B7
:1008600000000E94160120E030E000E010E081E08E
:1008700090E04AE04A95F1F700C02A9A4AE04A958A
:10088000F1F700C02A98199B09C0AC01022E02C0E2
:10089000440F551F0A94E2F7042B152B2F5F3F4F8F
:1008A0002E30310531F78AE08A95F1F700C00E94B9
:1008B000180129982A9A9AE09A95F1F700C02A9887
:1008C00045E24A95F1F70000C8010F90DF91CF9102
:1008D0001F910F9108950F931F93CF93DF931F9252
:1008E000CDB7DEB78B0189830E941801299825E3D3
:1008F0002A95F1F7000020E030E0898190E04AE19C
:100900004A95F1F700C0AC01022E02C055954795FB
:100910000A94E2F740FF02C0299A01C029982A9A56
:100920004AE14A95F1F700C02A982F5F3F4F2430E3
:10093000310529F78AE18A95F1F700C029989AE1F3
:100940009A95F1F700C080E090E041E050E02AE1A4
:100950002A95F1F700C09A01082E02C0220F331F1A
:100960000A94E2F720233123232B11F0299A01C0A6
:1009700029982A9A2AE12A95F1F700C02A98019627
:100980008031910521F7299845E34A95F1F7000058
:100990000F90DF91CF911F910F9108950E94180140
:1009A0002A9829982AE12A95F1F700C083E090E07F
:1009B0002AE12A95F1F700C02A9A2AE12A95F1F74F
:1009C00000C02A980197A1F78AE18A95F1F700C043
:1009D0002A9A8FE39FE10197F1F700C000002A985F
:1009E0008FE891E00197F1F700C000000895CF93E0
:1009F000DF9300D000D0CDB7DEB79A8389837C83A4
:100A00006B830E9418012AE62A95F1F700C0FE01C7
:100A10003196BE016B5F7F4FA1E0B0E08FE090E0C8
:100A200025E32A95F1F7000020813181AD01082EE0
:100A300002C0440F551F0A94E2F724233523232BC9
:100A400011F0299A01C029982A9A25E32A95F1F7ED
:100A500000002A98019720F73296E617F707F1F67B
:100A60008AE68A95F1F700C00F900F900F900F90D3
:100A7000DF91CF9108955E980E94180140982A98BE
:100A800029988AE68A95F1F700C05F9A8AE68A95E6
:100A9000F1F700C0409A8AE68A95F1F700C04098C5
:100AA0008AE68A95F1F700C060E578E483E49DE486
:100AB0000E94F7048AE68A95F1F700C0409A0895EB
:100AC00080911703853061F018F4823039F010C03E
:100AD000863021F08D3061F40C943B050C94A90113
:100AE0000E948F0160E578E483E49DE40C94F704B0
:100AF0000C948F01CF93DF9300D0CDB7DEB769831D
:100B00008A830E941801299825E32A95F1F70000AD
:100B100020E030E08A8190E069814AE14A95F1F76E
:100B200000C0AC01022E02C0559547950A94E2F729
:100B300040FF02C0299A01C029982A9A4AE14A95A1
:100B4000F1F700C02A982F5F3F4F2430310529F775
:100B50008AE18A95F1F700C029989AE19A95F1F710
:100B600000C080E090E070E02AE12A95F1F700C033
:100B70009B01082E02C0359527950A94E2F720FFC5
:100B800002C0299A01C029982A9A4AE14A95F1F7A8
:100B900000C02A9801968830910531F70E9416010D
:100BA0008AE18A95F1F700C020E030E080E041E082
:100BB00050E09AE19A95F1F700C02A9A9AE19A9545
:100BC000F1F700C02A98199B07C0BA01022E01C094
:100BD000660F0A94EAF7862B2F5F3F4F28303105C6
:100BE00041F78A830E941801299825E32A95F1F795
:100BF00000008A810F900F90DF91CF9108951F938D
:100C0000CF93DF931F92CDB7DEB7162F682F70E01A
:100C10007E6080E049830E946B0468EF7EE680E09E
:100C20000E946B04612F70E07E6080E00E946B0484
:100C300067EF7EE680E00E946B044981642F70E0DC
:100C40007E6080E00E946B0466EF7EE680E00F909D
:100C5000DF91CF911F910C946B045E985F98409840
:100C60002A9829988FE193E00197F1F700C00000DE
:100C7000089540985F9840982A9829988FE193E0CA
:100C80000197F1F700C000000895809117038D309F
:100C900011F40C9439060C942D060F931F93CF93E7
:100CA000DF9300D0CDB7DEB70E94600540E060E082
:100CB00070E080E00E94C30106E010E041E060E0E7
:100CC00070E086E00E94C30101501109B9F784E089
:100CD0000E94F10389839A830E9445062EEF209398
:100CE0006A0122E020936B0120EA20936C019A8133
:100CF00090936D01898180936E0165E08AE691E0B1
:100D00000F900F90DF91CF911F910F910C94251AA6
:100D10000F93CF93DF9300D0CDB7DEB70E9460056D
:100D200080911703823139F406E020E840E060E06A
:100D300080E80E94D40280911703833139F40EEFCA
:100D40002FEF4FE360E080E80E94D4028CEF0E9416
:100D50007C0389839A830E9445062EEF20936A01C3
:100D600022E020936B0120EA20936C019A819093FA
:100D70006D01898180936E0165E08AE691E00F90B4
:100D80000F90DF91CF910F910C94251ACF93DF93A1
:100D90000E9460054EEF6FEF8FE30E94FF0560E059
:100DA00089E00E947A05CAE6D1E08C834FEF6FEFAD
:100DB0008FE30E94FF0560E089E00E947A058B8343
:100DC0000E9445068FE19EE40197F1F700C0000004
:100DD0008EEF888382E0898380EA8A8365E0CE0192
:100DE000DF91CF910C94251AEF92FF920F931F93EE
:100DF000CF93DF93CDB7DEB72E970FB6F894DEBF53
:100E00000FBECDBF0E94600540E060E070E080E072
:100E10000E94C30107E010E041E060E070E086E07E
:100E20000E94C30101501109B9F7CE0101967C015E
:100E300000E010E08091160390E00817190784F491
:100E400084E00E94F103F701819391937F0141E0D7
:100E500060E070E086E00E94C3010F5F1F4FEACFA1
:100E60000E9445068EEF80936A018EE080936B01AD
:100E700083EA80936C0189819A8190936D018093BC
:100E80006E018B819C8190936F01809370018D81A5
:100E90009E8190937101809372018F8198859093C8
:100EA00073018093740189859A859093750180936D
:100EB00076018B859C8590937701809378018D8551
:100EC0009E859093790180937A0161E18AE691E0B1
:100ED0002E960FB6F894DEBF0FBECDBFDF91CF9137
:100EE0001F910F91FF90EF900C94251ACF92DF92F3
:100EF000EF92FF920F93CF93DF93CDB7DEB72E978C
:100F00000FB6F894DEBF0FBECDBF0E946005809182
:100F10001703823139F407E020E840E060E080E820
:100F20000E94D40280911703833139F400E020E05D
:100F300040E360E080E80E94D402CE0101966C019B
:100F4000E12CF12C8091160390E0E816F90694F458
:100F50008CEF0E947C03F601819391936F0100E076
:100F600020E040E061E088EF0E94D402FFEFEF1A3A
:100F7000FF0AE8CF0E9445068EEF80936A018EE05B
:100F800080936B0183EA80936C0189819A819093AD
:100F90006D0180936E018B819C8190936F01809392
:100FA00070018D819E8190937101809372018F8178
:100FB0009885909373018093740189859A859093A5
:100FC0007501809376018B859C8590937701809342
:100FD00078018D859E859093790180937A0161E1F6
:100FE0008AE691E02E960FB6F894DEBF0FBECDBF15
:100FF000DF91CF910F91FF90EF90DF90CF900C9405
:10100000251ACF93DF9300D0CDB7DEB70E946005DD
:1010100084E00E94F10389839A830E944506EAE6F0
:10102000F1E02EEF208322E0218323EA22839A81BC
:1010300093838981848365E0CF010F900F90DF91C6
:10104000CF910C94251A0F931F93CF93DF938EEFBC
:1010500080936A018EE080936B0183EA80936C0138
:10106000C0E0D0E00E9460054C2F60E080E30E9469
:10107000FF0560E088E00E947A058E0106591E4F48
:10108000F80184834C2F4F5F60E080E30E94FF05EE
:1010900060E088E00E947A05F80183830E9445069B
:1010A0008FE19EE40197F1F700C000002296CE3058
:1010B000D105C1F661E18AE691E0DF91CF911F9100
:1010C0000F910C94251ACF93DF930E94600540E0A6
:1010D00060E070E080E00E94C301C7E0D0E041E042
:1010E00060E070E086E00E94C3012197C1F7609143
:1010F0006F0270E0762F662780916E02682B40E0C9
:1011000082E00E94C3018091170341E060E070E03B
:10111000843111F488E101C088E00E94C3018FE1AD
:101120009EE40197F1F700C0000041E060E070E04C
:101130008EE00E94C3018FE19EE40197F1F700C0A9
:101140000000DF91CF910C9445060F93CF93DF936E
:101150000E94600580911703823139F407E020E88E
:1011600040E060E080E80E94D40280911703833160
:1011700039F400E020E040E360E080E80E94D4021F
:10118000C0E0D0E08091160390E0880F991FC81747
:10119000D907ACF580911703823189F4FE01E65935
:1011A000FD4F0481258140E060E080E00E94D40290
:1011B00000E020E040E061E080EE0E94D4028091F7
:1011C0001703833151F4FE01E659FD4F0481258157
:1011D00040E060E080EC0E94D4022FEF86E791E0CF
:1011E000215080409040E1F700C0000000E020E086
:1011F00040E061E088EF0E94D4022296C3CFDF91E5
:10120000CF910F910C9445060E946005EAE6F2E04A
:10121000658170E0762F66278481682B40E082E04C
:101220000E94C30141E060E070E088E00E94C301D9
:101230008FE19EE40197F1F700C0000041E060E01B
:1012400070E08EE00E94C3018FE891E00197F1F712
:1012500000C000000C944506CF93DF930E94600508
:1012600040E060E070E080E00E94C301C7E0D0E0B1
:1012700041E060E070E086E00E94C3012197C1F781
:10128000C0E0D0E08091160390E0880F991FC81746
:10129000D9070CF5FE01E659FD4F658170E0762F08
:1012A00066278481682B40E082E00E94C30141E010
:1012B00060E070E088E00E94C3018FE19EE4019746
:1012C000F1F700C0000041E060E070E086E00E94BD
:1012D000C3012296D7CFDF91CF910C944506CF93CF
:1012E000DF930E94600540E060E070E080E00E94D3
:1012F000C301C7E0D0E041E060E070E086E00E941A
:10130000C3012197C1F760916F0270E0762F6627C5
:1013100080916E02682B40E082E00E94C30141E0B0
:1013200060E070E088E10E94C3018FE19EE40197D4
:10133000F1F700C00000DF91CF910C944506CF93E8
:10134000DF93C0E0D0E00E9460054C2F60E080E3B6
:101350000E94FF05FE01E659FD4F648170E0962F63
:101360008827682B792B8FE00E946B040E94CE04A3
:1013700060E070E080E00E946B0460E070E080E07C
:101380000E946B042FEF80E792E021508040904054
:10139000E1F700C000000E9445062FEF80E792E0D1
:1013A000215080409040E1F700C000002196CE30EF
:1013B000D10549F6DF91CF910895CF93DF93C0E037
:1013C000D0E00E9460056FE77EE880E00E946B0439
:1013D0006FE77CE980E00E946B044C2F60E080E3C3
:1013E0000E94FF05FE01E659FD4F648170E0962FD3
:1013F0008827682B792B8FE00E946B040E94CE0413
:1014000060E070E080E00E946B0460E070E080E0EB
:101410000E946B042FEF80E792E0215080409040C3
:10142000E1F700C000000E9445062FEF80E792E040
:10143000215080409040E1F700C000002196CE305E
:10144000D10509F0BECFDF91CF910895BF92CF9221
:10145000DF92EF92FF920F931F93CF93DF930E943F
:101460006005809117038950843030F441E060E0DA
:1014700070E086E00E94C301C12CD12C76011EEFE2
:1014800000E881EAB82E80910A0390910B03A091A5
:101490000C03B0910D03C816D906EA06FB0658F5F1
:1014A000C0E0D0E084E00E94F103FE01E659FE4F67
:1014B0009383848341E060E070E086E00E94C30192
:1014C0002296C038D10571F710936A0100936B0121
:1014D000B0926C0163E88AE691E00E94251A80913F
:1014E00066018823E1F31092660180E8C80ED11CE2
:1014F000E11CF11CC8CFDF91CF911F910F91FF909C
:10150000EF90DF90CF90BF900C944506BF92CF92A2
:10151000DF92EF92FF920F931F93CF93DF930E947E
:101520006005C12CD12C76011EEF00E831EAB32E04
:1015300080910A0390910B03A0910C03B0910D03CD
:10154000C816D906EA06FB0628F5C0E0D0E084E21A
:101550000E94F103FE01E659FE4F93838483229695
:10156000C038D105A1F710936A0100936B01B092C6
:101570006C0163E88AE691E00E94251A8091660179
:101580008823E1F31092660180E8C80ED11CE11CAB
:10159000F11CCECF0E9445060E94600520E040EF7E
:1015A00060E08DE10E94310200E010E08EEFF82E45
:1015B00090E4E92E29EAD22E809110039091110334
:1015C00008171907F0F4CDE6D1E084E20E94F10398
:1015D000899381E0CD3AD807C1F7F0926A01E09291
:1015E0006B01D0926C0163E48AE691E00E94251AB7
:1015F000809166018823E1F310926601005C1F4F21
:10160000DBCFDF91CF911F910F91FF90EF90DF9093
:10161000CF90BF900C944506CF92DF92EF92FF924D
:101620000F931F93CF93DF930E946005C12CD12CA1
:10163000760110E801EA80910A0390910B03A091D2
:101640000C03B0910D03C816D906EA06FB0630F567
:10165000C0E0D0E08EEF0E947C03FE01E659FE4F11
:10166000938384832296C038D105A1F78EEF8093AF
:101670006A0110936B0100936C0163E88AE691E0C4
:101680000E94251A809166018823E1F31092660179
:1016900080E8C80ED11CE11CF11CCDCF0E9445068C
:1016A0000E94600580911703823139F400E020EF39
:1016B00040E060E080E80E94D4028091170383310B
:1016C00039F400E020E041E360E080E80E94D402C9
:1016D00000E010E080E4F82E99EAE92E80911003F2
:1016E0009091110308171907F8F4CDE6D1E08EEFB9
:1016F0000E947C03899381E0CD3AD807C1F78EEF31
:1017000080936A01F0926B01E0926C0163E48AE6D7
:1017100091E00E94251A809166018823E1F31092DE
:101720006601005C1F4FDACFDF91CF911F910F91BF
:10173000FF90EF90DF90CF900C944506BF92CF9230
:10174000DF92EF92FF920F931F93CF93DF930E944C
:101750006005C12CD12C76011EEF00E831EAB32ED2
:1017600080910A0390910B03A0910C03B0910D039B
:10177000C816D906EA06FB0658F5C0E0D0E084E0BA
:101780000E94F103FE01E659FE4F9383848341E0FA
:1017900060E070E086E00E94C3012296C038D10567
:1017A00071F710936A0100936B01B0926C0163E8CA
:1017B0008AE691E00E94251A809166018823E1F370
:1017C0001092660120E8C20ED11CE11CF11CC8CFAA
:1017D0000E9445068FEF90E722E081509040204024
:1017E000E1F700C000000E94600500E010E08EEF0D
:1017F000F82E90E4E92E29EAD22E809110039091E0
:1018000011030817190720F5CDE6D1E085E00E9405
:10181000F103899341E060E070E086E00E94C3013B
:1018200081E0CD3AD80791F7F0926A01E0926B011E
:10183000D0926C0163E48AE691E00E94251A8091BF
:1018400066018823E1F310926601005C1F4FD5CF3B
:10185000DF91CF911F910F91FF90EF90DF90CF908C
:10186000BF900C9445069F92AF92BF92CF92DF92A9
:10187000EF92FF920F931F93CF93DF930E94600527
:1018800040E060E080E00E94FF05C12CD12C760191
:101890004EEFB42E50E8A52E61EA962E80910A03F1
:1018A00090910B03A0910C03B0910D03C816D906BB
:1018B000EA06FB0660F5C0E0D0E060E089E00E9447
:1018C0007A058E0106591E4FF801848360E089E095
:1018D0000E947A05F80183832296C038D10569F702
:1018E000B0926A01A0926B0190926C0163E88AE663
:1018F00091E00E94251A809166018823E1F31092FD
:101900006601F0E8CF0ED11CE11CF11CC7CF0E948C
:1019100045068091100390911103892B09F47EC034
:101920000E94600566EA7EE980E00E946B0466EA38
:101930007CE980E00E946B04E12CF12C9EEFD92E13
:1019400020E4C22E39EAB32E809110039091110346
:10195000E816F90608F055C000E010E0E801CE0DE9
:10196000DF1DBE0177277E6080E00E946B0469EA7C
:101970007EE680E00E946B046D2F77277E6080E01A
:101980000E946B046AEA7EE680E00E946B0466EACD
:1019900070E880E00E946B0468EA70E580E00E94D5
:1019A0006B0465EF7EE680E00E946B0460E070E00F
:1019B00080E00E946B0460E082E00E947A0560E0B3
:1019C00082E00E947A05F801E659FE4F83830F5F9B
:1019D0001F4F0034110511F6D0926A01C0926B01BD
:1019E000B0926C0163E48AE691E00E94251A80912E
:1019F00066018823E1F31092660180E4E80EF11C91
:101A0000A3CFDF91CF911F910F91FF90EF90DF90C7
:101A1000CF90BF90AF909F900C944506DF91CF91EF
:101A20001F910F91FF90EF90DF90CF90BF90AF90FC
:101A30009F9008959F92AF92BF92CF92DF92EF92C4
:101A4000FF920F931F93CF93DF930E94600540E0B6
:101A500060E080E00E94FF05C12CD12C76014EEFA2
:101A6000B42E50E8A52E61EA962E80910A0390913B
:101A70000B03A0910C03B0910D03C816D906EA061A
:101A8000FB0660F5C0E0D0E060E089E00E947A05E6
:101A90008E0106591E4FF801848360E089E00E94A0
:101AA0007A05F80183832296C038D10569F7B09290
:101AB0006A01A0926B0190926C0163E88AE691E062
:101AC0000E94251A809166018823E1F31092660135
:101AD000F0E8CF0ED11CE11CF11CC7CF0E944506D7
:101AE0008FE39CE90197F1F700C00000809110039B
:101AF00090911103892B09F474C0E12CF12C8EEF25
:101B0000D82E90E4C92E29EAB22E8091100390912C
:101B10001103E816F90608F064C000E010E00E9426
:101B20006005E801CE0DDF1D6FE77EE980E00E94D1
:101B30006B046FE77CE980E00E946B04BE017727AD
:101B40007E6080E00E946B0464E77EE680E00E9495
:101B50006B046D2F77277E6080E00E946B0465E741
:101B60007EE680E00E946B046FE770E880E00E94F0
:101B70006B0463E770E580E00E946B0465EF7EE62E
:101B800080E00E946B0460E070E080E00E946B04E3
:101B900060E082E00E947A05F801E659FE4F8383F7
:101BA00060E082E00E947A050E9445060F5F1F4FA9
:101BB0000034110509F0B3CFD0926A01C0926B01D5
:101BC000B0926C0163E48AE691E00E94251A80914C
:101BD00066018823E1F31092660190E4E90EF11C9E
:101BE00094CFDF91CF911F910F91FF90EF90DF90F5
:101BF000CF90BF90AF909F9008950E946005809114
:101C000017038E3031F420E048EE60E08DE10E9451
:101C1000310241E060E070E089E00E94C3012FEFF3
:101C200083EC99E0215080409040E1F700C0000033
:101C30000C9445060F930E94600580911703823132
:101C400039F400E020E840E060E080E80E94D4023F
:101C500080911703833139F400E020E040E260E036
:101C600080E80E94D40200E020E040E061E088E1EA
:101C70000E94D4022FEF80E792E0215080409040F4
:101C8000E1F700C000000E944506809117038331F0
:101C9000E1F40E94600501E020E041E360E080E8BB
:101CA0000E94D40200E020E040E061E088E10E9470
:101CB000D4022FEF80E792E0215080409040E1F77E
:101CC00000C000000F910C9445060F9108950F93EA
:101CD0001F93CF93DF93E0911703EA50E33040F472
:101CE000F0E0EE0FFF1FE05AFE4FC081D18102C02D
:101CF000C0E0D0E00E946005809117038A508330D5
:101D000038F500E010E00C171D0749F041E060E0F5
:101D100070E086E00E94C3010F5F1F4FF4CF84E0A4
:101D20000E94F103909301038093000305E010E00B
:101D300041E060E070E086E00E94C30101501109BB
:101D4000B9F784E00E94F1039093050380930403A4
:101D50000E9445060E94600541E060E070E086E078
:101D60000E94C30141E060E070E089E00E94C3018D
:101D70002FEF83EC99E0215080409040E1F700C0C4
:101D800000000E9445068FE19EE40197F1F700C034
:101D90000000809117038A50833008F060C00E94D1
:101DA000600500E010E00C171D0749F041E060E01D
:101DB00070E086E00E94C3010F5F1F4FF4CF609177
:101DC00000037091010340E082E00E94C30141E002
:101DD00060E070E088E00E94C3018FE19EE401971B
:101DE000F1F700C0000041E060E070E08EE00E948A
:101DF000C3018FE891E00197F1F700C00000C5E052
:101E0000D0E041E060E070E086E00E94C3012197ED
:101E1000C1F7609104037091050340E082E00E94E5
:101E2000C30141E060E070E088E00E94C3018FE1FF
:101E30009EE40197F1F700C0000041E060E070E02F
:101E40008EE00E94C3018FE891E00197F1F700C096
:101E50000000DF91CF911F910F910C944506DF9107
:101E6000CF911F910F9108950E94600540E060E0BE
:101E700070E080E00E94C3012FEF80E792E02150E4
:101E800080409040E1F700C0000040E06FEF7FE34A
:101E900082E00E94C3012FEF80E792E02150804052
:101EA0009040E1F700C0000041E060E070E089E0B0
:101EB0000E94C3012FEF83EC99E0215080409040B5
:101EC000E1F700C000000E9445062FEF83EC99E087
:101ED000215080409040E1F700C000000E94600562
:101EE0002FEF80E792E0215080409040E1F700C062
:101EF000000041E060E070E08BE00E94C3012FEF42
:101F000083EC99E0215080409040E1F700C0000050
:101F10000C9445060E94600540E060E070E080E0BF
:101F20000E94C30141E060E070E08FE10E94C301C4
:101F30002FEF83EC99E0215080409040E1F700C002
:101F400000000C944506CF93DF930E94600540E0AB
:101F500060EF7FE380E00E94C301C7E0D0E041E092
:101F600060E070E086E00E94C3012197C1F741E084
:101F700060E070E081E00E94C30141E060E070E059
:101F800087E00E94C30141E060E070E088E00E94C9
:101F9000C3018FE79BEB0197F1F700C0000041E020
:101FA00060E070E081E00E94C30141E060E070E029
:101FB00087E00E94C3010E9445069FEF20E782E070
:101FC000915020408040E1F700C000000E94600571
:101FD00040E06FEF7FE382E00E94C30141E060E0F8
:101FE00070E089E00E94C30141E060E070E088E1B8
:101FF0000E94C3019FEF20E782E091502040804083
:10200000E1F700C000000E9445060E94600540E024
:102010006FEF7FE383E00E94C30141E060E070E086
:102020008BE00E94C30141E060E070E088E10E9423
:10203000C3019FEF20E782E0915020408040E1F70C
:1020400000C00000DF91CF910C9445060F931F93C1
:10205000CF93DF93C0E0D0E00E94600540E020977E
:1020600021F46FEF7FE382E006C0C130D10531F487
:102070006FEF7FE383E00E94C30110C060E070E077
:1020800080E00E94C30107E010E041E060E070E002
:1020900086E00E94C30101501109B9F741E060E0F8
:1020A00070E081E00E94C30141E060E070E087E001
:1020B0000E94C30141E060E070E088E00E94C3013B
:1020C0008FE39CE90197F1F700C0000041E060E078
:1020D00070E081E00E94C30141E060E070E087E0D1
:1020E0000E94C3018FED9EE20197F1F700C000004E
:1020F0000E9445062196C330D10509F0ADCFDF918E
:10210000CF911F910F9108950F931F93CF93DF935A
:102110008091170383508E3070F490E0880F991FE0
:10212000FC01EC5BFE4F00811181FC01E85DFE4F7C
:10213000C081D18104C0C0E0D0E000E010E00E9486
:10214000600545E060E08CE30E94FF05B8018CE08B
:102150000E946B0444E060E08CE30E94FF05BE0136
:102160008CE00E946B040E94CE0460E070E080E08E
:102170000E946B0460E070E080E00E946B042FEF2F
:1021800080E792E0215080409040E1F700C00000DD
:10219000DF91CF911F910F910C944506CF92DF9262
:1021A000EF92FF920F931F93CF93DF93CDB7DEB7DC
:1021B0006C970FB6F894DEBF0FBECDBF8EE0E0E0A7
:1021C000F1E0DE011F9601900D928A95E1F78EE015
:1021D000EEE0F1E0DE01119601900D928A95E1F7B3
:1021E0007E012FE0E20EF11C8E010F5F1F4F6E018A
:1021F0008DE1C80ED11C0E94600544E060E08CE3D4
:102200000E94FF05F701619171917F018CE00E94AE
:102210006B0445E060E08CE30E94FF05F8016191EA
:1022200071918F018CE00E946B0446E060E08CE3CA
:102230000E94FF0560E870E88CE00E946B040E9439
:10224000CE0460E070E080E00E946B0460E070E02B
:1022500080E00E946B04FFEF20E782E0F150204015
:102260008040E1F700C000000E944506EFE1FEE477
:102270003197F1F700C00000EC14FD0409F0BBCF6A
:102280006C960FB6F894DEBF0FBECDBFDF91CF9135
:102290001F910F91FF90EF90DF90CF9008950F93D3
:1022A0001F93CF93DF93809117038950843018F0E8
:1022B0000FEF1FE302C00FEF1FE0C0E0D0E0FE0110
:1022C000E659FD4F658170E0762F66278481682B83
:1022D0006017710711F140E082E00E94C301809114
:1022E000170341E060E070E0843111F488E101C03F
:1022F00088E00E94C30180910E0390910F030E9419
:10230000730141E060E070E08EE00E94C3018FE85D
:1023100091E00197F1F700C0000041E060E070E05B
:1023200086E00E94C3012296C038D10541F6DF91B4
:10233000CF911F910F910895CF93DF93C0E0D0E02C
:10234000FE01E659FD4F658170E0762F6627848196
:10235000682B6F3F8FE3780781F040E082E00E94B6
:10236000C30141E060E070E088E00E94C301809119
:102370000E0390910F030E94730141E060E070E052
:1023800086E00E94C3012296C038D105C9F6DF91CC
:10239000CF910895CF93DF93C0E0D0E0FE01E659DE
:1023A000FD4F658170E0762F66278481682B6F3F33
:1023B0008FE37807B1F040E082E00E94C30141E082
:1023C00060E070E088E10E94C30180910E0390916B
:1023D0000F030E94730141E060E070E087E10E941A
:1023E000C30141E060E070E086E00E94C3012296F4
:1023F000C038D10599F6DF91CF910895CF93DF933F
:10240000C0E0D0E0FE01E659FD4F658170E0762F17
:1024100066278481682B6F3F2FE3720739F441E010
:1024200060E070E086E00E94C3013AC0809106033C
:1024300090910703A0910803B09109038F3F934047
:10244000A105B10521F4609102037091030340E0FE
:1024500082E00E94C30141E060E070E088E00E94F9
:10246000C30180910E0390910F030E94730141E01C
:1024700060E070E086E00E94C301809106039091C5
:102480000703A0910803B09109030196A11DB11D96
:102490008093060390930703A0930803B093090366
:1024A0002296C038D10509F0ADCFDF91CF910895C4
:1024B000CF93DF93C0E0D0E0FE01E659FD4F658188
:1024C00070E0762F66278481682B6F3F8FE3780753
:1024D00059F441E060E070E086E00E94C3018AE6C2
:1024E0008A95F1F700C01AC040E082E00E94C30163
:1024F0008AE68A95F1F700C041E060E070E088E08C
:102500000E94C30180910E0390910F030E947301FA
:1025100041E060E070E086E00E94C3012296C0388E
:10252000D10551F6DF91CF910895EF92FF920F936D
:102530001F93CF93DF93C0E0D0E0409112035091FE
:10254000130320E030E080E090E02417350778F4B2
:10255000F901EC0FFD1FE659FD4F64816F3F21F437
:1025600065816F3309F402962E5F3F4FEECF0091E5
:102570000603109107032091080330910903841783
:10258000950779F496958795080F191F211D311D20
:102590000093060310930703209308033093090365
:1025A0005AC0BB27A32F922F812F492F5527282FA1
:1025B00060E080E80E94D402E12CF12C80911203AB
:1025C00090911303E816F906F8F4F701EC0FFD1FDC
:1025D000E659FD4F0481258140E060E080E00E94E3
:1025E000D40280911203909113030297E816F90622
:1025F00038F400E020E040E061E088EF0E94D4027F
:1026000082E0E80EF11CDACF00E020E040E061E07B
:1026100080EE0E94D40280910E0390910F030E94DD
:102620007301209112033091130336952795809101
:10263000060390910703A0910803B0910903820F4C
:10264000931FA11DB11D8093060390930703A093D0
:102650000803B09309038091120390911303C80FEC
:10266000D91FC038D1050CF468CFDF91CF911F91ED
:102670000F91FF90EF9008950F93CF93DF93C0E0F9
:10268000D0E0FE01E659FD4F04812581802F90E0C6
:10269000922B019641F400E020E040E061E088EFF9
:1026A0000E94D4020BC040E060E080EE0E94D402A1
:1026B00080910E0390910F030E9473012296C038FF
:1026C000D105F9F6DF91CF910F910895EF92FF9226
:1026D0000F931F93CF93DF93C0E0D0E0409112039C
:1026E0005091130320E030E080E090E0241735079C
:1026F00078F4F901EC0FFD1FE659FD4F64816F3F3F
:1027000021F465816F3F09F402962E5F3F4FEECFB3
:1027100084179507B9F4409106035091070360911F
:102720000803709109038A019B01080F191F211DDD
:10273000311D009306031093070320930803309381
:10274000090377C00E94600566EA7EE880E00E9487
:102750006B0466EA7CE980E00E946B0480911703B9
:10276000803129F466EA74E880E00E946B044091AD
:102770000603509107036091080370910903BB277A
:10278000A72F962F852F682F892F0E94FF058E0176
:1027900001591D4FE12CF12C8091120390911303EC
:1027A000E816F906D0F40297F8013197D8016C9138
:1027B00070E0762F6627E816F90620F08081682BF6
:1027C0008FE003C08081682B8DE00E946B04B2E033
:1027D000EB0EF11C0E5F1F4FDFCF0E94CE0460E0B6
:1027E00070E080E00E946B0460E070E080E00E9496
:1027F0006B04209112033091130380910603909192
:102800000703A0910803B0910903820F931FA11D34
:10281000B11D8093060390930703A0930803B09320
:1028200009030E9445068FE39FE10197F1F700C07D
:1028300000008091120390911303C80FD91FC03874
:10284000D1050CF44BCFDF91CF911F910F91FF90E9
:10285000EF900895EF92FF920F931F93CF93DF9322
:10286000C0E0D0E0409112035091130320E030E02B
:1028700080E090E02417350778F4F901EC0FFD1F94
:10288000E659FD4F64816F3F21F465816F3F09F484
:1028900002962E5F3F4FEECF84179507B9F4409113
:1028A00006035091070360910803709109038A01A0
:1028B0009B01080F191F211D311D00930603109362
:1028C0000703209308033093090373C00E94600537
:1028D0006FE77EE880E00E946B046FE77CE980E0B0
:1028E0000E946B046FE774E880E00E946B044091E3
:1028F0000603509107036091080370910903BB27F9
:10290000A72F962F852F682F892F0E94FF058E01F4
:1029100001591D4FE12CF12C80911203909113036A
:10292000E816F906D0F40297F8013197D8016C91B6
:1029300070E0762F6627E816F90620F08081682B74
:102940008FE003C08081682B8DE00E946B04B2E0B1
:10295000EB0EF11C0E5F1F4FDFCF0E94CE0460E034
:1029600070E080E00E946B0460E070E080E00E9414
:102970006B04209112033091130380910603909110
:102980000703A0910803B0910903820F931FA11DB3
:10299000B11D8093060390930703A0930803B0939F
:1029A00009030E9445068FE39FE10197F1F700C0FC
:1029B00000008091120390911303C80FD91FC038F3
:1029C000D1050CF44FCFDF91CF911F910F91FF9064
:1029D000EF900895CF93DF93CEE6D2E069916F3FF9
:1029E00091F070E040E083E00E94C30141E060E0CC
:1029F00070E088E00E94C30180910E0390910F0364
:102A000002960E94730141E060E070E086E00E945F
:102A1000C30182E0CE3AD80709F7DF91CF9108953C
:102A2000CF93DF93CEE6D2E069916F3FC1F070E0C3
:102A300040E083E00E94C30141E060E070E082E199
:102A40000E94C30180910E0390910F0305960E948E
:102A5000730141E060E070E081E10E94C30141E068
:102A600060E070E086E00E94C30182E0CE3AD807C1
:102A7000D9F6DF91CF910895CF93DF93CEE6D2E0E0
:102A800069916F3F91F070E040E082E00E94C301E5
:102A900041E060E070E088E00E94C30180910E0395
:102AA00090910F0302960E94730141E060E070E094
:102AB00086E00E94C30182E0CE3AD80709F7DF9191
:102AC000CF9108950F93CF93DF93CEE6D2E08CEFB2
:102AD0000E947C030881081781F1809117038231DD
:102AE000D1F420E040E060E080E00E94D40200E009
:102AF00020E040E061E080EC0E94D40280910E036F
:102B000090910F0302960E94730120E040E061E083
:102B100088EF0E94D402809117038331A9F40881C1
:102B200020E040E060E080EC0E94D40280910E033F
:102B300090910F0303960E94730100E020E040E0B3
:102B400061E088EF0E94D402219682E0CE3AD80755
:102B500009F0BDCFDF91CF910F9108958F929F9291
:102B6000AF92BF92CF92DF92EF92FF92CF93DF931B
:102B70000E94600566EA7EE980E00E946B0466EAD6
:102B80007CE980E00E946B04C12CD12C7601E60127
:102B9000C659DD4F8C818F3F09F45EC080900603DB
:102BA00090900703A0900803B09009036C2D680D66
:102BB00070E07E6080E00E946B0469EA7EE680E05F
:102BC0000E946B048C0C9D1CAE1CBF1C692D70E018
:102BD0007E6080E00E946B046AEA7EE680E00E94EC
:102BE0006B046C8170E07E6080E00E946B0468EA98
:102BF0007EE680E00E946B0466EA74E880E00E9452
:102C00006B0466EA72E880E00E946B0466EA70E595
:102C100080E00E946B0465EF7EE680E00E946B041A
:102C200060E070E080E00E946B0460E082E00E945F
:102C30007A05C82F60E082E00E947A058C2B31F380
:102C40002A988FE19EE40197F1F700C0000066EA40
:102C500074E980E00E946B049FEFC91AD90AE90A5F
:102C6000F90A80E4C816D104E104F10409F08FCF19
:102C70008091060390910703A0910803B091090386
:102C8000805C9F4FAF4FBF4F809306039093070325
:102C9000A0930803B0930903DF91CF91FF90EF90C9
:102CA000DF90CF90BF90AF909F908F900C9445068F
:102CB0008F929F92AF92BF92CF92DF92EF92FF924C
:102CC000CF93DF930E9460056FE77EE980E00E946A
:102CD0006B046FE77CE980E00E946B04C12CD12C6F
:102CE0007601E601C659DD4F8C818F3F09F45EC045
:102CF0008090060390900703A0900803B09009030A
:102D00006C2D680D70E07E6080E00E946B0464E7CB
:102D10007EE680E00E946B048C0C9D1CAE1CBF1CE8
:102D2000692D70E07E6080E00E946B0465E77EE6BE
:102D300080E00E946B046C8170E07E6080E00E9405
:102D40006B0463E77EE680E00E946B046FE774E843
:102D500080E00E946B046FE772E880E00E946B04E1
:102D60006FE770E580E00E946B0465EF7EE680E02F
:102D70000E946B0460E070E080E00E946B0460E001
:102D800082E00E947A05C82F60E082E00E947A0506
:102D90008C2B31F32A988FE19EE40197F1F700C064
:102DA00000006FE774E980E00E946B049FEFC91A8E
:102DB000D90AE90AF90A80E4C816D104E104F10449
:102DC00009F08FCF8091060390910703A09108032B
:102DD000B0910903805C9F4FAF4FBF4F80930603B4
:102DE00090930703A0930803B0930903DF91CF9159
:102DF000FF90EF90DF90CF90BF90AF909F908F901B
:102E00000C9445060F931F93CF93DF9300D0CDB75B
:102E1000DEB70E9460050FEF13E041E060E070E074
:102E200086E00E94C30101501109B9F784E00E94B5
:102E3000F10389839A830E9445062EEF20936A014D
:102E400022E020936B012BEA20936C019A819093EE
:102E50006D01898180936E0165E08AE691E00F90B3
:102E60000F90DF91CF911F910F910C94251ACF9362
:102E7000DF930E946005809117038E3039F420E0C3
:102E800040EE60E08DE10E94310216C040E060E05B
:102E900070E080E00E94C301C0E0D0E080911503A3
:102EA00090E0C817D90744F441E060E070E086E0A4
:102EB0000E94C3012196F2CF84E00E94F103909317
:102EC00003038093020341E060E070E086E00E942B
:102ED000C30184E00E94F1039093010380930003F7
:102EE00041E060E070E086E00E94C30184E00E945F
:102EF000F10390930503809304030E9445068EEF2F
:102F000080936A0186E080936B018BEA80936C0169
:102F1000809102039091030390936D0180936E0161
:102F2000809100039091010390936F018093700151
:102F30008091040390910503909371018093720135
:102F400069E08AE691E0DF91CF910C94251A0F9306
:102F50001F93CF93DF93E0911703EA50E33040F4DF
:102F6000F0E0EE0FFF1FEE5DFE4F0081118102C009
:102F700000E010E00E946005C0E0D0E0C017D1077B
:102F800041F041E060E070E086E00E94C3012196DC
:102F9000F5CF84E00E94F103909303038093020332
:102FA0000E9445068EEF80936A0182E080936B0158
:102FB0008BEA80936C0180910203909103039093BC
:102FC0006D0180936E0165E08AE691E0DF91CF911B
:102FD0001F910F910C94251A0F931F93CF93DF939A
:102FE00080916F0290E0982F882720916E02822BAB
:102FF0009093030380930203E0911703EA50E330B8
:1030000040F4F0E0EE0FFF1FE45EFE4F00811181FF
:1030100002C000E010E00E946005C0E0D0E0C017F0
:10302000D10741F041E060E070E086E00E94C3011A
:103030002196F5CF609102037091030340E082E096
:103040000E94C30141E060E070E088E00E94C3019B
:103050008FE19EE40197F1F700C0000041E060E0DD
:1030600070E08EE00E94C3018FE891E00197F1F7D4
:1030700000C00000DF91CF911F910F910C94450685
:10308000CF93DF9380916F0290E0982F8827209153
:103090006E02822B90930303809302030E946005CB
:1030A000CFEFD3E041E060E070E086E00E94C30132
:1030B0002197C1F7609102037091030340E082E021
:1030C0000E94C30141E060E070E088E00E94C3011B
:1030D0008FE19EE40197F1F700C0000041E060E05D
:1030E00070E08AE00E94C301DF91CF910C94450605
:1030F0000F931F93CF93DF930E94600540E060E041
:1031000070E080E00E94C301C0E0D0E08091150330
:1031100090E0C817D90744F441E060E070E086E031
:103120000E94C3012196F2CFCFE6D2E000E010E08A
:103130008091140390E00817190714F5688170E076
:10314000762F6627FE0131978081682B40E082E070
:103150000E94C30141E060E070E088E00E94C3018A
:103160008FE19EE40197F1F700C0000041E060E0CC
:1031700070E086E00E94C3010F5F1F4F2296D8CFF8
:10318000DF91CF911F910F910C944506CF93DF9360
:103190000E946005CFEFD3E041E060E070E086E0A0
:1031A0000E94C3012197C1F784E00E94F10390932C
:1031B0000303809302030E9445068FE19EE401977A
:1031C000F1F700C000000E94A90140E060E070E259
:1031D00080E00E94C301C7E0D0E041E060E070E021
:1031E00086E00E94C3012197C1F784E00E94F103A9
:1031F00090930103809300030E9445068091000391
:1032000090910103882790739093010380930003AA
:103210008FE19EE40197F1F700C00000DF91CF91AC
:1032200008950F931F93CF93DF93C0916F02D0E067
:10323000DC2FCC2780916E02C82B0E94C618DF704D
:103240008091000390910103C82BD92B0E94600547
:1032500040E060E070E280E00E94C30107E010E01F
:1032600041E060E070E086E00E94C3010150110976
:10327000B9F740E0BE0182E00E94C30141E060E096
:1032800070E088E00E94C3018FE19EE40197F1F7AE
:1032900000C0000041E060E070E08AE00E94C301ED
:1032A000DF91CF911F910F910C944506CF93DF933F
:1032B0000E94600540E060E070E280E00E94C3018F
:1032C000C7E0D0E041E060E070E086E00E94C3012A
:1032D0002197C1F784E00E94F10390930503809346
:1032E00004030E94450680910403909105039F709A
:1032F0002091000330910103822B932B90930503BF
:10330000809304030E94600540E060E070E280E08A
:103310000E94C301C7E0D0E041E060E070E086E0D9
:103320000E94C3012197C1F76091040370910503C6
:1033300040E082E00E94C30141E060E070E088E08C
:103340000E94C3018FE19EE40197F1F700C00000E5
:1033500041E060E070E08AE00E94C3010E944506FF
:103360000E946005CFEFD3E041E060E070E086E0CE
:103370000E94C3012197C1F760910203709103037A
:1033800040E082E00E94C30141E060E070E088E03C
:103390000E94C3018FE19EE40197F1F700C0000095
:1033A00041E060E070E08AE00E94C301DF91CF91CC
:1033B0000C9445060E94C6180E94600540E060E03B
:1033C00070E080E00E94C3012FEF80E792E021507F
:1033D00080409040E1F700C0000041E060E070E014
:1033E00089E00E94C3012FEF83EC99E021508040D7
:1033F0009040E1F700C000000E9445062FEF83ECEB
:1034000099E0215080409040E1F700C000000E9408
:1034100060052FEF80E792E0215080409040E1F777
:1034200000C0000041E060E070E08BE00E94C3015A
:103430002FEF83EC99E0215080409040E1F700C0ED
:1034400000000E9445060C945619EF92FF920F93CC
:103450001F93CF93DF937C018C01C62FD0E0C8016E
:103460008E199F098C179D0734F4F80181918F0103
:103470000E94411DF4CFDF91CF911F910F91FF90DA
:10348000EF900895EAE6F2E08EEF808381E0818399
:103490008CEC8283138264E0CF010C94251ADF92B6
:1034A000EF92FF920F931F93CF93DF93D82E8B0150
:1034B0007A01E9018EEF0E94411D8E2D0E94411D6F
:1034C0008D2D0E94411DC00FD11F8E01C8018C1B84
:1034D0009D0B8E159F0530F4F80181918F010E949C
:1034E000411DF4CFDF91CF911F910F91FF90EF908D
:1034F000DF9008950F93219A229A80916C02863A68
:1035000009F4C6C1A0F4823A09F4D3C028F4803A81
:1035100029F1813AE1F1A3C2E0916D02843A09F404
:1035200018C120916E02853A08F4F7C042C18B3A67
:1035300009F43FC238F4873A09F4DBC1883A09F448
:1035400010C28DC28F3A09F484C28C3C21F08C3AAF
:1035500009F085C24DC20E94421A81C2E0916D02FB
:10356000E09317038E2F90E0FC013197E431F105D1
:1035700008F075C2EC5CFF4F0C94541D0E94C60607
:103580006EC20E9488066BC20E944D0668C2E0911E
:103590006E028E2F90E0FC013197ED30F10508F0BE
:1035A00040C0E85BFF4F0C94541D80E091E0A0E028
:1035B000B0E03BC080E092E0A0E0B0E036C080E048
:1035C00094E0A0E0B0E031C080E098E0A0E0B0E09E
:1035D0002CC080E090E1A0E0B0E027C080E090E265
:1035E000A0E0B0E022C080E090E4A0E0B0E01DC028
:1035F00080E090E8A0E0B0E018C080E090E0A1E0BA
:10360000B0E013C080E090E0A2E0B0E00EC080E047
:1036100090E0A4E0B0E009C080E090ECA0E0B0E071
:1036200004C080E890E0A0E0B0E080930A039093AB
:103630000B03A0930C03B0930D038091710290E0F3
:10364000982F882720917202822B909311038093E8
:103650001003E0916D02E093170380917302809351
:10366000140380917402809315038E2F90E0FC0167
:103670003197E431F10508F0F2C1EB5AFF4F0C9499
:10368000541D0E941A0DEBC10E949E0BA8C10E94FE
:103690009E0BABC10E94860AE2C10E94330CDFC1BF
:1036A0000E949E0BDCC10E940C0BD9C10E94260A0D
:1036B000D6C1E0916D02E09317038E2F90E0FC01DC
:1036C0003197E431F10508F5E759FF4F0C94541D8B
:1036D0000E94A30F1AC00E94CE1017C00E94DA19D0
:1036E00014C00E94340F11C00E94670E0EC00E94C9
:1036F0008A0F0BC00E94841008C00E94261005C0CB
:103700000E941A0E02C00E94FD0D8EEF80936A0186
:1037100081E080936B0182EA92C1E09317032093CA
:1037200016038E2F90E0FC013197E431F10508F08B
:1037300096C1E358FF4F0C94541D0E9401088FC19D
:103740000E9423088CC10E94760789C10E94F4065A
:1037500086C1E093170380917C02809316038E2F1D
:1037600090E0FC013197E431F105D8F4EF56FF4FBA
:103770000C94541D0E946F0914C00E94DD0911C0F1
:103780000E9411190EC00E9404090BC00E949F09DB
:1037900008C00E942C0905C00E94A50802C00E9412
:1037A00063088EEF80936A0181E080936B0184EA65
:1037B00046C1E093170380916F0290E0982F88270D
:1037C00030917002832BAC01990F660B770B30E0C0
:1037D000922F8827092E000CAA0BBB0BBA2FA92FFA
:1037E000982F8827842B952BA62BB72B80930A0321
:1037F00090930B03A0930C03B0930D03809171027F
:1038000090E0982F882720917202822B90931103C9
:10381000809310038091730290E0982F8827209165
:103820007402822B90930F0380930E038091750294
:1038300090E090931303809312038E2F90E0FC018D
:103840003197E431F10508F04CC0EB55FF4F0C9473
:10385000541D0E94A90145C00E94C6180E94A901DA
:103860000BC00E948F0141E060E070E086E00E94A2
:10387000C30137C00E948F01109206031092070304
:1038800010920803109209032CC00E948F0129C0D6
:10389000E0916D02E09317038E2F90E0FC013197C9
:1038A000E431F105F0F4E754FF4F0C94541D0E94ED
:1038B000581217C00E942A1414C00E94FE1111C091
:1038C0000E94CA110EC00E9466130BC00E949C1178
:1038D00008C00E94951205C00E943C1302C00E94BD
:1038E0004F118EEF80936A0181E080936B0186EA2D
:1038F000A6C0E0916D02E09317038E2F90E0FC01CB
:103900003297E231F10508F04CC0E353FF4F0C94BD
:10391000541D0E94A90145C00E948F0120E040EF84
:1039200060E08DE10E9431023CC0109206031092CB
:103930000703109208031092090333C00E948F01FD
:1039400030C00E948F0100E020EF40E005C00E94DF
:103950008F0100E020E041E360E080E80E94D402B3
:1039600020C0E0916D02E09317038E2F90E0FC01E0
:103970003297E231F105A8F4E152FF4F0C94541D47
:103980000E9458160EC00E943C150BC00E941015D4
:1039900008C00E94AE1505C00E94EA1402C00E9431
:1039A00062158EEF80936A0181E080936B0188EA53
:1039B00046C080916D028093170390916E029093A0
:1039C00015038A3079F028F4863049F0873069F0A1
:1039D00046C08C3039F030F08E3039F040C00E9453
:1039E00002173DC00E94A7173AC00E94371737C080
:1039F00080916D0280931703909174029093150348
:103A000090917502909314038A3081F038F48630D7
:103A100051F0873069F40E9478180AC08B3031F079
:103A20008C3021F005C00E94401802C00E94EC17A3
:103A30008EEF80936A0181E080936B018CEA809322
:103A40006C0110926D0164E08AE691E00E94251AF3
:103A500006C080916D02809317030E94450621984D
:103A600022980F9108951092C00088E98093C100B8
:103A700086E08093C2001092C50080E18093C4006C
:103A800008959091C00095FFFCCF8093C6000895E3
:103A9000CF93DF93EC018991882319F00E94411D97
:103AA000FACFDF91CF910895EE0FFF1F0590F491AB
:083AB000E02D0994F894FFCF0A
:103AB80004040404040404040505020204040101C6
:103AC80002020404080800000000000000040001CD
:103AD80000020004000100028F8F000000000000B7
:103AE80000000000000000000000000080800000CE
:103AF80000008F8F3F3F0000000000000000000022
:103B080000000000000000000101000000000F0F8D
:063B1800000400010002A0
:00000001FF
