:100000000C9492000C94AF000C94AF000C94AF00D1
:100010000C94AF000C94AF000C94AF000C94AF00A4
:100020000C94AF000C94AF000C94AF000C94AF0094
:100030000C94AF000C94AF000C94AF000C94AF0084
:100040000C94AF000C94AF000C94BB000C94AF0068
:100050000C94AF000C94AF000C94AF000C94AF0064
:100060000C94AF000C94AF0033135813B413E51382
:1000700011144914CD14FE143B15BC15BC156C1598
:100080007F15BC15BC15A215BC15BC15BC15BC153F
:10009000BC15BC15BC15BC15BC15BC15BC15BC15D8
:1000A000BC15BC15BC15BC15BC15BC15BC15BC15C8
:1000B000BC15BC15BC15BC15BC15BC15BC15BC15B8
:1000C00030134313461349134C134F135213551354
:1000D0009B139E13A113A413A713AA13AF13C31347
:1000E000C613C913CC13CF13D213D513FC13FF13AC
:1000F0000214051408140B140E1427142A142D14BA
:100100003014331436143914951498149B14A41411
:10011000A714B014BD14DC14DF14E214E514E814C1
:10012000EB14EE1411241FBECFEFD8E0DEBFCDBF1D
:1001300011E0A0E0B1E0E8EDFBE202C005900D9215
:10014000AC31B107D9F722E0ACE1B1E001C01D92BA
:10015000AE3CB207E1F70E9401010C94EA150C9441
:100160000000249A259A239A539A549A0895249821
:100170000895249A08951F920F920FB60F9211249A
:100180002F933F938F939F93EF93FF938091C000A2
:100190008C7161F580911F019091C600E82FF0E00D
:1001A000E05EFD4F90838F5F80931F01833021F4C9
:1001B0009091210290931D0120911D012223B1F005
:1001C00090E030E02D5F3F4F8217930779F4109253
:1001D0001F0110921D01809122028D3321F481E0D4
:1001E00080931C0103C081E080931E01FF91EF9179
:1001F0009F918F913F912F910F900FBE0F901F9065
:1002000018950E94BF150E94B1002C982D982B982C
:100210005B985C98789480911E01882321F00E945D
:100220001F1310921E01F7CF009769F020E030E015
:10023000EFE9FFE03197F1F700C000002F5F3F4F7B
:1002400028173907A9F70895009759F020E030E002
:1002500045E04A95F1F700002F5F3F4F2817390717
:10026000B9F708950E94B9002B982D982C9887EC27
:1002700090E00197F1F700C000005B9A87EC90E0F6
:100280000197F1F700C000005C9A8FE99FE00197A9
:10029000F1F700C0000008950E94B9002B982D9836
:1002A0002C9887EC90E00197F1F700C000005C9A71
:1002B00087EC90E00197F1F700C000005B9A8FE3B4
:1002C0009FE10197F1F700C0000008950E94B90076
:1002D0002B982D982C988AE68A95F1F700C05B9AA6
:1002E0009AE69A95F1F700C05C9A8FEA94E001973C
:1002F000F1F700C0000008950F931F93CF93DF9391
:10030000182FEB01042F0E94B9002C982AE02A959F
:10031000F1F700C020E030E0812F90E04AE04A95FC
:10032000F1F700C0BC01022E02C0759567950A94D2
:10033000E2F760FF02C02C9A01C02C982D9A4AE087
:100340004A95F1F700C02D982F5F3F4F26303105B9
:1003500029F785E08A95F1F700002C982AE02A9584
:10036000F1F700C0002329F045E34A95F1F70000BA
:1003700027C0BE01660F771F80E090E041E050E0AB
:100380002AE02A95F1F700C09A01082E02C0220F38
:10039000331F0A94E2F726233723232B11F02C9ADC
:1003A00001C02C982D9A2AE02A95F1F700C02D98CB
:1003B00001968031910521F745E24A95F1F7000059
:1003C000DF91CF911F910F910895CF93DF93C82FA5
:1003D0000E94B9004AE14A95F1F700C020E030E000
:1003E0008C2F90E04AE04A95F1F700C0AC01022E54
:1003F00002C0559547950A94E2F740FF02C02C9A37
:1004000001C02C982D9A4AE04A95F1F700C02D982A
:100410002F5F3F4F2630310529F78AE08A95F1F7A3
:1004200000C02C984AE04A95F1F700C02D9A8AE066
:100430008A95F1F700C02D9845E24A95F1F7000042
:100440000E94B70020E030E0C0E0D0E041E050E0A2
:100450008AE08A95F1F700C02D9A8AE08A95F1F733
:1004600000C02D981C9B09C0CA01022E02C0880F33
:10047000991F0A94E2F7C82BD92B2F5F3F4F2E30DC
:10048000310531F74AE04A95F1F700C00E94B90002
:100490002C982D9A8AE08A95F1F700C02D9845E2B4
:1004A0004A95F1F70000CE01DF91CF9108951F9397
:1004B000CF93DF93182FEB010E94B9002C9825E30E
:1004C0002A95F1F7000020E030E0812F90E04AE12A
:1004D0004A95F1F700C0AC01022E02C05595479530
:1004E0000A94E2F740FF02C02C9A01C02C982D9A82
:1004F0004AE14A95F1F700C02D982F5F3F4F243015
:10050000310529F78AE18A95F1F700C02C982AE194
:100510002A95F1F700C080E090E041E050E02AE148
:100520002A95F1F700C09A01082E02C0220F331F4E
:100530000A94E2F72C233D23232B11F02C9A01C0BF
:100540002C982D9A2AE12A95F1F700C02D98019652
:100550008031910521F72C9845E34A95F1F7000089
:10056000DF91CF911F9108950E94B9002D982C988A
:100570002AE12A95F1F700C083E090E02AE12A956C
:10058000F1F700C02D9A2AE12A95F1F700C02D98C5
:100590000197A1F78AE18A95F1F700C02D9A8FE3C0
:1005A0009FE10197F1F700C000002D988FE891E0DE
:1005B0000197F1F700C0000008950F931F93CF93A8
:1005C000DF9300D000D0CDB7DEB79A8389837C83D8
:1005D0006B830E94B9002AE62A95F1F700C0FE015C
:1005E00031968E010B5F1F4FBFE0A0E061E070E02D
:1005F00020C025E32A95F1F7000020813181AB016D
:10060000082E02C0440F551F0A94E2F72423352315
:10061000232B11F02C9A01C02C982D9A25E32A95B2
:10062000F1F700002D98019720F73296E017F107B7
:1006300019F08B2F9A2FDDCF8AE68A95F1F700C04B
:100640000F900F900F900F90DF91CF911F910F910E
:100650000895CF93DF93D82FC62F0E94B9002C980E
:1006600025E32A95F1F7000020E030E08D2F90E09F
:100670004AE14A95F1F700C0AC01022E02C055953F
:1006800047950A94E2F740FF02C02C9A01C02C98CB
:100690002D9A4AE14A95F1F700C02D982F5F3F4F00
:1006A0002430310529F78AE18A95F1F700C02C98AA
:1006B0002AE12A95F1F700C080E090E06C2F70E00D
:1006C0004AE14A95F1F700C09B01082E02C035951A
:1006D00027950A94E2F720FF02C02C9A01C02C98BB
:1006E0002D9A2AE12A95F1F700C02D9801968830BD
:1006F000910531F70E94B7004AE14A95F1F700C031
:1007000020E030E0C0E041E050E08AE18A95F1F776
:1007100000C02D9A8AE18A95F1F700C02D981C9BA4
:1007200008C0CA01022E02C0880F991F0A94E2F77E
:10073000C82B2F5F3F4F2830310539F70E94B90091
:100740002C9825E32A95F1F700008C2FDF91CF91AB
:100750000895CF93DF93D62FC42F682F70E07E606B
:1007600080E00E94570268EF7EE680E00E94570218
:100770006D2F70E07E6080E00E94570267EF7EE69A
:1007800080E00E9457026C2F70E07E6080E00E9443
:10079000570266EF7EE680E00E945702DF91CF911C
:1007A00008955C985B982B982D982C988FE193E096
:1007B0000197F1F700C000000895CF93DF93809177
:1007C000CD02813021F0843011F0873011F40E9485
:1007D00032018091CD028B7F823011F40E944C0156
:1007E00040E060E070E080E00E947C01C6E0D0E084
:1007F00041E060E070E086E00E947C012197C1F753
:1008000084E00E94E501C82FD92F0E94D103E0E2C5
:10081000F1E08EEF808382E0818380EA8283D3835C
:10082000C48365E0CF010E94CD12DF91CF9108957E
:10083000CF93DF930E9432018091CD02853031F455
:1008400060E578E483E49DE40E94DD024EEF6FEF03
:100850008FE30E94A90360E088E00E94290380934F
:1008600024010E94D1030E9432018091CD02853083
:1008700031F460E578E483E49DE40E94DD024FEF0B
:100880006FEF8FE30E94A90360E088E00E942903D4
:10089000C0E2D1E08B830E94D1038FE19EE40197F7
:1008A000F1F700C000008EEF888382E0898380EA40
:1008B0008A8365E0CE010E94CD12DF91CF91089529
:1008C000EF92FF920F931F93CF93DF93CDB7DEB7D5
:1008D0002E970FB6F894DEBF0FBECDBF8091CD022C
:1008E000813021F0843011F0873011F40E94320100
:1008F0008091CD028B7F823011F40E944C0140E048
:1009000060E070E080E00E947C0107E010E041E0E0
:1009100060E070E086E00E947C0101501109B9F7A7
:100920008091CC028823D1F0CE0101967C0100E0B9
:1009300010E084E00E94E501F701819391937F012B
:1009400041E060E070E086E00E947C010F5F1F4F95
:100950008091CC0290E0081719075CF30E94D10344
:10096000E0E2F1E08EEF80838EE0818383EA828390
:1009700089819A81938384838B819C8195838683EB
:100980008D819E81978380878F81988591878287CB
:1009900089859A85938784878B859C8595878687AB
:1009A0008D859E859787808B61E1CF010E94CD1256
:1009B0002E960FB6F894DEBF0FBECDBFDF91CF915C
:1009C0001F910F91FF90EF9008950F931F93CF9376
:1009D000DF93E0E2F1E08EEF80838EE0818383EAB3
:1009E0008283C0E0D0E00E9432018091CD02853048
:1009F00031F460E578E483E49DE40E94DD024C2F4D
:100A000060E080E30E94A90360E088E00E9429037F
:100A10008E01005E1E4FF80184834C2F4F5F60E013
:100A200080E30E94A90360E088E00E942903F801A6
:100A300083830E94D1038FE19EE40197F1F700C008
:100A400000002296CE30D10571F661E180E291E09E
:100A50000E94CD12DF91CF911F910F910895CF93F6
:100A6000DF938091CD02813011F40E943201809198
:100A7000CD02823011F40E944C0140E060E070E051
:100A800080E00E947C01C7E0D0E041E060E070E0DF
:100A900086E00E947C012197C1F7E0E2F2E06581E7
:100AA00070E0762F66278481682B40E082E00E9408
:100AB0007C0141E060E070E088E00E947C018FE111
:100AC0009EE40197F1F700C0000041E060E070E0B3
:100AD0008EE00E947C010E94D103DF91CF910895A6
:100AE000CF93DF930E94320140E060E070E080E04D
:100AF0000E947C01C7E0D0E041E060E070E086E069
:100B00000E947C012197C1F78091CC02882361F17A
:100B1000C0E0D0E0FE01E05EFD4F658170E0762F21
:100B200066278481682B40E082E00E947C0141E0DE
:100B300060E070E088E00E947C018FE19EE4019714
:100B4000F1F700C0000041E060E070E086E00E9444
:100B50007C018091CC02813039F0229690E0880FA0
:100B6000991FC817D907B4F20E94D103DF91CF9122
:100B70000895CF93DF930E94320140E060E070E07F
:100B800080E00E947C01C7E0D0E041E060E070E0DE
:100B900086E00E947C012197C1F7E0E2F2E06581E6
:100BA00070E0762F66278481682B40E082E00E9407
:100BB0007C0141E060E070E088E10E947C018FE10F
:100BC0009EE40197F1F700C000000E94D103DF917D
:100BD000CF910895EF92FF920F931F93CF93DF93DE
:100BE0000F2EF4E2EF2EF2E0FF2EF02D02E312E0E2
:100BF000E7010E9432014C2F4E1960E080E30E9411
:100C0000A903699170E0962F8827682B792B8FE0D4
:100C10000E9457020E94B40260E070E080E00E94EF
:100C2000570260E070E080E00E9457022FEF80E7FB
:100C300092E0215080409040E1F700C000000E9407
:100C4000D1032FEF80E792E0215080409040E1F700
:100C500000C00000C017D10761F6DF91CF911F914E
:100C60000F91FF90EF900895EF92FF920F931F93D3
:100C7000CF93DF930F2EF4E2EF2EF2E0FF2EF02D54
:100C800002E312E0E7010E94320160E578E483E4C8
:100C90009DE40E94DD026FE77EE880E00E9457023B
:100CA0006FE77CE980E00E9457024C2F4E1960E00C
:100CB00080E30E94A903699170E0962F8827682B32
:100CC000792B8FE00E9457020E94B40260E070E02E
:100CD00080E00E94570260E070E080E00E945702CE
:100CE0002FEF80E792E0215080409040E1F700C074
:100CF00000000E94D1032FEF80E792E02150804056
:100D00009040E1F700C00000C017D10709F0BBCF49
:100D1000DF91CF911F910F91FF90EF9008957F92F7
:100D20008F929F92AF92BF92CF92DF92EF92FF92FB
:100D30000F931F93CF93DF930E9432018091C002E3
:100D40009091C102A091C202B091C302892B8A2B5B
:100D50008B2B81F54CC084E00E94E501FE013197A8
:100D60009083888341E060E070E086E00E947C012F
:100D70002296C017D10779F7F7017082818292829B
:100D800063E8C7010E94CD12F0E8CF0ED11CA60186
:100D90000D2C000C660B770B8091C0029091C10264
:100DA000A091C202B091C302481759076A077B0796
:100DB000E0F01DC0C12CD12C0F2EF4E2AF2EF1E0DB
:100DC000BF2EF02D04EA11E00F2EF0E2EF2EF1E03D
:100DD000FF2EF02D0F2EFEEF7F2EF02D689488242D
:100DE00087F80F2EF1EA9F2EF02DE501B4CF0E9477
:100DF000D103DF91CF911F910F91FF90EF90DF9082
:100E0000CF90BF90AF909F908F907F9008957F92EA
:100E10008F929F92AF92BF92CF92DF92EF92FF920A
:100E20000F931F93CF93DF930E944C018FE19EE4B9
:100E30000197F1F700C000008091C0029091C102BB
:100E4000A091C202B091C302892B8A2B8B2B81F512
:100E50004CC084E00E94E501FE01319790838883B5
:100E600041E060E070E086E00E947C012296C017BD
:100E7000D10779F7F70170828182928263E8C70116
:100E80000E94CD12F0E8CF0ED11CA6010D2C000C53
:100E9000660B770B8091C0029091C102A091C202B3
:100EA000B091C302481759076A077B07E0F01DC0DD
:100EB000C12CD12C0F2EF4E2AF2EF1E0BF2EF02D7D
:100EC00004EA11E00F2EF0E2EF2EF1E0FF2EF02DFC
:100ED0000F2EFEEF7F2EF02D6894882487F80F2EBA
:100EE000F1EA9F2EF02DE501B4CF0E94D1032FEF40
:100EF00083EC99E0215080409040E1F700C0000071
:100F00000E944C018091C6029091C702892B09F57D
:100F10003DC085E00E94E501899341E060E070E01A
:100F200086E00E947C01C017D10799F7F701708213
:100F30008182928263E4C7010E94CD12F0E4CF0E59
:100F4000D11C8091C6029091C702C816D906E0F064
:100F50001DC0C12CD12C0F2EF3E2AF2EF1E0BF2E1D
:100F6000F02D03E611E00F2EF0E2EF2EF1E0FF2E60
:100F7000F02D0F2EFEEF7F2EF02D6894882486F83A
:100F80000F2EF9EA9F2EF02DE501C3CF0E94D10369
:100F9000DF91CF911F910F91FF90EF90DF90CF9055
:100FA000BF90AF909F908F907F9008953F924F9207
:100FB0005F926F927F928F929F92AF92BF92CF92E9
:100FC000DF92EF92FF920F931F93CF93DF930E94D4
:100FD000320140E060E080E00E94A9038091C002FD
:100FE0009091C102A091C202B091C302892B8A2BB9
:100FF0008B2B79F54BC060E089E00E942903888340
:1010000060E089E00E942903FE01319780832296E7
:10101000C017D10781F7F70170828182928263E85D
:10102000C7010E94CD12F0E8CF0ED11CA6010D2CF5
:10103000000C660B770B8091C0029091C102A091C9
:10104000C202B091C302481759076A077B07E0F054
:101050001DC0C12CD12C0F2EF4E2AF2EF1E0BF2E1B
:10106000F02D04EA11E00F2EF0E2EF2EF1E0FF2E5A
:10107000F02D0F2EFEEF7F2EF02D6894882487F838
:101080000F2EF1EA9F2EF02DE501B5CF0E94D1037E
:101090008091C6029091C702892B09F48DC00E94ED
:1010A000320166EA7EE980E00E94570266EA7CE946
:1010B00080E00E9457028091C6029091C702892B5E
:1010C00009F04FC077C0E801C80DD91DBE017727D0
:1010D0007E6080E00E94570269EA7EE680E00E941E
:1010E00057026D2F77277E6080E00E9457026AEAE0
:1010F0007EE680E00E94570266EA70E880E00E9487
:10110000570268EA70E580E00E94570265EF7EE6CC
:1011100080E00E94570260E070E080E00E94570289
:1011200060E082E00E94290360E082E00E942903DF
:10113000F40181934F01EE15FF0529F6F601308287
:101140004182528263E4C6010E94CD12F0E4AF0EE8
:10115000B11C8091C6029091C702A816B90600F191
:1011600029C0A12CB12C0F2EF3E6EF2EF1E0FF2EBB
:10117000F02D8DEF9FEF9C012052314039010F2E51
:10118000F0E2CF2EF1E0DF2EF02D0F2EFEEF3F2EFE
:10119000F02D6894442446F80F2EF9EA5F2EF02DC6
:1011A0000F2EF3E28F2EF1E09F2EF02D83010A0D1A
:1011B0001B1D89CF0E94D103DF91CF911F910F9109
:1011C000FF90EF90DF90CF90BF90AF909F908F9067
:1011D0007F906F905F904F903F9008953F924F9215
:1011E0005F926F927F928F929F92AF92BF92CF92B7
:1011F000DF92EF92FF920F931F93CF93DF930E94A2
:10120000320160E578E483E49DE40E94DD0240E081
:1012100060E080E00E94A9038091C0029091C10229
:10122000A091C202B091C302892B8A2B8B2B79F536
:10123000E3C060E089E00E942903888360E089E0E0
:101240000E942903FE01319780832296C017D1079F
:1012500081F7F70170828182928263E8C7010E9460
:10126000CD12F0E8CF0ED11CA6010D2C000C660BA0
:10127000770B8091C0029091C102A091C202B091FF
:10128000C302481759076A077B07E0F01DC0C12C4D
:10129000D12C0F2EF4E2AF2EF1E0BF2EF02D04EA98
:1012A00011E00F2EF0E2EF2EF1E0FF2EF02D0F2EC9
:1012B000FEEF7F2EF02D6894882487F80F2EF1EA38
:1012C0009F2EF02DE501B5CF0E94D1038FE39CE95D
:1012D0000197F1F700C000008091C6029091C7020B
:1012E000892B09F064C096C00E94320160E578E461
:1012F00083E49DE40E94DD02E701C00FD11F6FE788
:101300007EE980E00E9457026FE77CE980E00E945E
:101310005702BE0177277E6080E00E94570264E793
:101320007EE680E00E9457026D2F77277E6080E086
:101330000E94570265E77EE680E00E9457026FE751
:1013400070E880E00E94570263E770E580E00E9449
:10135000570265EF7EE680E00E94570260E070E091
:1013600080E00E94570260E082E00E942903F801B9
:1013700081938F0160E082E00E9429030E94D103E3
:101380000C151D0509F0B0CFF40130824182528264
:1013900063E4C4010E94CD12F0E4AF0EB11C809151
:1013A000C6029091C702A816B90600F133C0A12C5D
:1013B000B12C0F2EF3E6CF2EF1E0DF2EF02D8DEFC6
:1013C0009FEF9C012052314039010F2EF0E28F2E09
:1013D000F1E09F2EF02D0F2EFEEF3F2EF02D6894A2
:1013E000442446F80F2EF9EA5F2EF02D03E211E0B7
:1013F0007301EA0CFB1C78CF0E94D1038FE39CE9B8
:101400000197F1F700C000008091C6029091C702D9
:10141000892B69F6DF91CF911F910F91FF90EF908B
:10142000DF90CF90BF90AF909F908F907F906F9004
:101430005F904F903F9008950E9432012FEF80E718
:1014400092E0215080409040E1F700C0000041E070
:1014500060E070E089E00E947C012FEF83EC99E06E
:10146000215080409040E1F700C000000E94D1036D
:101470002FEF83EC99E0215080409040E1F700C0CD
:10148000000008950E944C0140E060E070E080E0C0
:101490000E947C012FEF80E792E021508040904035
:1014A000E1F700C0000040E06FEF7FE382E00E94C0
:1014B0007C012FEF80E792E0215080409040E1F7DF
:1014C00000C0000041E060E070E089E00E947C0123
:1014D0002FEF83EC99E0215080409040E1F700C06D
:1014E00000000E94D1032FEF83EC99E0215080404F
:1014F0009040E1F700C000000E944C012FEF80E710
:1015000092E0215080409040E1F700C0000041E0AF
:1015100060E070E08BE00E947C012FEF83EC99E0AB
:10152000215080409040E1F700C000000E94D103AC
:101530000895CF93DF930E94320140E060EF7FE394
:1015400080E00E947C01C7E0D0E041E060E070E014
:1015500086E00E947C012197C1F741E060E070E0E5
:1015600081E00E947C0141E060E070E087E00E9441
:101570007C0141E060E070E088E00E947C018FE740
:101580009BEB0197F1F700C0000041E060E070E0E4
:1015900081E00E947C0141E060E070E087E00E9411
:1015A0007C010E94D1039FEF20E782E09150204010
:1015B0008040E1F700C000000E94320140E06FEF80
:1015C0007FE382E00E947C0141E060E070E089E01E
:1015D0000E947C0141E060E070E088E10E947C01B3
:1015E0009FEF20E782E0915020408040E1F700C06B
:1015F00000000E94D1030E94320140E06FEF7FE3C0
:1016000083E00E947C0141E060E070E08BE00E949A
:101610007C0141E060E070E088E10E947C019FEF86
:1016200020E782E0915020408040E1F700C00000B8
:101630000E94D103DF91CF9108950E94320145E0CD
:1016400060E08CE30E94A9036FE37FE38CE00E94DB
:10165000570244E060E08CE30E94A9036FE87FE852
:101660008CE00E9457020E94B40260E070E080E0CB
:101670000E94570260E070E080E00E9457022FEF66
:1016800080E792E0215080409040E1F700C00000E8
:101690000E94D1030895CF92DF92EF92FF920F93B1
:1016A0001F93CF93DF93CDB7DEB76C970FB6F89447
:1016B000DEBF0FBECDBF8EE0E0E0F1E0DE011196AF
:1016C00001900D928A95E1F78EE0EEE0F1E0DE0107
:1016D0001F9601900D928A95E1F78E010F5F1F4FC3
:1016E0007E012FE0E20EF11C67010E94320160E5ED
:1016F00078E483E49DE40E94DD0244E060E08CE352
:101700000E94A903F801619171918F018CE00E9400
:10171000570245E060E08CE30E94A903F701619164
:1017200071917F018CE00E94570246E060E08CE3FB
:101730000E94A90360E870E88CE00E9457020E94B2
:10174000B40260E070E080E00E94570260E070E068
:1017500080E00E945702FFEF20E782E0F150204036
:101760008040E1F700C000000E94D1030C151D0568
:1017700009F0BBCF6C960FB6F894DEBF0FBECDBF9D
:10178000DF91CF911F910F91FF90EF90DF90CF905D
:1017900008950F931F93CF93DF93C5E2D2E005EA3C
:1017A00012E0688170E0762F6627FE013197808114
:1017B000682B6F3F8FE3780739F441E060E070E019
:1017C00086E00E947C011CC040E082E00E947C0117
:1017D00041E060E070E088E00E947C018091C402FA
:1017E0009091C5020E94240141E060E070E08EE02B
:1017F0000E947C0141E060E070E086E00E947C0194
:101800002296C017D10769F6DF91CF911F910F91F2
:1018100008950F931F93CF93DF93C5E2D2E005EABB
:1018200012E0688170E0762F6627FE013197808193
:10183000682B6F3F8FE3780739F441E060E070E098
:1018400086E00E947C0116C040E082E00E947C019C
:1018500041E060E070E088E00E947C018091C40279
:101860009091C5020E94140141E060E070E086E0C2
:101870000E947C012296C017D10799F6DF91CF9183
:101880001F910F9108950F931F93CF93DF93C5E29C
:10189000D2E005EA12E0688170E0762F6627FE014B
:1018A00031978081682B6F3F2FE3720739F441E055
:1018B00060E070E086E00E947C0151C08091BC0233
:1018C0009091BD02A091BE02B091BF028F3F9340A4
:1018D000A105B105D9F46091B8027091B90240E058
:1018E00082E00E947C0141E060E070E088E00E94BC
:1018F0007C018091C4029091C5020E94140141E0D4
:1019000060E070E086E00E947C0116C040E082E06A
:101910000E947C0141E060E070E088E00E947C0170
:101920008091C4029091C5020E94140141E060E0E0
:1019300070E086E00E947C018091BC029091BD0223
:10194000A091BE02B091BF020196A11DB11D80936E
:10195000BC029093BD02A093BE02B093BF02229638
:10196000C017D10709F097CFDF91CF911F910F9149
:1019700008950F931F93CF93DF93C5E2D2E005EA5A
:1019800012E0688170E0762F6627FE013197808132
:10199000682B6F3F8FE3780759F441E060E070E017
:1019A00086E00E947C018AE68A95F1F700C01AC0A1
:1019B00040E082E00E947C018AE68A95F1F700C04F
:1019C00041E060E070E088E00E947C018091C40208
:1019D0009091C5020E94140141E060E070E086E051
:1019E0000E947C012296C017D10759F6DF91CF9152
:1019F0001F910F910895AF92BF92CF92DF92EF9215
:101A0000FF920F931F93CF93DF9300E010E0A12C80
:101A1000B12CA9C0DF0111972C912F3F29F420810F
:101A20002F3F11F46E5F7F4F029632968417950711
:101A300088F364177507A9F48091BC029091BD02E8
:101A4000A091BE02B091BF02840F951FA11DB11DD0
:101A50008093BC029093BD02A093BE02B093BF02DC
:101A600079C00E94320166EA7EE880E00E94570257
:101A700066EA7CE980E00E9457024091BC025091E6
:101A8000BD026091BE027091BF02BB27A72F962FA7
:101A9000852F682F892F0E94A9038091C8029091F9
:101AA000C902009759F1CC5DDD4FCA2CDB2C02979F
:101AB000C816D90658F0F701608170E0762F6627C6
:101AC0008881682B8FE00E9457020AC0F70160816D
:101AD00070E0762F66278881682B8DE00E94570280
:101AE000F2E0CF0ED11C8091C8029091C9022296DB
:101AF00022E0E20EF11CC816D906C8F20E94B40218
:101B00006A2D7B2D80E00E9457026A2D7B2D80E09C
:101B10000E9457022091C8023091C9028091BC02F4
:101B20009091BD02A091BE02B091BF02820F931F9F
:101B3000A11DB11D8093BC029093BD02A093BE0273
:101B4000B093BF020E94D1038FE39FE10197F1F7A9
:101B500000C000008091C8029091C902080F191FAF
:101B60000038110594F44091C8025091C902411502
:101B7000510509F461CFE801F801EB5DFD4F7F01EC
:101B80008A2D9B2D6A2D7B2D45CFDF91CF911F9103
:101B90000F91FF90EF90DF90CF90BF90AF9008959E
:101BA000AF92BF92CF92DF92EF92FF920F931F936B
:101BB000CF93DF9300E010E0A12CB12CB4C0DF0183
:101BC00011972C912F3F29F420812F3F11F46E5F44
:101BD0007F4F029632968417950788F3641775072E
:101BE000A9F48091BC029091BD02A091BE02B09177
:101BF000BF02840F951FA11DB11D8093BC0290935D
:101C0000BD02A093BE02B093BF0284C00E94320105
:101C100060E578E483E49DE40E94DD026FE77EE8FE
:101C200080E00E9457026FE77CE980E00E94570243
:101C30006FE774E880E00E9457024091BC02509127
:101C4000BD026091BE027091BF02BB27A72F962FE5
:101C5000852F682F892F0E94A9038091C802909137
:101C6000C902009759F1CC5DDD4FCA2CDB2C0297DD
:101C7000C816D90658F0F701608170E0762F662704
:101C80008881682B8FE00E9457020AC0F7016081AB
:101C900070E0762F66278881682B8DE00E945702BE
:101CA000F2E0CF0ED11C8091C8029091C902229619
:101CB00022E0E20EF11CC816D906C8F20E94B40256
:101CC0006A2D7B2D80E00E9457026A2D7B2D80E0DB
:101CD0000E9457022091C8023091C9028091BC0233
:101CE0009091BD02A091BE02B091BF02820F931FDE
:101CF000A11DB11D8093BC029093BD02A093BE02B2
:101D0000B093BF020E94D1038FE39FE10197F1F7E7
:101D100000C000008091C8029091C902080F191FED
:101D20000038110594F44091C8025091C902411540
:101D3000510509F456CFE801F801EB5DFD4F7F0135
:101D40008A2D9B2D6A2D7B2D3ACFDF91CF911F914C
:101D50000F91FF90EF90DF90CF90BF90AF900895DC
:101D60000F931F93CF93DF93C4E2D2E004E612E017
:101D700069916F3F39F441E060E070E086E00E94D5
:101D80007C0118C070E040E083E00E947C0141E0EB
:101D900060E070E088E00E947C018091C402909134
:101DA000C50202960E94140141E060E070E086E006
:101DB0000E947C01C017D107D9F6DF91CF911F9106
:101DC0000F9108954F925F926F927F928F929F92A0
:101DD000AF92BF92EF92FF920F931F93CF930E9407
:101DE000320166EA7EE980E00E94570266EA7CE9F9
:101DF00080E00E94570204E212E00F2EF4E6EF2E7C
:101E0000F2E0FF2EF02D812C912C5401F8018191EC
:101E10008F018F3F09F460C04090BC025090BD021A
:101E20006090BE027090BF02682D640D70E07E600D
:101E300080E00E94570269EA7EE680E00E94570235
:101E4000480C591C6A1C7B1C652D70E07E6080E08C
:101E50000E9457026AEA7EE680E00E945702F8017B
:101E60003197608170E07E6080E00E94570268EAEE
:101E70007EE680E00E94570266EA74E880E00E94F5
:101E8000570266EA72E880E00E94570266EA70E54F
:101E900080E00E94570265EF7EE680E00E945702D4
:101EA00060E070E080E00E94570260E082E00E9403
:101EB0002903C82F60E082E00E9429038C2B31F3B4
:101EC0002D988FE19EE40197F1F700C0000066EACB
:101ED00074E980E00E9457029FEF891A990AA90AC3
:101EE000B90A0E151F0509F091CF8091BC0290919F
:101EF000BD02A091BE02B091BF02805C9F4FAF4F68
:101F0000BF4F8093BC029093BD02A093BE02B093DA
:101F1000BF020E94D103CF911F910F91FF90EF90CC
:101F2000BF90AF909F908F907F906F905F904F90F9
:101F300008954F925F926F927F928F929F92AF928D
:101F4000BF92EF92FF920F931F93CF930E943201A3
:101F500060E578E483E49DE40E94DD026FE77EE9BA
:101F600080E00E9457026FE77CE980E00E94570200
:101F700004E212E00F2EF4E6EF2EF2E0FF2EF02D39
:101F8000812C912C5401F80181918F018F3F09F42C
:101F900060C04090BC025090BD026090BE02709044
:101FA000BF02682D640D70E07E6080E00E945702E1
:101FB00064E77EE680E00E945702480C591C6A1CC8
:101FC0007B1C652D70E07E6080E00E94570265E713
:101FD0007EE680E00E945702F8013197608170E050
:101FE0007E6080E00E94570263E77EE680E00E9408
:101FF00057026FE774E880E00E9457026FE772E8CB
:1020000080E00E9457026FE770E580E00E9457026F
:1020100065EF7EE680E00E94570260E070E080E0BD
:102020000E94570260E082E00E942903C82F60E00E
:1020300082E00E9429038C2B31F32D988FE19EE4DE
:102040000197F1F700C000006FE774E980E00E949B
:1020500057029FEF891A990AA90AB90A0E151F0596
:1020600009F091CF8091BC029091BD02A091BE0277
:10207000B091BF02805C9F4FAF4FBF4F8093BC02B7
:102080009093BD02A093BE02B093BF020E94D10301
:10209000CF911F910F91FF90EF90BF90AF909F90C5
:1020A0008F907F906F905F904F900895CF93DF93C4
:1020B0000E944C01CFEFD3E041E060E070E086E0A9
:1020C0000E947C012197C1F784E00E94E501C82F9E
:1020D000D92F0E94D103E0E2F1E08EEF808382E00D
:1020E00081838BEA8283D383C48365E0CF010E941E
:1020F000CD12DF91CF910895CF93DF930E943201EB
:1021000040E060E070E080E00E947C018091CB02C2
:10211000882379F0C0E0D0E041E060E070E086E044
:102120000E947C0121968091CB0290E0C817D907CC
:102130009CF384E00E94E5019093B9028093B80279
:1021400041E060E070E086E00E947C0184E00E9453
:10215000E5019093B7028093B60241E060E070E041
:1021600086E00E947C0184E00E94E5019093BB021E
:102170008093BA020E94D103E0E2F1E08EEF808307
:1021800086E081838BEA82838091B8029091B902C4
:10219000938384838091B6029091B702958386835E
:1021A0008091BA029091BB029783808769E0CF014A
:1021B0000E94CD12DF91CF910895CF93DF93E0E29B
:1021C000F2E0858190E0982F88272481822B9093DC
:1021D000B9028093B8020E944C01CFEFD3E041E0F6
:1021E00060E070E086E00E947C012197C1F7609179
:1021F000B8027091B90240E082E00E947C0141E0A7
:1022000060E070E088E00E947C018FE19EE401972D
:10221000F1F700C0000041E060E070E08AE00E9459
:102220007C010E94D103DF91CF9108950F931F93FA
:10223000CF93DF930E94320140E060E070E080E0E5
:102240000E947C018091CB02882379F0C0E0D0E02D
:1022500041E060E070E086E00E947C012196809180
:10226000CB0290E0C817D9079CF38091CA0288235B
:1022700059F1C5E2D2E000E010E0688170E0762F0D
:102280006627FE0131978081682B40E082E00E9442
:102290007C0141E060E070E088E00E947C018FE119
:1022A0009EE40197F1F700C0000041E060E070E0BB
:1022B00086E00E947C010F5F1F4F22968091CA0228
:1022C00090E008171907CCF20E94D103DF91CF915B
:1022D0001F910F910895CF93DF930E944C01CFEF90
:1022E000D3E041E060E070E086E00E947C0121974D
:1022F000C1F784E00E94E5019093B9028093B8028F
:102300000E94D1038FE19EE40197F1F700C0000025
:102310000E944C0140E060E070E280E00E947C019D
:10232000C7E0D0E041E060E070E086E00E947C0120
:102330002197C1F784E00E94E5019093B702809352
:10234000B6020E94D1038091B6029091B70288270D
:1023500090739093B7028093B6028FE19EE4019749
:10236000F1F700C00000DF91CF9108950F931F9304
:10237000CF93DF93E0E2F2E0C581D0E0DC2FCC2701
:102380008481C82B0E946B11DF700091B6021091FE
:10239000B7020C2B1D2B0E944C0140E060E070E264
:1023A00080E00E947C01C7E0D0E041E060E070E0A6
:1023B00086E00E947C012197C1F740E0B80182E0ED
:1023C0000E947C0141E060E070E088E00E947C01B6
:1023D0008FE19EE40197F1F700C0000041E060E06A
:1023E00070E08AE00E947C010E94D103DF91CF91CE
:1023F0001F910F910895CF93DF930E944C0140E00D
:1024000060E070E280E00E947C01C7E0D0E041E043
:1024100060E070E086E00E947C012197C1F784E0D3
:102420000E94E5019093BB028093BA020E94D103FF
:102430008091BA029091BB029C013F708091B602DC
:102440009091B702822B932B9093BB028093BA0298
:102450000E944C0140E060E070E280E00E947C015C
:10246000C7E0D0E041E060E070E086E00E947C01DF
:102470002197C1F76091BA027091BB0240E082E0FF
:102480000E947C0141E060E070E088E00E947C01F5
:102490008FE19EE40197F1F700C0000041E060E0A9
:1024A00070E08AE00E947C010E94D1030E944C01EE
:1024B000CFEFD3E041E060E070E086E00E947C0175
:1024C0002197C1F76091B8027091B90240E082E0B3
:1024D0000E947C0141E060E070E088E00E947C01A5
:1024E0008FE19EE40197F1F700C0000041E060E059
:1024F00070E08AE00E947C010E94D103DF91CF91BD
:1025000008950E946B110E944C0140E060E070E071
:1025100080E00E947C012FEF80E792E02150804014
:102520009040E1F700C0000041E060E070E089E029
:102530000E947C012FEF83EC99E021508040904075
:10254000E1F700C000000E94D1032FEF83EC99E077
:10255000215080409040E1F700C000000E944C01F3
:102560002FEF80E792E0215080409040E1F700C0DB
:10257000000041E060E070E08BE00E947C012FEF02
:1025800083EC99E0215080409040E1F700C00000CA
:102590000E94D1030E94FB1108950F931F93CF93C4
:1025A000DF93662351F08C01EC01060F111D899118
:1025B0000E94CD15C017D107D1F7DF91CF911F91A0
:1025C0000F910895E0E2F2E08EEF808381E0818355
:1025D0008CEC8283138264E0CF010E94CD120895B7
:1025E000CF92DF92EF92FF920F931F93CF93DF93DF
:1025F000C82F6B018A0179018EEF0E94CD15802FC3
:102600000E94CD158C2F0E94CD150115110571F07A
:10261000E601CE0DDF1DE00EF11E86010E0D1F1D21
:1026200089910E94CD15C017D107D1F7DF91CF91C5
:102630001F910F91FF90EF90DF90CF900895CF936F
:10264000DF93E09122028E2F90E0FC01E05AF10925
:10265000ED32F10508F090C2EC5CFF4F0C94E415EC
:102660000E94E21289C2E0912302E093CD028E2FF4
:1026700090E0FC013197E730F10508F07DC2EF5999
:10268000FF4F0C94E4150E94DD0376C20E94DD0327
:1026900073C20E94180470C20E94DD036DC20E94C2
:1026A00018046AC20E94DD0367C20E94DD0364C28F
:1026B000C0E2D2E0EB81E093CD028D8190E0982FD3
:1026C00088272E81822BAC01990F660B770B2C810A
:1026D00030E0922F8827092E000CAA0BBB0BBA2FD3
:1026E000A92F982F8827842B952BA62BB72B809367
:1026F000C0029093C102A093C202B093C3028F8123
:1027000090E0982F88272885822B9093C70280938A
:10271000C60289858093CA028A858093CB028E2F58
:1027200090E0FC013197E730F10508F025C2E85947
:10273000FF4F0C94E4150E948F061EC20E940707EB
:102740001BC20E94D60718C20E94070715C20E942A
:10275000EE0812C20E9407070E9456100DC20E9486
:1027600007070E947C1008C2E0912302E093CD028B
:102770008E2F90E0FC013197E730F105C0F4E1596C
:10278000FF4F0C94E4150E941C0A11C00E94420ADB
:102790000EC00E941D0B0BC00E94990A08C00E9427
:1027A0004B0B05C00E94811202C00E94420AE0E267
:1027B000F1E08EEF808381E0818382EA828313825D
:1027C00064E0CF010E94CD12D7C1A0E2B2E013961F
:1027D000EC911397E093CD0214968C918093CC02E8
:1027E0008E2F90E0FC013197E730F10508F0C4C16D
:1027F000EA58FF4F0C94E4150E946004BDC10E948A
:102800006004BAC10E94E504B7C10E946004B4C16B
:102810000E94E504B1C10E946004AEC10E94600440
:10282000ABC1A0E2B2E01396EC911397E093CD0216
:1028300052968C918093CC028E2F90E0FC013197C0
:10284000E730F105C0F4E358FF4F0C94E4150E9403
:102850002F0511C00E942F050EC00E94EA050BC073
:102860000E94B90508C00E94340605C00E94B61136
:1028700002C00E947005E0E2F1E08EEF808381E00B
:10288000818384EA8283138264E0CF010E94CD12A7
:1028900073C1C0E2D2E0EB81E093CD028D8190E084
:1028A000982F88272E81822BAC01990F660B770B0E
:1028B0002C8130E0922F8827092E000CAA0BBB0B2D
:1028C000BA2FA92F982F8827842B952BA62BB72BAF
:1028D0008093C0029093C102A093C202B093C3023E
:1028E0008F8190E0982F88272885822B9093C702AC
:1028F0008093C602898590E0982F88272A85822BAD
:102900009093C5028093C4028B8590E09093C90296
:102910008093C8028E2F90E0FC013197E730F105DB
:1029200070F5EC57FF4F0C94E4150E94320127C05C
:102930000E944C0124C01092BC021092BD02109261
:10294000BE021092BF021BC00E94320118C010923A
:10295000BC021092BD021092BE021092BF020FC0C4
:102960000E946B110E944C011092BC021092BD0299
:102970001092BE021092BF0202C00E943201E0E239
:10298000F1E08EEF808381E0818386EA8283138287
:1029900064E0CF010E94CD12EFC0E0912302E093EA
:1029A000CD028E2F90E0FC013197E730F105C0F4A5
:1029B000E557FF4F0C94E4150E94C90B11C00E940B
:1029C000090C0EC00E94FB0C0BC00E94B90C08C081
:1029D0000E94D00D05C00E94430C02C00E94430C0F
:1029E000E0E2F1E08EEF808381E0818386EA8283FA
:1029F000138264E0CF010E94CD12BEC080912302F9
:102A00008093CD028430C1F028F4823049F08330C5
:102A100051F023C08630E1F090F08730E1F01DC026
:102A20000E944C011AC01092BC021092BD0210927A
:102A3000BE021092BF0211C00E944C010EC0109243
:102A4000BC021092BD021092BE021092BF0205C0DD
:102A50000E944C0102C00E943201E0E2F1E08EEFE0
:102A6000808381E0818388EA8283138264E0CF01DE
:102A70000E94CD1281C0809123028093CD028430C8
:102A800091F028F4823049F0833051F017C086303D
:102A900081F060F0873081F011C00E94B00E0EC04E
:102AA0000E94E20E0BC00E94B00E08C00E94990F57
:102AB00005C00E94B00E02C00E94B00EE0E2F1E03C
:102AC0008EEF808381E0818388EA8283138264E0D1
:102AD000CF010E94CD1250C0E0E2F2E083818093EA
:102AE000CD0294819093CB02863019F0873021F08B
:102AF00043C00E94561040C00E947C103DC0E0E2DE
:102B0000F2E083818093CD0292859093CB029385EE
:102B10009093CA02863019F0873021F005C00E94D8
:102B2000DD1002C00E941611E0E2F1E08EEF80831A
:102B300081E081838CEA8283138264E0CF010E946A
:102B4000CD121AC0809123028093CD02823061F0B1
:102B500018F4813031F010C0843049F0873051F0E2
:102B60000BC00E94D10308C00E94D10305C00E947F
:102B7000D10302C00E94D103DF91CF91089510923A
:102B8000C00088E98093C10086E08093C200109263
:102B9000C50080E18093C4000895E0ECF0E09081EE
:102BA00095FFFDCF8093C6000895CF93DF93EC018E
:102BB0008881882331F021960E94CD158991811159
:102BC000FBCFDF91CF910895EE0FFF1F0590F49199
:082BD000E02D0994F894FFCFF9
:102BD80004040404040404040505020204040101B5
:0C2BE800020204040808000000000000C5
:00000001FF
