:100000000C94BC000C94D9000C94D9000C94D90029
:100010000C94D9000C94D9000C94D9000C94D900FC
:100020000C94D9000C94D9000C94D9000C94D900EC
:100030000C94D9000C94D9000C94D9000C94D900DC
:100040000C94D9000C94D9000C94E5000C94D900C0
:100050000C94D9000C94D9000C94D9000C94D900BC
:100060000C94D9000C94D9005C158115E91526165D
:100070005E16A2164B178817C51774187418F61752
:100080001A18741874184E18741874187418741890
:100090007418741874187418741874187418741800
:1000A00074187418741874187418741874187418F0
:1000B00074187418741874187418741874187418E0
:1000C00059156C156F157215751578157B157E15FC
:1000D000C415C715CA15CD15D015D315D815741864
:1000E000DD15E015E315E615F815FB15FE150116EF
:1000F000041607160A1618160D16101613161616DD
:100100003D1640164316461649164C164F167418DF
:100110005216551658165B16741677167A167D16F3
:10012000801683168616941689168C168F169216CC
:10013000EF16F216F516FE1601170A1717173D17D8
:100140001A1723172C1735175A175D1760176317DF
:10015000661769176C177A176F1772177517781764
:100160005D18601874186318741874186618741879
:1001700069186C186F18721811241FBECFEFD8E0E1
:10018000DEBFCDBF11E0A0E0B1E0E8E4F1E302C0E2
:1001900005900D92AC31B107D9F722E0ACE1B1E0A6
:1001A00001C01D92AE3CB207E1F70E942B010C94F6
:1001B000A2180C940000249A259A239A539A549AD0
:1001C000089524980895249A08951F920F920FB6C7
:1001D0000F9211242F933F938F939F93EF93FF934D
:1001E0008091C0008C7161F580911F019091C600D3
:1001F000E82FF0E0E05EFD4F90838F5F80931F015A
:10020000833021F49091210290931D0120911D01D2
:100210002223B1F090E030E02D5F3F4F821793072B
:1002200079F410921F0110921D01809122028D33EA
:1002300021F481E080931C0103C081E080931E01C2
:10024000FF91EF919F918F913F912F910F900FBE52
:100250000F901F9018950E9477180E94DB002C9831
:100260002D982B985B985C98789480911E01882338
:1002700021F00E94481510921E01F7CF009769F0F7
:1002800020E030E0EFE9FFE03197F1F700C0000037
:100290002F5F3F4F28173907A9F70895009759F0A6
:1002A00020E030E045E04A95F1F700002F5F3F4F36
:1002B00028173907B9F708950E94E3002B982D9865
:1002C0002C9887EC90E00197F1F700C000005B9A52
:1002D00087EC90E00197F1F700C000005C9A8FE98D
:1002E0009FE00197F1F700C0000008950E94E3002D
:1002F0002B982D982C9887EC90E00197F1F700C08F
:1003000000005C9A87EC90E00197F1F700C00000D4
:100310005B9A8FE39FE10197F1F700C00000089519
:100320000E94E3002B982D982C988AE68A95F1F785
:1003300000C05B9A9AE69A95F1F700C05C9A8FEA42
:1003400094E00197F1F700C0000008950F931F9308
:10035000CF93DF93182FEB01042F0E94E3002C981A
:100360002AE02A95F1F700C020E030E0812F90E0EC
:100370004AE04A95F1F700C0BC01022E02C0759513
:1003800067950A94E2F760FF02C02C9A01C02C988E
:100390002D9A4AE04A95F1F700C02D982F5F3F4F04
:1003A0002630310529F785E08A95F1F700002C9871
:1003B0002AE02A95F1F700C0002329F045E34A9589
:1003C000F1F7000027C0BE01660F771F80E090E0C4
:1003D00041E050E02AE02A95F1F700C09A01082E8A
:1003E00002C0220F331F0A94E2F726233723232B60
:1003F00011F02C9A01C02C982D9A2AE02A95F1F739
:1004000000C02D9801968031910521F745E24A956B
:10041000F1F70000DF91CF911F910F910895CF93D5
:10042000DF93C82F0E94E3004AE14A95F1F700C02C
:1004300020E030E08C2F90E04AE04A95F1F700C0D0
:10044000AC01022E02C0559547950A94E2F740FF91
:1004500002C02C9A01C02C982D9A4AE04A95F1F7D7
:1004600000C02D982F5F3F4F2630310529F78AE0D5
:100470008A95F1F700C02C984AE04A95F1F700C040
:100480002D9A8AE08A95F1F700C02D9845E24A95A9
:10049000F1F700000E94E10020E030E0C0E0D0E091
:1004A00041E050E08AE08A95F1F700C02D9A8AE099
:1004B0008A95F1F700C02D981C9B09C0CA01022E35
:1004C00002C0880F991F0A94E2F7C82BD92B2F5F1F
:1004D0003F4F2E30310531F74AE04A95F1F700C021
:1004E0000E94E3002C982D9A8AE08A95F1F700C0CB
:1004F0002D9845E24A95F1F70000CE01DF91CF91AA
:1005000008951F93CF93DF93182FEB010E94E30010
:100510002C9825E32A95F1F7000020E030E0812FA8
:1005200090E04AE14A95F1F700C0AC01022E02C00A
:10053000559547950A94E2F740FF02C02C9A01C0F6
:100540002C982D9A4AE14A95F1F700C02D982F5F1B
:100550003F4F2430310529F78AE18A95F1F700C031
:100560002C982AE12A95F1F700C080E090E041E064
:1005700050E02AE12A95F1F700C09A01082E02C046
:10058000220F331F0A94E2F72C233D23232B11F073
:100590002C9A01C02C982D9A2AE12A95F1F700C0D7
:1005A0002D9801968031910521F72C9845E34A95C5
:1005B000F1F70000DF91CF911F9108950E94E300B1
:1005C0002D982C982AE12A95F1F700C083E090E05D
:1005D0002AE12A95F1F700C02D9A2AE12A95F1F730
:1005E00000C02D980197A1F78AE18A95F1F700C024
:1005F0002D9A8FE39FE10197F1F700C000002D983D
:100600008FE891E00197F1F700C0000008950F9383
:100610001F93CF93DF9300D000D0CDB7DEB79A837E
:1006200089837C836B830E94E3002AE62A95F1F795
:1006300000C0FE0131968E010B5F1F4FBFE0A0E0AE
:1006400061E070E020C025E32A95F1F700002081E9
:100650003181AB01082E02C0440F551F0A94E2F706
:1006600024233523232B11F02C9A01C02C982D9A8A
:1006700025E32A95F1F700002D98019720F732968F
:10068000E017F10719F08B2F9A2FDDCF8AE68A95B4
:10069000F1F700C00F900F900F900F90DF91CF9166
:1006A0001F910F910895CF93DF93D82FC62F0E94EB
:1006B000E3002C9825E32A95F1F7000020E030E0D4
:1006C0008D2F90E04AE14A95F1F700C0AC01022E6F
:1006D00002C0559547950A94E2F740FF02C02C9A54
:1006E00001C02C982D9A4AE14A95F1F700C02D9847
:1006F0002F5F3F4F2430310529F78AE18A95F1F7C2
:1007000000C02C982AE12A95F1F700C080E090E023
:100710006C2F70E04AE14A95F1F700C09B01082E6A
:1007200002C0359527950A94E2F720FF02C02C9A63
:1007300001C02C982D9A2AE12A95F1F700C02D9836
:1007400001968830910531F70E94E1004AE14A950F
:10075000F1F700C020E030E0C0E041E050E08AE185
:100760008A95F1F700C02D9A8AE18A95F1F700C0C9
:100770002D981C9B08C0CA01022E02C0880F991F29
:100780000A94E2F7C82B2F5F3F4F2830310539F725
:100790000E94E3002C9825E32A95F1F700008C2FA6
:1007A000DF91CF910895CF93DF93D62FC42F682F79
:1007B00070E07E6080E00E94810268EF7EE680E06B
:1007C0000E9481026D2F70E07E6080E00E948102B5
:1007D00067EF7EE680E00E9481026C2F70E07E6011
:1007E00080E00E94810266EF7EE680E00E94810246
:1007F000DF91CF9108955C985B982B982D982C9859
:100800008FE193E00197F1F700C000000895CF93C6
:10081000DF938091CD02813021F0843011F0873058
:1008200011F40E945C018091CD028B7F823011F423
:100830000E94760140E060E070E080E00E94A60146
:10084000C6E0D0E041E060E070E086E00E94A601F2
:100850002197C1F784E00E940F02C82FD92F0E9470
:10086000FB03E0E2F1E08EEF808382E0818380EAA7
:100870008283D383C48365E0CF010E94F614DF91A5
:10088000CF910895CF93DF930E945C018091CD02B8
:10089000853031F460E578E483E49DE40E94070349
:1008A0004EEF6FEF8FE30E94D30360E088E00E9479
:1008B0005303809324010E94FB030E945C018091FA
:1008C000CD02853031F460E578E483E49DE40E9454
:1008D00007034FEF6FEF8FE30E94D30360E088E0E0
:1008E0000E945303C0E2D1E08B830E94FB038FE19F
:1008F0009EE40197F1F700C000008EEF888382E04C
:10090000898380EA8A8365E0CE010E94F614DF9134
:10091000CF910895EF92FF920F931F93CF93DF93A0
:10092000CDB7DEB72E970FB6F894DEBF0FBECDBFA2
:100930008091CD02813021F0843011F0873011F4A4
:100940000E945C018091CD028B7F823011F40E9465
:10095000760140E060E070E080E00E94A60107E0E0
:1009600010E041E060E070E086E00E94A6010150E6
:100970001109B9F78091CC028823D1F0CE010196FC
:100980007C0100E010E084E00E940F02F7018193F7
:1009900091937F0141E060E070E086E00E94A60153
:1009A0000F5F1F4F8091CC0290E0081719075CF38E
:1009B0000E94FB03E0E2F1E08EEF80838EE0818312
:1009C00083EA828389819A81938384838B819C814A
:1009D000958386838D819E81978380878F8198857B
:1009E0009187828789859A85938784878B859C8563
:1009F000958786878D859E859787808B61E1CF015E
:100A00000E94F6142E960FB6F894DEBF0FBECDBF2F
:100A1000DF91CF911F910F91FF90EF900895CF93A9
:100A2000DF930E945C0184E00E940F02C82FD92F3F
:100A30000E94FB03E0E2F1E08EEF808382E081839D
:100A400083EA8283D383C48365E0CF010E94F614D6
:100A5000DF91CF9108950F931F93CF93DF93E0E23F
:100A6000F1E08EEF80838EE0818383EA8283C0E0B1
:100A7000D0E00E945C018091CD02853031F460E5C8
:100A800078E483E49DE40E9407034C2F60E080E358
:100A90000E94D30360E088E00E9453038E01005E51
:100AA0001E4FF80184834C2F4F5F60E080E30E946B
:100AB000D30360E088E00E945303F80183830E941F
:100AC000FB038FE19EE40197F1F700C0000022963E
:100AD000CE30D10571F661E180E291E00E94F6141A
:100AE000DF91CF911F910F910895CF93DF93809164
:100AF000CD02813011F40E945C018091CD028230E0
:100B000011F40E94760140E060E070E080E00E9415
:100B1000A601C7E0D0E041E060E070E086E00E941E
:100B2000A6012197C1F7E0E2F2E0658170E0762F3F
:100B300066278481682B40E082E00E94A60141E0A4
:100B400060E070E088E00E94A6018FE19EE40197DA
:100B5000F1F700C0000041E060E070E08EE00E942C
:100B6000A6018FE19EE40197F1F700C000000E940A
:100B7000FB03DF91CF9108950E945C01E0E2F2E077
:100B8000658170E0762F66278481682B40E082E0E3
:100B90000E94A60141E060E070E088E00E94A601AA
:100BA0008FE19EE40197F1F700C0000041E060E0B2
:100BB00070E08EE00E94A6018FE891E00197F1F7C6
:100BC00000C000000E94FB030895CF93DF930E94B2
:100BD0005C0140E060E070E080E00E94A601C7E0B8
:100BE000D0E041E060E070E086E00E94A60121973D
:100BF000C1F78091CC02882351F1C0E0D0E0FE0122
:100C0000E05EFD4F658170E0762F66278481682B5A
:100C100040E082E00E94A60141E060E070E088E0F0
:100C20000E94A6018FE19EE40197F1F700C0000049
:100C300041E060E070E086E00E94A601229680918B
:100C4000CC0290E0880F991FC817D907C4F20E9400
:100C5000FB03DF91CF910895CF93DF930E945C0156
:100C600040E060E070E080E00E94A601C7E0D0E0D4
:100C700041E060E070E086E00E94A6012197C1F7A4
:100C8000E0E2F2E0658170E0762F66278481682BD0
:100C900040E082E00E94A60141E060E070E088E16F
:100CA0000E94A6018FE19EE40197F1F700C00000C9
:100CB0000E94FB03DF91CF910895EF92FF920F9373
:100CC0001F93CF93DF930F2EF4E2EF2EF2E0FF2E6F
:100CD000F02D02E312E0E7010E945C014C2F4E1957
:100CE00060E080E30E94D303699170E0962F88272B
:100CF000682B792B8FE00E9481020E94DE0260E067
:100D000070E080E00E94810260E070E080E00E947C
:100D100081022FEF80E792E0215080409040E1F780
:100D200000C000000E94FB032FEF80E792E02150FB
:100D300080409040E1F700C00000C017D10761F685
:100D4000DF91CF911F910F91FF90EF900895EF9257
:100D5000FF920F931F93CF93DF930F2EF4E2EF2EAA
:100D6000F2E0FF2EF02D02E312E0E7010E945C01A9
:100D700060E578E483E49DE40E9407036FE77EE882
:100D800080E00E9481026FE77CE980E00E9481029E
:100D90004C2F4E1960E080E30E94D303699170E00C
:100DA000962F8827682B792B8FE00E9481020E9462
:100DB000DE0260E070E080E00E94810260E070E0AE
:100DC00080E00E9481022FEF80E792E02150804076
:100DD0009040E1F700C000000E94FB032FEF80E786
:100DE00092E0215080409040E1F700C00000C01721
:100DF000D10709F0BBCFDF91CF911F910F91FF90E9
:100E0000EF9008957F928F929F92AF92BF92CF9270
:100E1000DF92EF92FF920F931F93CF93DF930E9485
:100E20005C018091CD028950843030F441E060E073
:100E300070E086E00E94A6018091C0029091C102FC
:100E4000A091C202B091C302892B8A2B8B2B81F512
:100E50004CC084E00E940F02FE013197908388838A
:100E600041E060E070E086E00E94A6012296C01793
:100E7000D10779F7F70170828182928263E8C70116
:100E80000E94F614F0E8CF0ED11CA6010D2C000C28
:100E9000660B770B8091C0029091C102A091C202B3
:100EA000B091C302481759076A077B07E0F01DC0DD
:100EB000C12CD12C0F2EF4E2AF2EF1E0BF2EF02D7D
:100EC00004EA11E00F2EF0E2EF2EF1E0FF2EF02DFC
:100ED0000F2EFEEF7F2EF02D6894882487F80F2EBA
:100EE000F1EA9F2EF02DE501B4CF0E94FB03DF91C4
:100EF000CF911F910F91FF90EF90DF90CF90BF9017
:100F0000AF909F908F907F9008957F928F929F9245
:100F1000AF92BF92CF92DF92EF92FF920F931F9307
:100F2000CF93DF930E9476018FE19EE40197F1F762
:100F300000C000008091C0029091C102A091C20245
:100F4000B091C302892B8A2B8B2B81F54CC084E096
:100F50000E940F02FE0131979083888341E060E098
:100F600070E086E00E94A6012296C017D10779F7AB
:100F7000F70170828182928263E8C7010E94F614B1
:100F8000F0E8CF0ED11CA6010D2C000C660B770BE0
:100F90008091C0029091C102A091C202B091C3029F
:100FA000481759076A077B07E0F01DC0C12CD12CF8
:100FB0000F2EF4E2AF2EF1E0BF2EF02D04EA11E087
:100FC0000F2EF0E2EF2EF1E0FF2EF02D0F2EFEEFB0
:100FD0007F2EF02D6894882487F80F2EF1EA9F2E3B
:100FE000F02DE501B4CF0E94FB032FEF83EC99E0D5
:100FF000215080409040E1F700C000000E9476013F
:101000008091C6029091C702892B09F53DC085E009
:101010000E940F02899341E060E070E086E00E9448
:10102000A601C017D10799F7F701708281829282D9
:1010300063E4C7010E94F614F0E4CF0ED11C809146
:10104000C6029091C702C816D906E0F01DC0C12C97
:10105000D12C0F2EF3E2AF2EF1E0BF2EF02D03E6E0
:1010600011E00F2EF0E2EF2EF1E0FF2EF02D0F2E0B
:10107000FEEF7F2EF02D6894882486F80F2EF9EA73
:101080009F2EF02DE501C3CF0E94FB03DF91CF918E
:101090001F910F91FF90EF90DF90CF90BF90AF9096
:1010A0009F908F907F9008953F924F925F926F92A2
:1010B0007F928F929F92AF92BF92CF92DF92EF92E8
:1010C000FF920F931F93CF93DF930E945C0140E048
:1010D00060E080E00E94D3038091C0029091C10241
:1010E000A091C202B091C302892B8A2B8B2B79F578
:1010F0004BC060E089E00E945303888360E089E090
:101100000E945303FE01319780832296C017D107B6
:1011100081F7F70170828182928263E8C7010E94A1
:10112000F614F0E8CF0ED11CA6010D2C000C660BB6
:10113000770B8091C0029091C102A091C202B09140
:10114000C302481759076A077B07E0F01DC0C12C8E
:10115000D12C0F2EF4E2AF2EF1E0BF2EF02D04EAD9
:1011600011E00F2EF0E2EF2EF1E0FF2EF02D0F2E0A
:10117000FEEF7F2EF02D6894882487F80F2EF1EA79
:101180009F2EF02DE501B5CF0E94FB038091C60292
:101190009091C702892B09F48DC00E945C0166EA18
:1011A0007EE980E00E94810266EA7CE980E00E949C
:1011B00081028091C6029091C702892B09F04FC02D
:1011C00077C0E801C80DD91DBE0177277E6080E099
:1011D0000E94810269EA7EE680E00E9481026D2F12
:1011E00077277E6080E00E9481026AEA7EE680E0E6
:1011F0000E94810266EA70E880E00E94810268EA4B
:1012000070E580E00E94810265EF7EE680E00E944A
:10121000810260E070E080E00E94810260E082E094
:101220000E94530360E082E00E945303F401819323
:101230004F01EE15FF0529F6F601308241825282F8
:1012400063E4C6010E94F614F0E4AF0EB11C809175
:10125000C6029091C702A816B90600F129C0A12CB8
:10126000B12C0F2EF3E6EF2EF1E0FF2EF02D8DEFD7
:101270009FEF9C012052314039010F2EF0E2CF2E1A
:10128000F1E0DF2EF02D0F2EFEEF3F2EF02D6894B3
:10129000442446F80F2EF9EA5F2EF02D0F2EF3E2CC
:1012A0008F2EF1E09F2EF02D83010A0D1B1D89CF9B
:1012B0000E94FB03DF91CF911F910F91FF90EF9060
:1012C000DF90CF90BF90AF909F908F907F906F9066
:1012D0005F904F903F9008953F924F925F926F9230
:1012E0007F928F929F92AF92BF92CF92DF92EF92B6
:1012F000FF920F931F93CF93DF930E945C0160E5F1
:1013000078E483E49DE40E94070340E060E080E02D
:101310000E94D3038091C0029091C102A091C202A9
:10132000B091C302892B8A2B8B2B79F5E3C060E047
:1013300089E00E945303888360E089E00E945303A0
:10134000FE01319780832296C017D10781F7F701FC
:1013500070828182928263E8C7010E94F614F0E8ED
:10136000CF0ED11CA6010D2C000C660B770B8091C3
:10137000C0029091C102A091C202B091C30248176D
:1013800059076A077B07E0F01DC0C12CD12C0F2E36
:10139000F4E2AF2EF1E0BF2EF02D04EA11E00F2EA3
:1013A000F0E2EF2EF1E0FF2EF02D0F2EFEEF7F2E5C
:1013B000F02D6894882487F80F2EF1EA9F2EF02DE7
:1013C000E501B5CF0E94FB038FE39CE90197F1F79C
:1013D00000C000008091C6029091C702892B09F0DD
:1013E00064C096C00E945C0160E578E483E49DE4FB
:1013F0000E940703E701C00FD11F6FE77EE980E07D
:101400000E9481026FE77CE980E00E948102BE01B8
:1014100077277E6080E00E94810264E77EE680E0BC
:101420000E9481026D2F77277E6080E00E948102FA
:1014300065E77EE680E00E9481026FE770E880E069
:101440000E94810263E770E580E00E94810265EFFF
:101450007EE680E00E94810260E070E080E00E9411
:10146000810260E082E00E945303F80181938F01C2
:1014700060E082E00E9453030E94FB030C151D05EF
:1014800009F0B0CFF40130824182528263E4C4019A
:101490000E94F614F0E4AF0EB11C8091C602909148
:1014A000C702A816B90600F133C0A12CB12C0F2E2B
:1014B000F3E6CF2EF1E0DF2EF02D8DEF9FEF9C01B4
:1014C0002052314039010F2EF0E28F2EF1E09F2E95
:1014D000F02D0F2EFEEF3F2EF02D6894442446F899
:1014E0000F2EF9EA5F2EF02D03E211E07301EA0CF2
:1014F000FB1C78CF0E94FB038FE39CE90197F1F777
:1015000000C000008091C6029091C702892B69F645
:10151000DF91CF911F910F91FF90EF90DF90CF90CF
:10152000BF90AF909F908F907F906F905F904F9003
:101530003F9008950E945C0141E060E070E089E026
:101540000E94A6012FEF83EC99E02150804090404B
:10155000E1F700C000000E94FB0308950F931F9362
:10156000CF93DF938091CD028B3031F08C3009F432
:10157000BDC08A3021F4B7C000E011E0B9C00E94BC
:101580005C018091CD028A50833070F0BDC0C0E014
:10159000D0E041E060E070E086E00E94A601219684
:1015A000C017D107B0F302C000E010E084E00E9451
:1015B0000F029093B7028093B602C5E0D0E041E0FD
:1015C00060E070E086E00E94A6012197C1F784E008
:1015D0000E940F029093BB028093BA020E94FB0309
:1015E0000E945C0141E060E070E086E00E94A6019C
:1015F00041E060E070E089E00E94A6012FEF83ECFB
:1016000099E0215080409040E1F700C000000E9426
:10161000FB038FE19EE40197F1F700C00000809189
:10162000CD028A50833008F095C00E945C010115FC
:10163000110561F0C0E0D0E041E060E070E086E0DC
:101640000E94A6012196C017D107B1F76091B6029A
:101650007091B70240E082E00E94A60141E060E0A4
:1016600070E088E00E94A6018FE19EE40197F1F707
:1016700000C0000041E060E070E08EE00E94A60142
:101680008FE891E00197F1F700C00000C5E0D0E0DD
:1016900041E060E070E086E00E94A6012197C1F77A
:1016A0006091BA027091BB0240E082E00E94A60104
:1016B00041E060E070E088E00E94A6018FE19EE4D6
:1016C0000197F1F700C0000041E060E070E08EE0BB
:1016D0000E94A6018FE891E00197F1F700C0000099
:1016E0000E94FB0337C000E014E002C000E012E0FB
:1016F0000E945C018091CD028A50833008F447CF6C
:101700006DCF0E945C01A2CF0E94FB030E945C018E
:1017100041E060E070E086E00E94A60141E060E008
:1017200070E089E00E94A6019FEF23EC89E09150D0
:1017300020408040E1F700C000000E94FB038FE1E1
:101740009EE40197F1F700C000008091CD028A501D
:101750008330B8F2DF91CF911F910F9108950E94CD
:10176000760140E060E070E080E00E94A6012FEF8B
:1017700080E792E0215080409040E1F700C00000F7
:1017800040E06FEF7FE382E00E94A6012FEF80E749
:1017900092E0215080409040E1F700C0000041E01D
:1017A00060E070E089E00E94A6012FEF83EC99E0F1
:1017B000215080409040E1F700C000000E94FB03F0
:1017C0002FEF83EC99E0215080409040E1F700C07A
:1017D00000000E9476012FEF80E792E021508040C8
:1017E0009040E1F700C0000041E060E070E08BE075
:1017F0000E94A6012FEF83EC99E021508040904099
:10180000E1F700C000000E94FB030895CF93DF932F
:101810000E945C0140E060EF7FE380E00E94A6014F
:10182000C7E0D0E041E060E070E086E00E94A60101
:101830002197C1F741E060E070E081E00E94A601DD
:1018400041E060E070E087E00E94A60141E060E0D6
:1018500070E088E00E94A6018FE79BEB0197F1F70B
:1018600000C0000041E060E070E081E00E94A6015D
:1018700041E060E070E087E00E94A6010E94FB0367
:101880009FEF20E782E0915020408040E1F700C0C8
:1018900000000E945C0140E06FEF7FE382E00E9465
:1018A000A60141E060E070E089E00E94A60141E00D
:1018B00060E070E088E10E94A6019FEF20E782E0EF
:1018C000915020408040E1F700C000000E94FB03DF
:1018D0000E945C0140E06FEF7FE383E00E94A6017D
:1018E00041E060E070E08BE00E94A60141E060E032
:1018F00070E088E10E94A6019FEF20E782E091500E
:1019000020408040E1F700C000000E94FB03DF910F
:10191000CF9108950E945C0145E060E08CE30E9455
:10192000D3036FE37FE38CE00E94810244E060E038
:101930008CE30E94D3036FE87FE88CE00E94810271
:101940000E94DE0260E070E080E00E94810260E0C0
:1019500070E080E00E9481022FEF80E792E021504A
:1019600080409040E1F700C000000E94FB03089512
:10197000CF92DF92EF92FF920F931F93CF93DF935B
:10198000CDB7DEB76C970FB6F894DEBF0FBECDBFF4
:101990008EE0E0E0F1E0DE01119601900D928A9573
:1019A000E1F78EE0EEE0F1E0DE011F9601900D928E
:1019B0008A95E1F78E010F5F1F4F7E012FE0E20E47
:1019C000F11C67010E945C0160E578E483E49DE41A
:1019D0000E94070344E060E08CE30E94D303F80117
:1019E000619171918F018CE00E94810245E060E07D
:1019F0008CE30E94D303F701619171917F018CE028
:101A00000E94810246E060E08CE30E94D30360E81C
:101A100070E88CE00E9481020E94DE0260E070E0CB
:101A200080E00E94810260E070E080E00E9481021C
:101A3000FFEF20E782E0F15020408040E1F700C056
:101A400000000E94FB030C151D0509F0BBCF6C962E
:101A50000FB6F894DEBF0FBECDBFDF91CF911F91BF
:101A60000F91FF90EF90DF90CF900895EF92FF924B
:101A70000F931F93CF93DF938091CD0289508430D1
:101A800018F00FEF1FE302C00FEF1FE00F2EF5E27B
:101A9000EF2EF2E0FF2EF02DC5EAD2E0F7016081D3
:101AA00070E0762F662731978081682B6017710769
:101AB00039F441E060E070E086E00E94A60122C0B7
:101AC00040E082E00E94A60141E060E070E088E032
:101AD0000E94A6018091C4029091C5020E943E011D
:101AE00041E060E070E08EE00E94A6018FE891E0A6
:101AF0000197F1F700C0000041E060E070E086E08F
:101B00000E94A60192E0E90EF11CEC16FD0631F6EA
:101B1000DF91CF911F910F91FF90EF9008950F9358
:101B20001F93CF93DF93C5E2D2E005EA12E068810C
:101B300070E0762F6627FE0131978081682B6F3F1A
:101B40008FE3780739F441E060E070E086E00E94BE
:101B5000A60116C040E082E00E94A60141E060E0DC
:101B600070E088E00E94A6018091C4029091C502B5
:101B70000E943E0141E060E070E086E00E94A60124
:101B80002296C017D10799F6DF91CF911F910F913F
:101B900008950F931F93CF93DF93C5E2D2E005EA38
:101BA00012E0688170E0762F6627FE013197808110
:101BB000682B6F3F2FE3720739F441E060E070E07B
:101BC00086E00E94A60151C08091BC029091BD02A6
:101BD000A091BE02B091BF028F3F9340A105B10515
:101BE000D9F46091B8027091B90240E082E00E949D
:101BF000A60141E060E070E088E00E94A6018091CB
:101C0000C4029091C5020E943E0141E060E070E094
:101C100086E00E94A60116C040E082E00E94A60174
:101C200041E060E070E088E00E94A6018091C4027B
:101C30009091C5020E943E0141E060E070E086E0C4
:101C40000E94A6018091BC029091BD02A091BE02AB
:101C5000B091BF020196A11DB11D8093BC0290936B
:101C6000BD02A093BE02B093BF022296C017D10757
:101C700009F097CFDF91CF911F910F9108950F93A6
:101C80001F93CF93DF93C5E2D2E005EA12E06881AB
:101C900070E0762F6627FE0131978081682B6F3FB9
:101CA0008FE3780759F441E060E070E086E00E943D
:101CB000A6018AE68A95F1F700C01AC040E082E0EA
:101CC0000E94A6018AE68A95F1F700C041E060E033
:101CD00070E088E00E94A6018091C4029091C50244
:101CE0000E943E0141E060E070E086E00E94A601B3
:101CF0002296C017D10759F6DF91CF911F910F910E
:101D00000895AF92BF92CF92DF92EF92FF920F931E
:101D10001F93CF93DF9300E010E0A12CB12CA9C05A
:101D2000DF0111972C912F3F29F420812F3F11F4CF
:101D30006E5F7F4F029632968417950788F364177B
:101D40007507A9F48091BC029091BD02A091BE02DA
:101D5000B091BF02840F951FA11DB11D8093BC02DD
:101D60009093BD02A093BE02B093BF0279C00E94BF
:101D70005C0166EA7EE880E00E94810266EA7CE916
:101D800080E00E9481024091BC025091BD026091AE
:101D9000BE027091BF02BB27A72F962F852F682FF9
:101DA000892F0E94D3038091C8029091C9020097A5
:101DB00059F1CC5DDD4FCA2CDB2C0297C816D90631
:101DC00058F0F701608170E0762F66278881682BD4
:101DD0008FE00E9481020AC0F701608170E0762FD7
:101DE00066278881682B8DE00E948102F2E0CF0E89
:101DF000D11C8091C8029091C902229622E0E20E85
:101E0000F11CC816D906C8F20E94DE026A2D7B2D8D
:101E100080E00E9481026A2D7B2D80E00E94810279
:101E20002091C8023091C9028091BC029091BD02FC
:101E3000A091BE02B091BF02820F931FA11DB11DE0
:101E40008093BC029093BD02A093BE02B093BF02E8
:101E50000E94FB038FE39FE10197F1F700C00000B0
:101E60008091C8029091C902080F191F003811050E
:101E700094F44091C8025091C9024115510509F4EA
:101E800061CFE801F801EB5DFD4F7F018A2D9B2DAD
:101E90006A2D7B2D45CFDF91CF911F910F91FF9040
:101EA000EF90DF90CF90BF90AF900895AF92BF9228
:101EB000CF92DF92EF92FF920F931F93CF93DF9316
:101EC00000E010E0A12CB12CB4C0DF0111972C91DF
:101ED0002F3F29F420812F3F11F46E5F7F4F029630
:101EE00032968417950788F364177507A9F48091D3
:101EF000BC029091BD02A091BE02B091BF02840FBE
:101F0000951FA11DB11D8093BC029093BD02A093AB
:101F1000BE02B093BF0284C00E945C0160E578E419
:101F200083E49DE40E9407036FE77EE880E00E945F
:101F300081026FE77CE980E00E9481026FE774E82C
:101F400080E00E9481024091BC025091BD026091EC
:101F5000BE027091BF02BB27A72F962F852F682F37
:101F6000892F0E94D3038091C8029091C9020097E3
:101F700059F1CC5DDD4FCA2CDB2C0297C816D9066F
:101F800058F0F701608170E0762F66278881682B12
:101F90008FE00E9481020AC0F701608170E0762F15
:101FA00066278881682B8DE00E948102F2E0CF0EC7
:101FB000D11C8091C8029091C902229622E0E20EC3
:101FC000F11CC816D906C8F20E94DE026A2D7B2DCC
:101FD00080E00E9481026A2D7B2D80E00E948102B8
:101FE0002091C8023091C9028091BC029091BD023B
:101FF000A091BE02B091BF02820F931FA11DB11D1F
:102000008093BC029093BD02A093BE02B093BF0226
:102010000E94FB038FE39FE10197F1F700C00000EE
:102020008091C8029091C902080F191F003811054C
:1020300094F44091C8025091C9024115510509F428
:1020400056CFE801F801EB5DFD4F7F018A2D9B2DF6
:102050006A2D7B2D3ACFDF91CF911F910F91FF9089
:10206000EF90DF90CF90BF90AF9008950F931F93A4
:10207000CF93DF93C4E2D2E004E612E069916F3FB0
:1020800039F441E060E070E086E00E94A60118C0EB
:1020900070E040E083E00E94A60141E060E070E073
:1020A00088E00E94A6018091C4029091C502029628
:1020B0000E943E0141E060E070E086E00E94A601DF
:1020C000C017D107D9F6DF91CF911F910F910895D5
:1020D0004F925F926F927F928F929F92AF92BF9238
:1020E000EF92FF920F931F93CF930E945C0166EAD9
:1020F0007EE980E00E94810266EA7CE980E00E943D
:10210000810204E212E00F2EF4E6EF2EF2E0FF2E41
:10211000F02D812C912C5401F80181918F018F3F7A
:1021200009F460C04090BC025090BD026090BE02B5
:102130007090BF02682D640D70E07E6080E00E94A8
:10214000810269EA7EE680E00E948102480C591C07
:102150006A1C7B1C652D70E07E6080E00E9481021D
:102160006AEA7EE680E00E948102F8013197608190
:1021700070E07E6080E00E94810268EA7EE680E096
:102180000E94810266EA74E880E00E94810266EAA9
:1021900072E880E00E94810266EA70E580E00E94B9
:1021A000810265EF7EE680E00E94810260E070E0DF
:1021B00080E00E94810260E082E00E945303C82F09
:1021C00060E082E00E9453038C2B31F32D988FE165
:1021D0009EE40197F1F700C0000066EA74E980E030
:1021E0000E9481029FEF891A990AA90AB90A0E155D
:1021F0001F0509F091CF8091BC029091BD02A09182
:10220000BE02B091BF02805C9F4FAF4FBF4F809323
:10221000BC029093BD02A093BE02B093BF020E9485
:10222000FB03CF911F910F91FF90EF90BF90AF9064
:102230009F908F907F906F905F904F9008954F92F6
:102240005F926F927F928F929F92AF92BF92EF9226
:10225000FF920F931F93CF930E945C0160E578E497
:1022600083E49DE40E9407036FE77EE980E00E941B
:1022700081026FE77CE980E00E94810204E212E0C3
:102280000F2EF4E6EF2EF2E0FF2EF02D812C912C94
:102290005401F80181918F018F3F09F460C0409093
:1022A000BC025090BD026090BE027090BF02682DCB
:1022B000640D70E07E6080E00E94810264E77EE64B
:1022C00080E00E948102480C591C6A1C7B1C652D11
:1022D00070E07E6080E00E94810265E77EE680E03B
:1022E0000E948102F8013197608170E07E6080E099
:1022F0000E94810263E77EE680E00E9481026FE730
:1023000074E880E00E9481026FE772E880E00E943A
:1023100081026FE770E580E00E94810265EF7EE652
:1023200080E00E94810260E070E080E00E94810213
:1023300060E082E00E945303C82F60E082E00E94C8
:1023400053038C2B31F32D988FE19EE40197F1F725
:1023500000C000006FE774E980E00E9481029FEFF7
:10236000891A990AA90AB90A0E151F0509F091CF11
:102370008091BC029091BD02A091BE02B091BF02BB
:10238000805C9F4FAF4FBF4F8093BC029093BD02C4
:10239000A093BE02B093BF020E94FB03CF911F9196
:1023A0000F91FF90EF90BF90AF909F908F907F9094
:1023B0006F905F904F900895CF93DF930E947601C6
:1023C000CFEFD3E041E060E070E086E00E94A6013C
:1023D0002197C1F784E00E940F02C82FD92F0E94D5
:1023E000FB03E0E2F1E08EEF808382E081838BEA01
:1023F0008283D383C48365E0CF010E94F614DF910A
:10240000CF910895CF93DF930E945C0140E060E09C
:1024100070E080E00E94A6018091CB02882379F0D1
:10242000C0E0D0E041E060E070E086E00E94A601FC
:1024300021968091CB0290E0C817D9079CF384E0E5
:102440000E940F029093B9028093B80241E060E0CD
:1024500070E086E00E94A60184E00E940F02909343
:10246000B7028093B60241E060E070E086E00E942F
:10247000A60184E00E940F029093BB028093BA02EF
:102480000E94FB03E0E2F1E08EEF808386E081832F
:102490008BEA82838091B8029091B90293838483FE
:1024A0008091B6029091B702958386838091BA029B
:1024B0009091BB029783808769E0CF010E94F61458
:1024C000DF91CF9108950F931F93CF93DF93809166
:1024D000CD028B3029F08C3091F18A3021F42CC060
:1024E00000E011E02EC00E945C010AC041E060E003
:1024F00070E086E00E94A6012196C017D107B0F3D4
:1025000084E00E940F029093B9028093B8020E9467
:10251000FB03E0E2F1E08EEF808382E081838BEACF
:1025200082838091B8029091B9029383848365E09D
:10253000CF010E94F6140AC000E014E002C000E0DF
:1025400012E00E945C01C0E0D0E0D0CFDF91CF91DB
:102550001F910F9108950F931F93CF93DF93E0E2A4
:10256000F2E0858190E0982F88272481822B909338
:10257000B9028093B8028091CD028B3029F08C3063
:10258000C9F18A3021F433C000E011E035C00E9467
:102590005C010AC041E060E070E086E00E94A601B4
:1025A0002196C017D107B0F36091B8027091B902BB
:1025B00040E082E00E94A60141E060E070E088E037
:1025C0000E94A6018FE19EE40197F1F700C0000090
:1025D00041E060E070E08EE00E94A6018FE891E0AB
:1025E0000197F1F700C000000E94FB030AC000E061
:1025F00014E002C000E012E00E945C01C0E0D0E004
:10260000C9CFDF91CF911F910F910895CF93DF93A1
:10261000E0E2F2E0858190E0982F88272481822BE8
:102620009093B9028093B8020E947601CFEFD3E075
:1026300041E060E070E086E00E94A6012197C1F7CA
:102640006091B8027091B90240E082E00E94A60158
:1026500041E060E070E088E00E94A6018FE19EE426
:102660000197F1F700C0000041E060E070E08AE00F
:102670000E94A6010E94FB03DF91CF9108950F9362
:102680001F93CF93DF930E945C0140E060E070E015
:1026900080E00E94A6018091CB02882379F0C0E0FF
:1026A000D0E041E060E070E086E00E94A601219663
:1026B0008091CB0290E0C817D9079CF38091CA02A1
:1026C000882359F1C5E2D2E000E010E0688170E0B3
:1026D000762F6627FE0131978081682B40E082E0EB
:1026E0000E94A60141E060E070E088E00E94A6013F
:1026F0008FE19EE40197F1F700C0000041E060E047
:1027000070E086E00E94A6010F5F1F4F2296809125
:10271000CA0290E008171907CCF20E94FB03DF9170
:10272000CF911F910F910895CF93DF930E9476016F
:10273000CFEFD3E041E060E070E086E00E94A601C8
:102740002197C1F784E00E940F029093B902809311
:10275000B8020E94FB038FE19EE40197F1F700C0ED
:1027600000000E94760140E060E070E280E00E949C
:10277000A601C7E0D0E041E060E070E086E00E94A2
:10278000A6012197C1F784E00E940F029093B7023F
:102790008093B6020E94FB038091B6029091B7022B
:1027A000882790739093B7028093B6028FE19EE4DE
:1027B0000197F1F700C00000DF91CF9108950F93CA
:1027C0001F93CF93DF93E0E2F2E0C581D0E0DC2FEE
:1027D000CC278481C82B0E949413DF700091B6022D
:1027E0001091B7020C2B1D2B0E94760140E060E097
:1027F00070E280E00E94A601C7E0D0E041E060E026
:1028000070E086E00E94A6012197C1F740E0B80180
:1028100082E00E94A60141E060E070E088E00E9452
:10282000A6018FE19EE40197F1F700C0000041E0AE
:1028300060E070E08AE00E94A6010E94FB03DF9145
:10284000CF911F910F910895CF93DF930E9476014E
:1028500040E060E070E280E00E94A601C7E0D0E0C6
:1028600041E060E070E086E00E94A6012197C1F798
:1028700084E00E940F029093BB028093BA020E94F0
:10288000FB038091BA029091BB029C013F70809142
:10289000B6029091B702822B932B9093BB02809348
:1028A000BA020E94760140E060E070E280E00E949F
:1028B000A601C7E0D0E041E060E070E086E00E9461
:1028C000A6012197C1F76091BA027091BB0240E066
:1028D00082E00E94A60141E060E070E088E00E9492
:1028E000A6018FE19EE40197F1F700C0000041E0EE
:1028F00060E070E08AE00E94A6010E94FB030E9453
:102900007601CFEFD3E041E060E070E086E00E9426
:10291000A6012197C1F76091B8027091B90240E019
:1029200082E00E94A60141E060E070E088E00E9441
:10293000A6018FE19EE40197F1F700C0000041E09D
:1029400060E070E08AE00E94A6010E94FB03DF9134
:10295000CF9108950E9494130E94760140E060E0B8
:1029600070E080E00E94A6012FEF80E792E0215006
:1029700080409040E1F700C0000041E060E070E07E
:1029800089E00E94A6012FEF83EC99E0215080405E
:102990009040E1F700C000000E94FB032FEF83ECA2
:1029A00099E0215080409040E1F700C000000E9473
:1029B00076012FEF80E792E0215080409040E1F7D0
:1029C00000C0000041E060E070E08BE00E94A601E2
:1029D0002FEF83EC99E0215080409040E1F700C058
:1029E00000000E94FB030E94241408950F931F937C
:1029F000CF93DF93662351F08C01EC01060F111D7C
:102A000089910E948518C017D107D1F7DF91CF9126
:102A10001F910F910895E0E2F2E08EEF808381E054
:102A200081838CEC8283138264E0CF010E94F614D0
:102A30000895CF92DF92EF92FF920F931F93CF935F
:102A4000DF93C82F6B018A0179018EEF0E948518F0
:102A5000802F0E9485188C2F0E9485180115110562
:102A600071F0E601CE0DDF1DE00EF11E86010E0DA8
:102A70001F1D89910E948518C017D107D1F7DF91DA
:102A8000CF911F910F91FF90EF90DF90CF9008951D
:102A9000CF93DF93E09122028E2F90E0FC01E05A69
:102AA000F109ED32F10508F01FC3EC5CFF4F0C9407
:102AB0009C180E940B1518C3E0912302E093CD02ED
:102AC0008E2F90E0FC013197E730F10508F00CC340
:102AD000EF59FF4F0C949C180E94070405C30E94F5
:102AE000070402C30E944204FFC20E940704FCC202
:102AF0000E944204F9C20E940704F6C20E94070421
:102B0000F3C2C0E2D2E0EB81E093CD028D8190E090
:102B1000982F88272E81822BAC01990F660B770B9B
:102B20002C8130E0922F8827092E000CAA0BBB0BBA
:102B3000BA2FA92F982F8827842B952BA62BB72B3C
:102B40008093C0029093C102A093C202B093C302CB
:102B50008F8190E0982F88272885822B9093C70239
:102B60008093C60289858093CA028A858093CB02AE
:102B70008E2F90E0FC013197EC30F10508F0B4C2E3
:102B8000E859FF4F0C949C180E940207ADC20E94A6
:102B90008507AAC20E945408A7C20E948507A4C242
:102BA0000E946C09A1C20E9485070E94DC119CC290
:102BB0000E9485070E94021297C20E94020794C2D7
:102BC0000E94020791C20E9402078EC20E94020761
:102BD0008BC2E0912302E093CD028E2F90E0FC01A6
:102BE0003197EC30F10520F5EC58FF4F0C949C1810
:102BF0000E949A0A1DC00E94AF0B1AC00E948A0C44
:102C000017C00E94060C14C00E94B80C11C00E948C
:102C1000AA140EC00E94AF0B0BC00E94AE0A08C0DF
:102C20000E94AE0A05C00E94AE0A02C00E94AE0A0F
:102C3000E0E2F1E08EEF808381E0818382EA8283AB
:102C4000138264E0CF010E94F6144EC2A0E2B2E00B
:102C50001396EC911397E093CD0214968C91809388
:102C6000CC028E2F90E0FC013197EC30F10508F09A
:102C70003BC2E058FF4F0C949C180E948A0434C257
:102C80000E948A0431C20E942B052EC20E948A042F
:102C90002BC20E942B0528C20E948A0425C20E94D2
:102CA0008A0422C20E940F051FC20E940F051CC287
:102CB0000E940F0519C20E940F0516C2A0E2B2E0E1
:102CC0001396EC911397E093CD0252968C918093DA
:102CD000CC028E2F90E0FC013197EC30F10520F50D
:102CE000E457FF4F0C949C180E9475051DC00E946C
:102CF00075051AC00E945D0617C00E942C0614C0FC
:102D00000E94A70611C00E94DF130EC00E94E505B5
:102D10000BC00E94BC0508C00E94BC0505C00E94F3
:102D2000BC0502C00E94BC05E0E2F1E08EEF8083AA
:102D300081E0818384EA8283138264E0CF010E9470
:102D4000F614D2C1C0E2D2E0EB81E093CD028D81D6
:102D500090E0982F88272E81822BAC01990F660B6B
:102D6000770B2C8130E0922F8827092E000CAA0BBC
:102D7000BB0BBA2FA92F982F8827842B952BA62B16
:102D8000B72B8093C0029093C102A093C202B0936C
:102D9000C3028F8190E0982F88272885822B9093FB
:102DA000C7028093C602898590E0982F88272A85DC
:102DB000822B9093C5028093C4028B8590E0909300
:102DC000C9028093C8028E2F90E0FC013197EC304D
:102DD000F10508F052C0E856FF4F0C949C180E9471
:102DE0005C014BC00E94760148C01092BC02109258
:102DF000BD021092BE021092BF023FC00E945C0151
:102E00003CC01092BC021092BD021092BE02109201
:102E1000BF0233C00E9494130E9476011092BC023C
:102E20001092BD021092BE021092BF0226C00E94F4
:102E30005C0123C00E945C0141E060E070E086E03C
:102E40000E94A6011AC00E945C0141E060E070E0AF
:102E500086E00E94A60111C00E945C0141E060E092
:102E600070E086E00E94A60108C00E945C0141E07B
:102E700060E070E086E00E94A601E0E2F1E08EEF03
:102E8000808381E0818386EA8283138264E0CF01BC
:102E90000E94F61429C1E0912302E093CD028E2F07
:102EA00090E0FC013197EC30F10520F5EC55FF4F37
:102EB0000C949C180E94360D1DC00E948F0D1AC0E4
:102EC0000E94810E17C00E943F0E14C00E94560F30
:102ED00011C00E94C90D0EC00E94C90D0BC00E94F6
:102EE000360D08C00E94360D05C00E94360D02C086
:102EF0000E94360DE0E2F1E08EEF808381E0818375
:102F000086EA8283138264E0CF010E94F614ECC04B
:102F1000809123028093CD028430C1F028F4823066
:102F200049F0833051F023C08630E1F090F08730D3
:102F3000E1F01DC00E9476011AC01092BC021092EE
:102F4000BD021092BE021092BF0211C00E94760113
:102F50000EC01092BC021092BD021092BE021092DE
:102F6000BF0205C00E94760102C00E945C01E0E23F
:102F7000F1E08EEF808381E0818388EA828313828F
:102F800064E0CF010E94F614AFC0809123028093C9
:102F9000CD02843091F028F4823049F0833051F032
:102FA00017C0863081F060F0873081F011C00E9438
:102FB00036100EC00E9468100BC00E94361008C068
:102FC0000E941F1105C00E94361002C00E943610D8
:102FD000E0E2F1E08EEF808381E0818388EA828302
:102FE000138264E0CF010E94F6147EC0E0E2F2E0BA
:102FF00083818093CD0294819093CB028A3089F0B3
:1030000028F4863041F0873049F06EC08B3061F093
:103010008C3069F069C00E94DC1166C00E94021207
:1030200063C00E94631260C00E9463125DC00E9470
:1030300063125AC0E0E2F2E083818093CD02928570
:103040009093CB0293859093CA028A3089F028F43A
:10305000863041F0873049F013C08B3061F08C30FE
:1030600069F00EC00E9406130BC00E943F1308C0F7
:103070000E94AB1205C00E94AB1202C00E94AB12AC
:10308000E0E2F1E08EEF808381E081838CEA82834D
:10309000138264E0CF010E94F61426C0E09123025F
:1030A000E093CD028E2F90E0FC013197EC30F105DA
:1030B000D8F4E055FF4F0C949C180E94FB0314C0F9
:1030C0000E94FB0311C00E94FB030EC00E94FB0381
:1030D0000BC00E94FB0308C00E94FB0305C00E94B6
:1030E000FB0302C00E94FB03DF91CF910895109271
:1030F000C00088E98093C10086E08093C2001092EE
:10310000C50080E18093C4000895E0ECF0E0908178
:1031100095FFFDCF8093C6000895CF93DF93EC0118
:103120008881882331F021960E9485188991811128
:10313000FBCFDF91CF910895EE0FFF1F0590F49123
:08314000E02D0994F894FFCF83
:10314800040404040404040405050202040401013F
:0C3158000202040408080000000000004F
:00000001FF
