:100000000C9434000C9451000C9451000C94510049
:100010000C9451000C9451000C9451000C9451001C
:100020000C9451000C9451000C9451000C9451000C
:100030000C9451000C9451000C9451000C945100FC
:100040000C9451000C9451000C945F000C945100DE
:100050000C9451000C9451000C9451000C945100DC
:100060000C9451000C94510011241FBECFEFD8E026
:10007000DEBFCDBF11E0A0E0B1E0E8E9FEE302C0E1
:1000800005900D92AA36B107D9F723E0AAE6B1E0B0
:1000900001C01D92AC31B207E1F70E94A0000C94A0
:1000A0007C1E0C940000219A229A389A579A569AEC
:1000B0003C9A5F9A089521980895219A08951F9275
:1000C0001FB61F9211242F938F939F93EF93FF934B
:1000D0008091C0008C71811126C020916D028091A9
:1000E000C600E22FF0E0E259FD4F80832F5F20939E
:1000F0006D02233021F480916F0280936B02809116
:100100006B02811581F090E003962817190659F4C7
:1001100010926D0210926B02809170028D3361F427
:1001200081E080936A01FF91EF919F918F912F91D0
:100130001F901FBE1F90189581E080936C02F3CF33
:100140000E94551E0E94530029982A9840985F9853
:100150005E98789480916C02811521F00E94A51B15
:1001600010926C02F7CF9C0180E090E08217930719
:1001700009F40895EFE9FFE03197F1F700C00000BE
:100180000196F4CF9C0180E090E08217930709F478
:10019000089545E04A95F1F700000196F6CF5F9883
:1001A0008FE99FE00197F1F700C00000219A229AA1
:1001B00044980E945D0040982A98299887EC90E026
:1001C0000197F1F700C000005F9A87EC90E001977B
:1001D000F1F700C000005E9A8FE99FE00197F1F708
:1001E00000C0000008955F988FE99FE00197F1F744
:1001F00000C00000219A229A44980E945D00409815
:100200002A98299887EC90E00197F1F700C0000048
:100210005E9A87EC90E00197F1F700C000005F9ACA
:100220008FE39FE10197F1F700C0000008950F935D
:100230001F93CF93DF93C82F8B01D42F0E945D00B3
:1002400029982AE02A95F1F700C020E030E08C2FB1
:1002500090E04AE04A95F1F700C0AC01022E02C0DE
:10026000559547950A94E2F740FF20C0299A2A9AAB
:100270004AE04A95F1F700C02A982F5F3F4F263099
:10028000310539F785E08A95F1F7000029982AE0D1
:100290002A95F1F700C0D11559F045E34A95F1F7D9
:1002A0000000DF91CF911F910F9108952998DFCF22
:1002B000000F111F80E090E041E050E02AE02A9515
:1002C000F1F700C09A01082E02C0220F331F0A94D2
:1002D000E2F720233123232B79F0299A2A9A2AE066
:1002E0002A95F1F700C02A9801968031910531F7DF
:1002F00045E24A95F1F7D4CF2998F0CF0F931F9399
:10030000CF93DF93D82F162F042FC22F0E945D00AA
:1003100029982AE02A95F1F700C020E030E08D2FDF
:1003200090E04AE04A95F1F700C0AC01022E02C00D
:10033000559547950A94E2F740FF77C0299A2A9A83
:100340004AE04A95F1F700C02A982F5F3F4F2630C8
:10035000310539F78AE18A95F1F700C029982AE03A
:100360002A95F1F700C02A9A4AE04A95F1F700C0B1
:100370002A9880E090E0D0E02AE02A95F1F700C0CA
:10038000AE01082E02C0559547950A94E2F740FF4A
:100390004EC0299A2A9A4AE04A95F1F700C02A9855
:1003A00001968830910541F780E090E0402F50E0C1
:1003B0002AE02A95F1F700C09A01082E02C035956F
:1003C00027950A94E2F720FF34C0299A2A9A2AE056
:1003D0002A95F1F700C02A9801968830910541F7D7
:1003E00080E090E0612F70E04AE04A95F1F700C0AC
:1003F0009B01082E02C0359527950A94E2F720FF4D
:100400001AC0299A2A9A2AE02A95F1F700C02A9858
:1004100001968730910541F74AE14A95F1F700C00E
:10042000DF91CF911F910F910895299888CF299836
:10043000B1CF2998CBCF2998E5CFFF920F931F9387
:10044000CF93DF93D82FF62EC42F122F0E945D007A
:10045000299847E050E08D2F90E02AE02A95F1F7A7
:1004600000C09C01042E02C0359527950A94E2F73E
:1004700020FF7CC0299A2A9A2AE02A95F1F700C029
:100480002A984150510948F74AE04A95F1F700C0CF
:10049000299885E28A95F1F70000F11061C02A9A47
:1004A0002AE02A95F1F700C02A9885E090E0D0E094
:1004B0004AE04A95F1F700C09E01082E02C035952A
:1004C00027950A94E2F720FF53C0299A2A9A2AE036
:1004D0002A95F1F700C02A98019750F787E090E03D
:1004E000212F30E04AE04A95F1F700C0A901082E1B
:1004F00002C0559547950A94E2F740FF3BC0299A00
:100500002A9A4AE04A95F1F700C02A98019750F7D5
:1005100087E090E010E02AE02A95F1F700C098010A
:10052000082E02C0359527950A94E2F720FF24C0D3
:10053000299A2A9A4AE04A95F1F700C02A98019729
:1005400050F74AE04A95F1F700C029982A9A8AE0C4
:100550008A95F1F700C02A982AE22A95F1F700C09F
:10056000DF91CF911F910F91FF900895299883CF2C
:100570002998ACCF2998C4CF2998DBCFCF93DF93AC
:10058000C82F0E945D00299827E030E0D0E04AE0C3
:100590004A95F1F700C0AE01022E02C0559547956D
:1005A0000A94E2F740FF53C0299A2A9A8AE08A9572
:1005B000F1F700C02A982150310948F78AE08A955E
:1005C000F1F700C00E945B004AE24A95F1F700C0D3
:1005D000C7E0D0E08AE18A95F1F700C02A9A4AE1A3
:1005E0004A95F1F700C02A982197A1F780E090E0A2
:1005F00020E030E84AE14A95F1F700C02A9A4AE142
:100600004A95F1F700C02A98199B09C0A901082E44
:1006100002C0569547950A94E2F7C42BD52B019654
:100620008031910539F78AE18A95F1F700C02A9A5D
:100630004AE14A95F1F700C02A9885E28A95F1F7D8
:1006400000000E945D00CE01DF91CF9108952998AE
:10065000ACCFCF93DF93C82F0E945D004AE14A954B
:10066000F1F700C020E030E0D0E08AE08A95F1F7B1
:1006700000C0AE01022E02C0559547950A94E2F7DC
:1006800040FF55C0299A2A9A4AE04A95F1F700C0DE
:100690002A982F5F3F4F2630310539F78AE08A9537
:1006A000F1F700C029984AE04A95F1F700C02A9A6C
:1006B0008AE08A95F1F700C02A9845E24A95F1F759
:1006C00000000E945B0080E090E0C0E0D0E021E00C
:1006D00030E04AE04A95F1F700C02A9A4AE04A958C
:1006E000F1F700C02A98199B09C0A901082E02C081
:1006F000440F551F0A94E2F7C42BD52B01968E3078
:10070000910539F78AE08A95F1F700C00E945D00F3
:1007100029982A9A4AE04A95F1F700C02A9885E27A
:100720008A95F1F70000CE01DF91CF9108952998C5
:10073000AACF0F931F93CF93C82F8B010E945D0008
:10074000299825E32A95F1F7000020E030E08C2F6E
:1007500090E04AE14A95F1F700C0AC01022E02C0D8
:10076000559547950A94E2F740FF3CC0299A2A9A8A
:100770004AE14A95F1F700C02A982F5F3F4F243095
:10078000310539F78AE18A95F1F700C029982AE105
:100790002A95F1F700C080E090E041E050E02AE1C6
:1007A0002A95F1F700C09A01082E02C0220F331FCC
:1007B0000A94E2F720233123232BB1F0299A2A9AB5
:1007C0002AE12A95F1F700C02A9801968031910517
:1007D00031F7299845E34A95F1F70000CF911F9131
:1007E0000F9108952998C3CF2998E9CF0E945D0001
:1007F0002A9829982AE12A95F1F700C083E090E031
:100800002AE12A95F1F700C02A9A2AE12A95F1F700
:1008100000C02A980197A1F78AE18A95F1F700C0F4
:100820002A9A8FE39FE10197F1F700C000002A9810
:100830008FE891E00197F1F700C000000895CF9391
:10084000DF9300D000D0CDB7DEB79A8389837C8355
:100850006B830E945D008AE68A95F1F700C0FE0175
:100860003196AE014B5F5F4F60E070E820E030E012
:1008700085E38A95F1F70000A081B181CB01022EBA
:1008800002C0969587950A94E2F78A239B23892BC9
:10089000D9F0299A2A9A85E38A95F1F700002A98D7
:1008A0002F5F3F4F2031310519F73296E417F507D6
:1008B000E9F68AE68A95F1F700C00F900F900F9045
:1008C0000F90DF91CF9108952998E4CF5E980E9410
:1008D0005D0040982A9829988AE68A95F1F700C029
:1008E0005F9A8AE68A95F1F700C0409A8AE68A956F
:1008F000F1F700C040988AE68A95F1F700C060E5FC
:1009000078E483E49DE40E941F048AE68A95F1F767
:1009100000C0409A089580911303863059F030F456
:10092000823041F0853041F00C94CF008D3061F081
:100930008631F9CF0C94F3000E94CF0060E578E493
:1009400083E49DE40C941F040C946604CF93DF931E
:10095000D82FC62F0E945D00299825E32A95F1F72C
:10096000000020E030E08D2F90E04AE14A95F1F759
:1009700000C0AC01022E02C0559547950A94E2F7DB
:1009800040FF5DC0299A2A9A4AE14A95F1F700C0D2
:100990002A982F5F3F4F2430310539F78AE18A9535
:1009A000F1F700C029982AE12A95F1F700C080E00C
:1009B00090E0D0E04AE14A95F1F700C09E01082E90
:1009C00002C0359527950A94E2F720FF3AC0299A8C
:1009D0002A9A2AE12A95F1F700C02A9801968830D0
:1009E000910541F70E945B004AE14A95F1F700C08A
:1009F00080E090E0C0E021E030E04AE14A95F1F784
:100A000000C02A9A4AE14A95F1F700C02A98199B3A
:100A100007C0A901082E01C0440F0A94EAF7C42BAD
:100A200001968830910549F70E945D00299885E379
:100A30008A95F1F700008C2FDF91CF9108952998C6
:100A4000A2CF2998C5CFCF93DF93D62FC42F682F7D
:100A500070E07E6080E00E94990368EF7EE680E0AF
:100A60000E9499036D2F70E07E6080E00E949903E0
:100A700067EF7EE680E00E9499036C2F70E07E6055
:100A800080E00E94990366EF7EE680E0DF91CF91DF
:100A90000C9499035E985F9840982A9829988FE162
:100AA00093E00197F1F700C00000089540985F9827
:100AB00040982A9829988FE193E00197F1F700C0B8
:100AC00000000895809113038D3081F40E94560533
:100AD000219822982FEF81EE94E0215080409040A1
:100AE000E1F700C00000449A5F9A08950E944A0509
:100AF000EFCF0F931F93CF93DF930E948B0440E0BF
:100B000060E070E080E00E94170106E010E041E044
:100B100060E070E086E00E94170101501040B9F7D4
:100B200084E00E942903EC010E9462058EEF80930D
:100B30006B0182E080936C0180EA80936D01DC2779
:100B4000CD27DC27D0936F01C0936E0165E08BE663
:100B500091E0DF91CF911F910F910C945D1B0F934A
:100B6000CF93DF930E948B0480911303823139F479
:100B700006E020E840E060E080E80E941D028091ED
:100B80001303833139F40EEF2FEF4FE360E080E879
:100B90000E941D028CEF0E94BE02EC010E946205C1
:100BA0008EEF80936B0182E080936C0180EA8093EA
:100BB0006D01DC27CD27DC27D0936F01C0936E0138
:100BC00065E08BE691E0DF91CF910F910C945D1B76
:100BD000CF93DF930E948B044EEF6FEF8FE30E9461
:100BE000230560E089E00E94A604CBE6D1E08C8377
:100BF0004FEF6FEF8FE30E94230560E089E00E94D2
:100C0000A6048B830E9462058FE19EE40197F1F7B1
:100C100000C000008EEF888382E0898380EA8A83A7
:100C200065E0CE01DF91CF910C945D1BEF92FF92B6
:100C30000F931F93CF93DF93CDB7DEB72E970FB6E9
:100C4000F894DEBF0FBECDBF0E948B0440E060E091
:100C500070E080E00E94170107E010E041E060E0F2
:100C600070E086E00E94170101501040B9F7CE01F4
:100C700001967C0100E010E0809110030817110537
:100C80000CF45BC00E9462058EEF80936B018EE0D6
:100C900080936C0183EA80936D0189819A81982702
:100CA0008927982790936F0180936E018B819C8197
:100CB00098278927982790937101809370018D81DF
:100CC0009E819827892798279093730180937201BA
:100CD0008F8198859827892798279093750180930D
:100CE000740189859A859827892798279093770199
:100CF000809376018B859C859827892798279093E8
:100D00007901809378018D859E859827892798277A
:100D100090937B0180937A0161E18BE691E02E96BE
:100D20000FB6F894DEBF0FBECDBFDF91CF911F91FC
:100D30000F91FF90EF900C945D1B84E00E942903BB
:100D4000F701819391937F0141E060E070E086E0DC
:100D50000E9417010F5F1F4F8FCFCF92DF92EF924C
:100D6000FF920F93CF93DF93CDB7DEB72E970FB6D9
:100D7000F894DEBF0FBECDBF0E948B048091130399
:100D8000823139F407E020E840E060E080E80E942A
:100D90001D0280911303833139F400E020E040E329
:100DA00060E080E80E941D02CE0101966C01E12CFA
:100DB000F12C80911003E816F1040CF45CC00E9441
:100DC00062058EEF80936B018EE080936C0183EA65
:100DD00080936D0189819A8198278927982790931C
:100DE0006F0180936E018B819C81982789279827BA
:100DF00090937101809370018D819E81982789273E
:100E0000982790937301809372018F81988598271A
:100E100089279827909375018093740189859A8515
:100E200098278927982790937701809376018B855F
:100E30009C8598278927982790937901809378013A
:100E40008D859E8598278927982790937B0180938D
:100E50007A0161E18BE691E02E960FB6F894DEBF41
:100E60000FBECDBFDF91CF910F91FF90EF90DF903C
:100E7000CF900C945D1B8CEF0E94BE02F601819313
:100E800091936F0100E020E040E061E088EF0E9474
:100E90001D02FFEFEF1AFF0A8CCFCF93DF930E9462
:100EA0008B0484E00E942903EC010E946205EBE6BA
:100EB000F1E08EEF808382E0818383EA8283DC2706
:100EC000CD27DC27D483C38365E0CF01DF91CF91A9
:100ED0000C945D1B0F931F93CF938EEF80936B0148
:100EE0008EE080936C0183EA80936D010BE611E044
:100EF000C0E00E948B044C2F60E080E30E94230539
:100F000060E088E00E94A604F801848341E04C0F71
:100F100060E080E30E94230560E088E00E94A60470
:100F2000F80183830E9462058FE19EE40197F1F747
:100F300000C00000CE5F0E5F1F4FCE30D1F661E1E2
:100F40008BE691E0CF911F910F910C945D1BCF9395
:100F5000DF930E948B0440E060E070E080E00E943C
:100F60001701C7E0D0E041E060E070E086E00E9459
:100F700017012197C1F7609172027091730240E0EE
:100F800082E00E94170180911303845141E060E0E8
:100F900070E08230E8F488E10E9417018FE19EE45E
:100FA0000197F1F700C000008091130341E060E079
:100FB00070E0853179F48AE00E9417018FE19EE4A8
:100FC0000197F1F700C00000DF91CF910C9462050A
:100FD00088E0E2CF8EE0F0CFEF92FF920F93CF93B5
:100FE000DF930E948B0480911303823139F407E070
:100FF00020E840E060E080E80E941D028091130339
:10100000833139F400E020E040E360E080E80E94B2
:101010001D02CEE6D2E0E12CF12C8091100390E08D
:10102000880F991FE816F9063CF0DF91CF910F91D8
:10103000FF90EF900C94620580911303823171F45C
:101040000C812D8140E060E080E00E941D0200E004
:1010500020E040E061E080EE0E941D0280911303D9
:10106000833139F40C812D8140E060E080EC0E94F6
:101070001D022FEF86E791E0215080409040E1F77C
:1010800000C0000000E020E040E061E088EF0E9446
:101090001D0222E0E20EF11C2296BFCF0E948B04BB
:1010A000609172027091730240E082E00E94170129
:1010B00041E060E070E088E00E9417018FE19EE46B
:1010C0000197F1F700C0000041E060E070E08EE0C1
:1010D0000E9417018FE891E00197F1F700C000002E
:1010E0000C9462050F931F93CF93DF930E948B04A0
:1010F00040E060E070E080E00E941701C7E0D0E0CF
:1011000041E060E070E086E00E9417012197C1F79E
:10111000CEE6D2E000E010E022968091100390E04D
:10112000880F991F0817190734F0DF91CF911F918D
:101130000F910C9462058B816A81782F40E082E0E8
:101140000E94170141E060E070E088E00E94170112
:101150008FE19EE40197F1F700C0000041E060E0FC
:1011600070E086E00E9417010E5F1F4FD5CFCF932E
:10117000DF930E948B0440E060E070E080E00E941A
:101180001701C7E0D0E041E060E070E086E00E9437
:1011900017012197C1F7609172027091730240E0CC
:1011A00082E00E94170141E060E070E088E10E9467
:1011B00017018FE19EE40197F1F700C00000DF9175
:1011C000CF910C946205EF92FF920F931F93CF93F0
:1011D00002E712E0C0E0EE24E394FE2C0E948B04B0
:1011E0004C2F60E080E30E942305F80181918F017C
:1011F0008E9DB0018F9D700D11248FE00E94990388
:101200000E94F60360E070E080E00E94990360E0D5
:1012100070E080E00E949903FFEF20E782E0F15048
:1012200020408040E1F700C000000E9462059FEF6F
:10123000E0E7F2E09150E040F040E1F700C000004C
:10124000CF5FCE3059F6CF911F910F91FF90EF9065
:101250000895EF92FF920F931F93CF9302E712E04E
:10126000C0E0EE24E394FE2C0E948B0480911303D3
:10127000873109F044C066EA7EE880E00E94990365
:1012800066EA7CE880E00E9499034C2F60E080E3EE
:101290000E942305F80181918F018E9DB0018F9DE1
:1012A000700D11248FE00E9499030E94F60360E004
:1012B00070E080E00E94990360E070E080E00E94AE
:1012C0009903FFEF20E782E0F15020408040E1F7F2
:1012D00000C000000E9462059FEFE0E7F2E091503D
:1012E000E040F040E1F700C00000CF5FCE3009F0F1
:1012F000BBCFCF911F910F91FF90EF9008956FE7B3
:101300007EE880E00E9499036FE77CE9BBCFBF9243
:10131000CF92DF92EF92FF920F931F93CF93DF93C1
:101320000E948B04809113038950843030F441E093
:1013300060E070E086E00E941701C12CD12C76019C
:101340001EEF00E881EAB82E8091180390911903EE
:10135000A0911A03B0911B03C816D906EA06FB0632
:1013600058F0DF91CF911F910F91FF90EF90DF9098
:10137000CF90BF900C946205CBE6D1E084E00E9450
:1013800029039B838C8341E060E070E086E00E944B
:101390001701229681E0CB3ED80781F710936B01AD
:1013A00000936C01B0926D0163E88BE691E00E94BE
:1013B0005D1B80916A018115E1F310926A0180E85A
:1013C000C80ED11CE11CF11CBFCFBF92CF92DF929F
:1013D000EF92FF920F931F93CF93DF930E948B04A2
:1013E000C12CD12C76011EEF00E831EAB32E80919A
:1013F000180390911903A0911A03B0911B03C8160A
:10140000D906EA06FB0620F10E9462050E948B04C1
:1014100020E040EF60E08DE10E947E01C0E0D0E07E
:101420008EEFF82E90E4E92E29EAD22E8091140353
:1014300090911503C817D90770F1DF91CF911F91D3
:101440000F91FF90EF90DF90CF90BF900C946205CA
:10145000CBE6D1E084E20E9429039B838C83229611
:1014600081E0CB3ED807B1F710936B0100936C017C
:10147000B0926D0163E88BE691E00E945D1B809164
:101480006A018115E1F310926A01E0E8CE0ED11CE9
:10149000E11CF11CACCF0EE611E084E20E942903AE
:1014A000F80181938F01F1E00E3A1F07B1F7F09236
:1014B0006B01E0926C01D0926D0163E48BE691E0E8
:1014C0000E945D1B80916A018115E1F310926A010F
:1014D000C05CDF4FABCFCF92DF92EF92FF920F93C2
:1014E0001F93CF93DF930E948B04C12CD12C7601E4
:1014F00010E801EA8091180390911903A0911A0352
:10150000B0911B03C816D906EA06FB0688F10E94B3
:1015100062050E948B0480911303823139F400E04C
:1015200020EF40E060E080E80E941D0280911303FC
:10153000833139F400E020E041E360E080E80E947C
:101540001D02C0E0D0E080E4F82E99EAE92E8091F7
:10155000140390911503C817D90770F1DF91CF914B
:101560001F910F91FF90EF90DF90CF900C94620548
:10157000CBE6D1E08EEF0E94BE029B838C83229645
:1015800081E0CB3ED807B1F78EEF80936B011093CB
:101590006C0100936D0163E88BE691E00E945D1B96
:1015A00080916A018115E1F310926A01E0E8CE0EA4
:1015B000D11CE11CF11C9ECF0EE611E08EEF0E94C3
:1015C000BE02F80181938F01F1E00E3A1F07B1F7D7
:1015D0008EEF80936B01F0926C01E0926D0163E4F9
:1015E0008BE691E00E945D1B80916A018115E1F319
:1015F00010926A01C05CDF4FAACFBF92CF92DF92F8
:10160000EF92FF920F931F93CF93DF930E948B046F
:10161000C12CD12C76011EEF00E831EAB32E809167
:10162000180390911903A0911A03B0911B03C816D7
:10163000D906EA06FB0638F10E9462059FEFE0E753
:10164000F2E09150E040F040E1F700C000000E945D
:101650008B04C0E0D0E08EEFF82E90E4E92E29EA6A
:10166000D22E8091140390911503C817D907A0F1C9
:10167000DF91CF911F910F91FF90EF90DF90CF906E
:10168000BF900C946205CBE6D1E084E00E94290370
:101690009B838C8341E060E070E086E00E9417014C
:1016A000229621E0CB3ED20781F710936B01009385
:1016B0006C01B0926D0163E88BE691E00E945D1BC6
:1016C00080916A018115E1F310926A0180E8C80EE9
:1016D000D11CE11CF11CA3CF0EE611E085E00E94B5
:1016E0002903F80181938F0141E060E070E086E01A
:1016F0000E941701F1E00E3A1F0781F7F0926B018B
:10170000E0926C01D0926D0163E48BE691E00E945F
:101710005D1B80916A018115E1F310926A01C05C42
:10172000DF4F9FCFBF92CF92DF92EF92FF920F9346
:101730001F93CF93DF930E948B0440E060E080E032
:101740000E942305C12CD12C76011EEF00E851EA3E
:10175000B52E8091180390911903A0911A03B091AE
:101760001B03C816D906EA06FB0680F10E94620533
:101770008091140390911503892B09F4A8C00E944D
:101780008B0466EA7EE980E00E94990366EA7CE9C0
:1017900080E00E949903C0E0D0E02EEFD22E30E42A
:1017A000C32E49EAB42E8E01809114039091150343
:1017B000C817D90798F1DF91CF911F910F91FF9032
:1017C000EF90DF90CF90BF900C946205CBE6D1E014
:1017D00060E089E00E94A6048C8360E089E00E94BA
:1017E000A6048B83229681E0CB3ED80789F710931D
:1017F0006B0100936C01B0926D0163E88BE691E0A0
:101800000E945D1B80916A018115E1F310926A01CB
:10181000E0E8CE0ED11CE11CF11C9BCF9EE6E92E28
:1018200091E0F92EB80177277E6080E00E9499034D
:1018300069EA7EE680E00E949903612F77277E6047
:1018400080E00E9499036AEA7EE680E00E949903A4
:1018500066EA70E880E00E94990368EA70E580E03B
:101860000E94990365EF7EE680E00E9499038091D3
:101870001303873129F060E070E080E00E94990353
:1018800060E082E00E94A60460E082E00E94A6047C
:10189000F70181937F010F5F1F4FFEEAEF16F1E022
:1018A000FF0609F0BFCFD0926B01C0926C01B092DD
:1018B0006D0163E48BE691E00E945D1B80916A01FB
:1018C0008115E1F310926A01C05CDF4F6CCFDF91AC
:1018D000CF911F910F91FF90EF90DF90CF90BF902D
:1018E0000895BF92CF92DF92EF92FF920F931F93D2
:1018F000CF93DF930E948B0440E060E080E00E9481
:101900002305C12CD12C76011EEF00E851EAB52E3B
:101910008091180390911903A0911A03B0911B03B1
:10192000C816D906EA06FB0660F10E946205EFE3DD
:10193000FCE93197F1F700C0000080911403909109
:101940001503892B09F4CBC00E948B04C0E0D0E0C2
:101950002EEFD22E30E4C32E49EAB42E8E018091B0
:10196000140390911503C817D90798F1DF91CF910F
:101970001F910F91FF90EF90DF90CF90BF900C944C
:101980006205CBE6D1E060E089E00E94A6048C838A
:1019900060E089E00E94A6048B83229681E0CB3E22
:1019A000D80789F710936B0100936C01B0926D0119
:1019B00063E88BE691E00E945D1B80916A018115CE
:1019C000E1F310926A0190E8C90ED11CE11CF11CF0
:1019D0009FCF9EE6E92E91E0F92E6FE77EE980E049
:1019E0000E9499036FE77CE980E00E949903B801A7
:1019F00077277E6080E00E949903809113038530F1
:101A000029F464E77EE680E00E9499038091130345
:101A1000863129F462E67EE680E00E949903612F18
:101A200077277E6080E00E949903809113038530C0
:101A300029F465E77EE680E00E9499038091130314
:101A4000863129F463E67EE680E00E9499036FE721
:101A500070E880E00E94990380911303853029F497
:101A600063E770E580E00E9499038091130386315B
:101A700029F461E670E580E00E94990365EF7EE657
:101A800080E00E94990360E070E080E00E9499038A
:101A900060E082E00E94A604F70181937F0160E08C
:101AA00082E00E94A6040F5F1F4FFEEAEF16F1E0EE
:101AB000FF0609F092CFD0926B01C0926C01B092F8
:101AC0006D0163E48BE691E00E945D1B80916A01E9
:101AD0008115E1F310926A01C05CDF4F3FCFDF91C7
:101AE000CF911F910F91FF90EF90DF90CF90BF901B
:101AF00008950E948B04809113038E3031F420E00E
:101B000048EE60E08DE10E947E01809113038531F3
:101B100079F440E060E070E080E00E9417012FEF70
:101B200080E792E0215080409040E1F700C0000043
:101B300041E060E070E089E00E9417012FEF83EC44
:101B400099E0215080409040E1F700C000000C94E3
:101B500062050F930E948B0480911303823139F444
:101B600000E020E840E060E080E80E941D028091F3
:101B70001303833139F400E020E040E260E080E8C4
:101B80000E941D0200E020E040E061E088E10E9448
:101B90001D022FEF80E792E0215080409040E1F756
:101BA00000C000000E946205809113038331E1F4BC
:101BB0000E948B0401E020E041E360E080E80E94A5
:101BC0001D0200E020E040E061E088E10E941D028B
:101BD0002FEF80E792E0215080409040E1F700C075
:101BE00000000F910C9462050F9108950F931F93BD
:101BF000CF93DF93E0911303EA50C0E0D0E0E330ED
:101C000038F4F0E0EE0FFF1FEC59FE4FC081D18198
:101C10000E948B04809113038A5000E010E083300F
:101C200008F487C00E9462050E948B0441E060E0D6
:101C300070E086E00E94170141E060E070E089E01A
:101C40000E9417012FEF83EC99E0215080409040D3
:101C5000E1F700C000000E9462058FE19EE4019759
:101C6000F1F700C00000809113038A50833008F020
:101C700086C00E948B0400E010E00C171D0709F0DD
:101C800075C0609106037091070340E082E00E94F6
:101C9000170141E060E070E088E00E9417018FE1E9
:101CA0009EE40197F1F700C0000041E060E070E0C1
:101CB0008EE00E9417018FE891E00197F1F700C0D4
:101CC0000000C5E0D0E041E060E070E086E00E9406
:101CD00017012197C1F7609104037091050340E05B
:101CE00082E00E94170141E060E070E088E00E941D
:101CF00017018FE19EE40197F1F700C0000041E079
:101D000060E070E08EE00E9417018FE891E001979B
:101D1000F1F700C00000DF91CF911F910F910C945B
:101D2000620541E060E070E086E00E9417010F5F0D
:101D30001F4F0C171D07A9F784E00E9429039093F9
:101D400007038093060305E010E041E060E070E0E7
:101D500086E00E94170101501040B9F784E00E940C
:101D6000290390930503809304035CCF41E060E076
:101D700070E086E00E9417010F5F1F4F7ECFDF915A
:101D8000CF911F910F9108950E948B0440E060E075
:101D900070E080E00E9417012FEF80E792E0215071
:101DA00080409040E1F700C0000040E06FEF7FE32B
:101DB00082E00E9417012FEF80E792E021508040DF
:101DC0009040E1F700C0000041E060E070E089E091
:101DD0000E9417012FEF83EC99E021508040904042
:101DE000E1F700C000000E9462052FEF83EC99E04C
:101DF000215080409040E1F700C000000E948B0419
:101E00002FEF80E792E0215080409040E1F700C042
:101E1000000041E060E070E08BE00E9417012FEFCE
:101E200083EC99E0215080409040E1F700C0000031
:101E30000C9462050E948B0440E060E070E080E05A
:101E40000E94170141E060E070E08FE10E941701FD
:101E50002FEF83EC99E0215080409040E1F700C0E3
:101E600000000C946205CF93DF930E948B0440E046
:101E70006FEF7FE380E00E941701C7E0D0E041E010
:101E800060E070E086E00E9417012197C1F741E011
:101E900060E070E081E00E94170141E060E070E0E6
:101EA00087E00E94170141E060E070E088E00E9456
:101EB00017018FE79BEB0197F1F700C0000041E0AD
:101EC00060E070E081E00E94170141E060E070E0B6
:101ED00087E00E9417010E9462059FEF20E782E0E1
:101EE000915020408040E1F700C00000DF91CF9189
:101EF00008950F931F93CF93DF930E948B0440E0CC
:101F00006FEF7FE382E00E941701C0E0D0E041E084
:101F100060E070E081E00E94170141E060E070E065
:101F200087E00E94170141E060E070E088E00E94D5
:101F300017018FE39CE90197F1F700C0000041E031
:101F400060E070E081E00E94170141E060E070E035
:101F500087E00E9417018FED9EE20197F1F700C024
:101F600000000E9462052196C330D105F1F00E9465
:101F70008B04C130D10539F440E06FEF7FE383E09B
:101F80000E941701C4CF40E060E070E080E00E9452
:101F9000170107E010E041E060E070E086E00E9499
:101FA000170101501040B9F7B2CFDF91CF911F91C7
:101FB0000F9108950F931F93CF93DF938091130395
:101FC0008350C0E0D0E000E010E08E3068F490E094
:101FD000880F991FFC01E85BFE4F00811181845D31
:101FE0009E4FFC01C081D1810E948B0445E060E0DE
:101FF0008CE30E942305B8018CE00E94990344E021
:1020000060E08CE30E942305BE018CE00E949903EE
:102010000E94F60360E070E080E00E94990360E0B7
:1020200070E080E00E949903FFEF20E782E0F1502A
:1020300020408040E1F700C00000DF91CF911F9168
:102040000F910C9462050E948B0444E060E08CE3E5
:102050000E94230560E870E08CE00E9499030E94D2
:10206000F60360E070E080E00E94990360E070E0B9
:1020700080E00E9499032FEF80E792E0215080409A
:102080009040E1F700C000000C946205AF92BF924F
:10209000CF92DF92EF92FF920F931F93CF93DF9334
:1020A000CDB7DEB7AC970FB6F894DEBF0FBECDBF8D
:1020B00086E1E0E0F1E0DE01579601900D928A950D
:1020C000E1F726E1E6E1F1E0CE010196DC010190C5
:1020D0000D922A95E1F730911303282F892F07E0FD
:1020E000363109F40BE010E05E0197E1A90EB11C56
:1020F000C22ED82EE12CF12C0E948B0444E060E02B
:102100008CE30E942305F501619171915F018CE0E0
:102110000E94990345E060E08CE30E942305F601EC
:10212000619171916F018CE00E94990346E060E03B
:102130008CE30E94230560E870E88CE00E9499031C
:102140000E94F60360E070E080E00E94990360E086
:1021500070E080E00E949903FFEF20E782E0F150F9
:1021600020408040E1F700C000000E946205EFE1DE
:10217000FEE43197F1F700C00000FFEFEF1AFF0A0D
:10218000E016F1060CF4B8CFAC960FB6F894DEBFAB
:102190000FBECDBFDF91CF911F910F91FF90EF90B8
:1021A000DF90CF90BF90AF900895EF92FF920F9382
:1021B0001F93CF93DF938091130389500FEF1FE09C
:1021C000843010F00FEF1FE3CEE6D2E08EEEE82E63
:1021D00082E0F82E8D816C81782F6017710789F469
:1021E00041E060E070E086E00E9417012296EC1664
:1021F000FD0681F7DF91CF911F910F91FF90EF9036
:10220000089540E082E00E941701809113038451F9
:1022100041E060E070E08230D0F488E10E94170174
:1022200080910E0390910F030E94B30080911303DD
:1022300041E060E070E0853161F48AE00E941701BE
:102240008FE891E00197F1F700C00000C9CF88E066
:10225000E5CF8EE0F3CF0F931F93CF93DF93CEE6BE
:10226000D2E00EEE12E08D816C81782F6F3F8FE30C
:10227000780779F441E060E070E086E00E941701A1
:1022800022960C171D0779F7DF91CF911F910F91BF
:10229000089540E082E00E94170141E060E070E0B4
:1022A00088E00E94170180910E0390910F030E9415
:1022B000B300E0CF0F931F93CF93DF93CEE6D2E02E
:1022C0000EEE12E08D816C81782F6F3F8FE37807DF
:1022D00079F441E060E070E086E00E941701229608
:1022E0000C171D0779F7DF91CF911F910F9108957A
:1022F00040E082E00E94170141E060E070E088E188
:102300000E94170180910E0390910F030E94B30069
:1023100041E060E070E087E10E941701DACF0F939F
:102320001F93CF93DF93CEE6D2E00EEE12E08D81C5
:102330006C81782F6F3F2FE3720779F441E060E002
:1023400070E086E00E94170122960C171D0779F7AE
:10235000DF91CF911F910F91089580910A03909181
:102360000B03A0910C03B0910D038F3F9340A10587
:10237000B10521F4609108037091090340E082E007
:102380000E94170141E060E070E088E00E941701C0
:1023900080910E0390910F030E94B30041E060E032
:1023A00070E086E00E94170180910A0390910B0370
:1023B000A0910C03B0910D030196A11DB11D809356
:1023C0000A0390930B03A0930C03B0930D03BCCFAF
:1023D0000F931F93CF93DF93CEE6D2E00EEE12E081
:1023E0008D816C81782F6F3F8FE3780799F441E0FE
:1023F00060E070E086E00E9417018AE68A95F1F7B6
:1024000000C022960C171D0759F7DF91CF911F913D
:102410000F91089540E082E00E9417018AE68A95B4
:10242000F1F700C041E060E070E088E00E94170131
:1024300080910E0390910F030E94B30041E060E091
:1024400070E086E00E941701DCCFCF92DF92EF921E
:10245000FF920F931F93CF93DF93C0E0D0E0809162
:10246000160390911703FE01E259FD4F7F0120E012
:1024700030E040E050E00BC064816F3F29F465819B
:102480006F3311F44E5F5F4F2E5F3F4F3296281728
:10249000390790F300910A0310910B0320910C036C
:1024A00030910D0384179507E9F4AC0156954795D3
:1024B000040F151F211D311D00930A0310930B03F8
:1024C00020930C0330930D03C80FD91FC038D105DA
:1024D00034F2DF91CF911F910F91FF90EF90DF9039
:1024E000CF900895BB27A32F922F812F492F5527D7
:1024F000282F60E080E80E941D02C12CD12C809121
:10250000160390911703C816D906E8F000E020E002
:1025100040E061E080EE0E941D0280910E039091E8
:102520000F030E94B3008091160390911703AC0132
:102530005695479500910A0310910B0320910C03C7
:1025400030910D03B5CFF7010481258140E060E0B3
:1025500080E00E941D02809116039091170302975C
:10256000C816D90638F400E020E040E061E088EFCA
:102570000E941D02F2E0CF0ED11C22E0E20EF11CFF
:10258000BECFEF92FF920F93CF93DF93CEE6D2E0D0
:102590008EEEE82E82E0F82E0C812D81922F802F76
:1025A000019689F400E020E040E061E088EF0E94BD
:1025B0001D022296EC16FD0679F7DF91CF910F915F
:1025C000FF90EF90089540E060E080EE0E941D02D1
:1025D00080910E0390910F030E94B300EACFEF9217
:1025E000FF920F931F93CF93DF9300E010E0409191
:1025F000160350911703E801C259DD4FFE0120E098
:1026000030E080E090E00AC064816F3F21F4658192
:102610006F3F09F402962E5F3F4F3296241735071D
:1026200098F34817590721F580910A0390910B03FD
:10263000A0910C03B0910D03840F951FA11DB11D36
:1026400080930A0390930B03A0930C03B0930D03A4
:102650008091160390911703080F191F0038110578
:1026600034F2DF91CF911F910F91FF90EF90089579
:102670000E948B0466EA7EE880E00E94990366EA85
:102680007CE980E00E94990380911303803129F452
:1026900066EA74E880E00E94990340910A03509131
:1026A0000B0360910C0370910D03BB27A72F962F8E
:1026B000852F682F892F0E942305E12CF12C809112
:1026C000160390911703E816F90668F10E94F603C5
:1026D00060E070E080E00E94990360E070E080E0DC
:1026E0000E949903209116033091170380910A03E9
:1026F00090910B03A0910C03B0910D03820F931FD7
:10270000A11DB11D80930A0390930B03A0930C03AA
:10271000B0930D030E9462058FE39FE10197F1F7EB
:1027200000C0000095CF2D816C81722F0297E816B2
:10273000F90640F08FE00E94990382E0E80EF11C58
:102740002296BDCF8DE0F7CF7F928F929F92AF926E
:10275000BF92CF92DF92EF92FF920F931F93CF938E
:10276000DF9300E010E04091160350911703E80159
:10277000C259DD4FFE0120E030E080E090E00AC069
:1027800064816F3F21F465816F3F09F402962E5FEB
:102790003F4F32962417350798F34817590759F5D4
:1027A00080910A0390910B03A0910C03B0910D034B
:1027B000840F951FA11DB11D80930A0390930B03F5
:1027C000A0930C03B0930D0380911603909117030F
:1027D000080F191F0038110534F2DF91CF911F91B6
:1027E0000F91FF90EF90DF90CF90BF90AF909F90B0
:1027F0008F907F9008950E948B0466EA7EE880E0C7
:102800000E94990366EA7CE880E00E94990366EAE8
:1028100076E880E00E949903C12CD12C760180914A
:10282000160390911703C816D906F8F085E38A9528
:10283000F1F70000209116033091170380910A03ED
:1028400090910B03A0910C03B0910D03820F931F85
:10285000A11DB11D80930A0390930B03A0930C0359
:10286000B0930D030E946205AFCF40910A035091CF
:102870000B0360910C0370910D034A015B018C0CFA
:102880009D1CAE1CBF1C892C9A2CAB2CBB24742E17
:102890007C0C6CE37EE080E00E94990368EF7EE6AA
:1028A00080E00E94990360E07EE080E00E9499034E
:1028B00067EF7EE680E00E94990366E07EE080E0BC
:1028C0000E94990366EF7EE680E00E94990360E42F
:1028D00070E08CE00E94990366EA7EE880E00E9446
:1028E000990366EA7CE980E00E949903472D682DF0
:1028F000892D0E9423058D816C81782F8DE00E94A7
:1029000099038F816E81782F8DE00E9499038985CC
:102910006885782F8DE00E9499038B856A85782FD2
:102920008FE00E9499030E94F60388E0C80ED11C34
:10293000E11CF11C289673CFEF92FF920F931F9327
:10294000CF93DF9300E010E04091160350911703FE
:10295000E801C259DD4FFE0120E030E080E090E068
:102960000AC064816F3F21F465816F3F09F40296CC
:102970002E5F3F4F32962417350798F348175907B3
:1029800021F580910A0390910B03A0910C03B09163
:102990000D03840F951FA11DB11D80930A03909311
:1029A0000B03A0930C03B0930D0380911603909139
:1029B0001703080F191F0038110534F2DF91CF916A
:1029C0001F910F91FF90EF9008950E948B046FE785
:1029D0007EE880E00E9499036FE77CE980E00E9436
:1029E00099036FE774E880E00E94990340910A031D
:1029F00050910B0360910C0370910D03BB27A72F1F
:102A0000962F852F682F892F0E942305E12CF12C0A
:102A10008091160390911703E816F90668F10E9459
:102A2000F60360E070E080E00E94990360E070E0EF
:102A300080E00E9499032091160330911703809142
:102A40000A0390910B03A0910C03B0910D03820F28
:102A5000931FA11DB11D80930A0390930B03A093B4
:102A60000C03B0930D030E9462058FE39FE1019771
:102A7000F1F700C0000099CF2D816C81722F029771
:102A8000E816F90640F08FE00E94990382E0E80E14
:102A9000F11C2296BDCF8DE0F7CFCF93DF93C2E735
:102AA000D2E069916F3F69F441E060E070E086E058
:102AB0000E94170182E0C23BD80799F7DF91CF91BE
:102AC000089570E040E083E00E94170141E060E07B
:102AD00070E088E00E94170180910E0390910F032F
:102AE00005960E94B300E0CFCF93DF93C2E7D2E018
:102AF00069916F3F69F441E060E070E086E00E9418
:102B0000170182E0C23BD80799F7DF91CF91089572
:102B100070E040E083E00E94170141E060E070E077
:102B200082E10E94170180910E0390910F03059698
:102B30000E94B30041E060E070E081E10E94170173
:102B4000DACFCF93DF93C2E7D2E069916F3F69F4A8
:102B500041E060E070E086E00E94170182E0C23B45
:102B6000D80799F7DF91CF91089570E040E082E0B7
:102B70000E94170141E060E070E088E00E941701C8
:102B800080910E0390910F0302960E94B300E0CF54
:102B90000F93CF93DF93C2E7D2E08CEF0E94BE0287
:102BA000099108130FC000E020E040E061E088EFE9
:102BB0000E941D0282E0C23BD80779F7DF91CF91D6
:102BC0000F910895809113038231D1F420E040E009
:102BD00060E080E00E941D0200E020E040E061E053
:102BE00080EC0E941D0280910E0390910F030296CB
:102BF0000E94B30020E040E061E088EF0E941D02E7
:102C0000809113038331B1F6FE01029120E040E090
:102C100060E080EC0E941D0280910E0390910F03F2
:102C200003960E94B300BFCF8F929F92AF92BF9244
:102C3000CF92DF92EF92FF920F931F93CF930E9458
:102C40008B0466EA7EE980E00E94990366EA7CE9EB
:102C500080E00E94990302E712E0C12CD12C76019A
:102C6000F80181918F018F3F09F47CC080900A03A5
:102C700090900B03A0900C03B0900D03682D6C0D89
:102C800070E07E6080E00E94990369EA7EE680E061
:102C90000E9499038C0C9D1CAE1CBF1C692D70E01A
:102CA0007E6080E00E9499036AEA7EE680E00E94EE
:102CB0009903F801629170E07E6080E00E949903C0
:102CC00068EA7EE680E00E94990366EA74E880E0A4
:102CD0000E949903809113038731A1F465E57EE09A
:102CE00080E00E94990367EA7EE680E00E949903F3
:102CF0006AEA7EE080E00E94990367EA7EE680E06F
:102D00000E94990366EA72E880E00E94990366EAED
:102D100070E580E00E94990365EF7EE680E00E9406
:102D2000990380911303873129F060E070E080E01F
:102D30000E94990360E082E00E94A604C82F60E030
:102D400082E00E94A604C82BC11509F32A988FE1DE
:102D50009EE40197F1F700C0000066EA74E980E0A4
:102D60000E9499039FEFC91AD90AE90AF90AE0E417
:102D7000CE16D104E104F10409F072CF80910A0368
:102D800090910B03A0910C03B0910D03805C9F4FB9
:102D9000AF4FBF4F80930A0390930B03A0930C0394
:102DA000B0930D03CF911F910F91FF90EF90DF90A3
:102DB000CF90BF90AF909F908F900C9462058F92B0
:102DC0009F92AF92BF92CF92DF92EF92FF92CF93FA
:102DD000DF930E948B046FE77EE980E00E949903F5
:102DE0006FE77CE980E00E949903C2E7D2E0812C82
:102DF000912C540189918F3F09F48DC080910A0371
:102E000090910B03A0910C03B0910D037501640127
:102E1000C80ED91EEA1EFB1ECD2CDE2CEF2CFF2483
:102E2000880D682F70E07E6080E00E949903809199
:102E30001303853029F464E77EE680E00E9499035D
:102E400080911303863129F462E67EE680E00E94D9
:102E500099036C2D70E07E6080E00E949903809160
:102E60001303853029F465E77EE680E00E9499032C
:102E700080911303863129F463E67EE680E00E94A8
:102E80009903FE01629170E07E6080E00E949903E8
:102E900080911303853029F463E77EE680E00E9489
:102EA000990380911303863129F461E67EE680E080
:102EB0000E9499036FE774E880E00E9499036FE72E
:102EC00072E880E00E9499036FE770E580E00E945D
:102ED000990365EF7EE680E00E94990360E070E070
:102EE00080E00E94990360E082E00E94A604F82E30
:102EF00060E082E00E94A604F82AF11429F32A98DF
:102F00008FE19EE40197F1F700C000006FE774E9DC
:102F100080E00E9499039FEF891A990AA90AB90AC9
:102F200080E488169104A104B10409F063CF809174
:102F30000A0390910B03A0910C03B0910D03805CE8
:102F40009F4FAF4FBF4F80930A0390930B03A09303
:102F50000C03B0930D03DF91CF91FF90EF90DF90C2
:102F6000CF90BF90AF909F908F900C9462050F937D
:102F70001F93CF93DF930E948B040FEF13E041E088
:102F800060E070E086E00E94170101501040B9F740
:102F900084E00E942903EC010E9462058EEF809379
:102FA0006B0182E080936C018BEA80936D01DC27DA
:102FB000CD27DC27D0936F01C0936E0165E08BE6CF
:102FC00091E0DF91CF911F910F910C945D1BCF93F6
:102FD000DF930E948B04809113038E3009F05AC056
:102FE00020E040EE60E08DE10E947E0184E00E94DE
:102FF0002903909309038093080341E060E070E0A7
:1030000086E00E94170184E00E9429039093070341
:103010008093060341E060E070E086E00E941701C3
:1030200084E00E94290390930503809304030E9487
:1030300062058EEF80936B0186E080936C018BEAD2
:1030400080936D0180910803909109039827892747
:10305000982790936F0180936E0180910603909161
:10306000070398278927982790937101809370010F
:1030700080910403909105039827892798279093BE
:1030800073018093720169E08BE691E0DF91CF914B
:103090000C945D1B40E060E070E080E00E9417014E
:1030A000C0E0D0E080911203C817D1050CF09ECF8C
:1030B00041E060E070E086E00E9417012196F2CFC7
:1030C0000F931F93CF93DF93E0911303EA5000E037
:1030D00010E0E33038F4F0E0EE0FFF1FEC59FE4F44
:1030E000008111810E948B04C0E0D0E0C017D1079D
:1030F00031F584E00E94290390930903809308032B
:103100000E9462058EEF80936B0182E080936C01D8
:103110008BEA80936D0180910803909109039827B1
:103120008927982790936F0180936E0165E08BE665
:1031300091E0DF91CF911F910F910C945D1B41E0C5
:1031400060E070E086E00E9417012196CFCF0F93D8
:103150001F93CF93DF9380917202909173029093AB
:10316000090380930803E0911303EA5000E010E0A4
:10317000E33038F4F0E0EE0FFF1FEC59FE4F008112
:1031800011810E948B04C0E0D0E00C171D0731F5BF
:10319000609108037091090340E082E00E941701EA
:1031A00041E060E070E088E00E9417018FE19EE45A
:1031B0000197F1F700C0000041E060E070E08EE0B0
:1031C0000E9417018FE891E00197F1F700C000001D
:1031D000DF91CF911F910F910C94620541E060E067
:1031E00070E086E00E9417012196CFCF0F931F93C6
:1031F000CF93DF930E948B0440E060E070E080E0BA
:103200000E941701C0E0D0E080911203C817D105D9
:1032100084F0CEE6D2E000E010E022968091110327
:103220000817110574F0DF91CF911F910F910C9445
:10323000620541E060E070E086E00E94170121969F
:10324000E3CF8B816A81782F40E082E00E941701F2
:1032500041E060E070E088E00E9417018FE19EE4A9
:103260000197F1F700C0000041E060E070E086E007
:103270000E9417010F5F1F4FD0CFCF93DF930E94A3
:103280008B04CFEFD3E041E060E070E086E00E9485
:1032900017012197C1F784E00E9429039093090345
:1032A000809308030E9462058FE19EE40197F1F785
:1032B00000C000000E948B0440E060E070E280E00B
:1032C0000E941701C7E0D0E041E060E070E086E0D6
:1032D0000E9417012197C1F784E00E94290390936F
:1032E0000703809306030E94620580910603909174
:1032F00007038827907390930703809306038FE159
:103300009EE40197F1F700C00000DF91CF9108958E
:103310000F931F93CF93DF93C0917202D0917302EA
:103320000E943D19DF708091060390910703C82B1E
:10333000D92B0E948B0440E060E070E280E00E94A4
:10334000170107E010E041E060E070E086E00E94D5
:10335000170101501040B9F740E0BE0182E00E9421
:10336000170141E060E070E088E00E9417018FE5FE
:103370009AEE0197F1F700C0000041E060E070E0D4
:103380008AE00E941701DF91CF911F910F910C9459
:103390006205CF93DF930E948B0440E060E070E20F
:1033A00080E00E941701C7E0D0E041E060E070E0FB
:1033B00086E00E9417012197C1F784E00E9429034B
:1033C00090930503809304030E9462058091040397
:1033D000909105039F702091060330910703822B83
:1033E000932B90930503809304030E948B0440E089
:1033F00060E070E280E00E941701C7E0D0E041E0A9
:1034000060E070E086E00E9417012197C1F76091AB
:1034100004037091050340E082E00E94170141E03F
:1034200060E070E088E00E9417018FE19EE4019760
:10343000F1F700C0000041E060E070E08AE00E9427
:1034400017010E9462050E948B04CFEFD3E041E098
:1034500060E070E086E00E9417012197C1F760915B
:1034600008037091090340E082E00E94170141E0E7
:1034700060E070E088E00E9417018FE19EE4019710
:10348000F1F700C0000041E060E070E08AE00E94D7
:103490001701DF91CF910C9462050E943D190E94A3
:1034A0008B0440E060E070E080E00E9417012FEFA5
:1034B00080E792E0215080409040E1F700C000009A
:1034C00041E060E070E089E00E9417012FEF83EC9B
:1034D00099E0215080409040E1F700C000000E9438
:1034E00062052FEF83EC99E0215080409040E1F796
:1034F00000C000000E948B042FEF80E792E0215073
:1035000080409040E1F700C0000041E060E070E0E2
:103510008BE00E9417012FEF87E893E12150804054
:103520009040E1F700C000000E9462050C94C919A8
:103530000E943D190E948B0440E060E070E080E052
:103540000E9417012FEF80E792E0215080409040C9
:10355000E1F700C0000041E060E070E089E00E9417
:1035600017012FEF83EC99E0215080409040E1F764
:1035700000C000000E9462052FEF83EC99E021500B
:1035800080409040E1F700C000000E948B042FEFC4
:1035900080E792E0215080409040E1F700C00000B9
:1035A00041E060E070E08BE00E9417012FEF87E8B8
:1035B00093E1215080409040E1F700C000000E945C
:1035C0006205809172029091730290930903809337
:1035D00008030C94C919CF93DF930E948B0440E039
:1035E00060E070E280E00E941701C8E0D0E041E0B6
:1035F00060E070E086E00E9417012197C1F784E047
:103600000E94290390930903809308030E94620596
:103610008EEF80936B0182E080936C018BEA809344
:103620006D018091080390910903982789279827B5
:1036300090936F0180936E0165E08BE691E0DF91DE
:10364000CF910C945D1BCF93DF9380917202909188
:10365000730290930903809308030E948B0440E057
:1036600060E070E280E00E941701C8E0D0E041E035
:1036700060E070E086E00E9417012197C1F7609139
:1036800008037091090340E082E00E94170141E0C5
:1036900060E070E088E10E9417018FE19EE40197ED
:1036A000F1F700C0000041E060E070E08AE00E94B5
:1036B0001701DF91CF910C9462050F931F93CF9365
:1036C000DF93EC018C01060F111DC017D10729F4FF
:1036D000DF91CF911F910F91089589910E94631EF0
:1036E000F4CFEEE6F2E08EEF808381E081838CEC14
:1036F0008283138264E0CF010C945D1BCF92DF9232
:10370000FF920F931F93CF93DF93F82EEB018A0163
:1037100069018EEF0E94631E802F0E94631E8F2D11
:103720000E94631ECC0DDD1D0C0F1D1FC017D1079D
:1037300041F4DF91CF911F910F91FF90DF90CF90D7
:10374000089589910E94631EF1CF0F93E09170025A
:10375000E03B50F4E03AA8F0E05AE03190F4F0E0B9
:10376000E258F14E0C94761EEC3C59F40F910C94F7
:10377000711BE0917102E0931303E83098F4E111BA
:1037800002C00F91089581E001C0880FEA95EAF721
:10379000982F967D911112C08872811591F30F9127
:1037A0000C94E80583EF8E0F8B3058F7EE50E8301D
:1037B000B0F7F0E0E257F14E0C94761E0F910C94A6
:1037C00079050F910C94AF05E0917202E25080E808
:1037D00090E0A0E0B0E0EC3048F4F0E0EA56F14EC2
:1037E0000C94761E80E091E0A0E0B0E08093180396
:1037F00090931903A0931A03B0931B038091750251
:1038000090917602982789279827909315038093A3
:103810001403E0917102E093130380917702809387
:1038200011038091780280931203E150E73108F090
:10383000A8CFF0E0EE55F14E0C94761E80E092E0B9
:10384000A0E0B0E0D3CF80E094E0A0E0B0E0CECF45
:1038500080E098E0A0E0B0E0C9CF80E090E1A0E097
:10386000B0E0C4CF80E090E2A0E0B0E0BFCF80E065
:1038700090E4A0E0B0E0BACF80E090E8A0E0B0E053
:10388000B5CF80E090E0A1E0B0E0B0CF80E090E084
:10389000A2E0B0E0ABCF80E090E0A4E0B0E0A6CF43
:1038A00080E090ECA0E0B0E0A1CF0F910C948709EC
:1038B0000F910C94FD0A0F910C94920B0F910C94A4
:1038C000710C0E94FD0A0F910C94B7170E94FD0A1B
:1038D0000F910C94E7170F910C94E5090F910C943C
:1038E0006B0AE0917102E0931303E150E73138F481
:1038F000F0E0E754F14E0C94761E0E94790D8EEFA5
:1039000080936B0181E080936C0182EA80936D016A
:1039100010926E0164E08BE691E00F910C945D1BB8
:103920000E94C40EECCF0E94DA0FE9CF0E94330F41
:10393000E6CF0E944610E3CF0E944D1AE0CF0E94CE
:10394000F60DDDCF0E941A0FDACF0E94790FD7CF84
:103950000E94A90DD4CF0E942310D1CFE091710213
:10396000E09313038091720280931003E150E731DA
:1039700008F007CFF0E0E053F14E0C94761E0F9163
:103980000C9416060F910C946A070F910C944D0736
:103990000F910C94AD06E0917102E09313038091B6
:1039A000800280931003E150E73138F4F0E0E951F0
:1039B000F14E0C94761E0E94A7078EEF80936B0148
:1039C00081E080936C0184EAA1CF0E94E308F5CFE7
:1039D0000E94B708F2CF0E942909EFCF0E948819F0
:1039E000ECCF0E947208E9CF0E944E08E6CF0E94F9
:1039F000EC07E3CFE0917102E09313038091720230
:103A000090E0982F8827092E000CAA0BBB0BBA2F29
:103A1000A92F982F88274091730250917402542740
:103A200045275427052E000C660B770B842B952B0E
:103A3000A62BB72B8093180390931903A0931A0316
:103A4000B0931B0380917502909176029827892785
:103A50009827909315038093140380917702909197
:103A6000780298278927982790930F0380930E0355
:103A70008091790290E09093170380931603E150B0
:103A8000E73138F4F0E0E250F14E0C94761E0E94DB
:103A9000CF008EEF80936B0181E080936C0186EA0A
:103AA00035CF0E94F300F5CF0E943D190E94F3002C
:103AB00010920A0310920B0310920C0310920D0344
:103AC000E8CF0E94CF0041E060E070E086E00E9415
:103AD0001701DFCF0E94CF00EBCFE0917102E0939E
:103AE0001303E150E731A8F6F0E0EB5EF04E0C94E2
:103AF000761E0E94D510CDCF0E942B11CACF0E94F6
:103B0000EF12C7CF0E94E811C4CF0E949C14C1CF0E
:103B10000E948F11BECF0E945A11BBCF0E94251266
:103B2000B8CF0E94C112B5CF0E94A413B2CFE091CA
:103B30007102E0931303E830E0F4E23040F48EEFDA
:103B400080936B0181E080936C0188EADFCE81E095
:103B500001C0880FEA95EAF7982F9475911111C06A
:103B6000982F9872911110C087FFE9CF0E94CF0063
:103B7000E6CFEE50EA3018F7F0E0E45DF04E0C943A
:103B8000761E0E94F300DBCF10920A0310920B0303
:103B900010920C0310920D03D2CF0E94CF0020E0B0
:103BA00040EF60E08DE10E947E01C9CF0E94CF000E
:103BB00000E020EF40E060E080E80E941D02BFCFFF
:103BC0000E94CF0000E020E041E3F5CFE0917102D8
:103BD000E0931303E250E63108F0B1CFF0E0EA5C85
:103BE000F04E0C94761E0E944D15A9CF0E9414161B
:103BF000A6CF0E94DF16A3CF0E94A115A0CF0E94DE
:103C000074159DCF0E94C8159ACF80917102809340
:103C1000130390917202909312038D3048F48A300E
:103C200080F4863009F44FCE873009F451CEA9CD07
:103C30008E3009F44DCE853109F0A3CD0F910C944F
:103C4000EB1A0F910C94601880917102809313030A
:103C500090917802909312039091790290931103BE
:103C60008D3070F48A30B8F4863079F0873081F086
:103C70008EEF80936B0181E080936C018CEA46CEDD
:103C80008531B1F70E94231BF3CF0E94981AF0CF21
:103C90000E94F618EDCF0E94A718EACF809171021A
:103CA000809313030F910C9462051092C00088E971
:103CB0008093C10086E08093C2001092C50080E12D
:103CC0008093C40008959091C00095FFFCCF80932D
:103CD000C6000895CF93DF93EC018991811103C051
:103CE000DF91CF9108950E94631EF7CFEE0FFF1F63
:103CF0000590F491E02D0994F894FFCFB91BE41BD3
:103D0000711CAE1CCB1CFA1C6D1D971DE61DC11B42
:103D1000C11B051E241EC11BC11B4E1EDE1BDE1B4C
:103D2000CF1BDE1BE11BE11BDE1BDE1BF21B1E1C7F
:103D3000231C281C2D1C321C371C3C1C411C461CFF
:103D40004B1C501C551C581C5B1C581C5E1C611CD9
:103D5000661CC11B551C551C551C551C5B1C6B1C43
:103D6000581C5B1C581C6E1C6E1C551C551C5E1C84
:103D70005B1C7D1C901C931C961C991C9C1C901C0D
:103D80007F1C9F1C9F1C9F1C9F1C931C7D1CA21CA6
:103D9000931CA51CA81CA81C7D1C7D1C991CAB1C7D
:103DA000BF1CBF1CC21CBF1CC21CBF1CBF1CC11B34
:103DB000C51CC51CC51CC51CC11BBF1CBF1CC21C0F
:103DC000BF1CC81CC81CBF1CBF1CC21CC21CDB1CE7
:103DD000DB1CE51CE81CEB1CEE1CF11CDD1CF41CC0
:103DE000F41CF41CF41CDD1CF11CF11CE51CF11C82
:103DF000F71CF71CDB1CDB1CEB1CEB1C471D511DCF
:103E0000581D471D581D541D471D491D611D611D2D
:103E1000611D611D491D471D471D581D471D6A1D18
:103E2000471D471D471D581D581D791D7C1D7F1DB1
:103E3000821D851D881D7C1D491D791D791D791DDB
:103E4000791D491D7C1D8B1D7F1D7C1D8E1D911DA7
:103E5000791D791D851D941DCD1DB61DC41DB61D72
:103E6000D61DE01D9F1D9F1DC41DC41DF31DF61D05
:103E7000F31DF91DF31DF31D9F1D9F1D9F1D9F1D0C
:103E80009F1D9F1DFC1DFF1DF61DF31D021E021E22
:083E90009F1D9F1DF91DF61D89
:103E980004040404040404040505020204040404DC
:103EA80004040404040401010202040408080000D4
:103EB8000000000010102020404080808F8F0000FC
:103EC80000000000000000000000000000000000EA
:103ED8008080000000008F8F3F3F0000000000003E
:103EE80000000000000000000000000001010000C8
:0A3EF80000000F0F0004000100029B
:00000001FF
