:100000000C94F1000C940E010C940E010C940E0152
:100010000C940E010C940E010C940E010C940E0124
:100020000C940E010C940E010C940E010C940E0114
:100030000C940E010C940E010C940E010C940E0104
:100040000C940E010C940E010C941C010C940E01E6
:100050000C940E010C940E010C940E010C940E01E4
:100060000C940E010C940E01AA1AAA1AA41AAA1A28
:10007000A41AAA1AAA1A161D161D161D161D161D3B
:10008000A41AAA1AAA1AA41AAA1AA71AA71AAA1A62
:10009000F71ABB1AC01AC51ACA1ACF1AD41AD91A13
:1000A000DE1AE31AE81AED1AF21A3C1B361B331B50
:1000B000361B271B2A1B2D1B161D3C1B3C1B3C1BE8
:1000C0003C1B331B301B361B331B361B391B391BA8
:1000D0003C1B691B571B601B4E1B511B541B571BA2
:1000E0006B1B5A1B5A1B5A1B5A1B601B691B5D1B3F
:1000F000601B631B661B661B691B8C1B8C1B861B92
:100100008C1B861B8C1B8C1B161D831B831B831B4C
:10011000831B161D8C1B8C1B861B8C1B891B891B30
:100120008C1BB51BB51BAC1BA01BA31BA61BAF1BBD
:10013000B71BA91BA91BA91BA91BB71BAF1BAF1B77
:10014000AC1BAF1BB21BB21BB51B2B1C0F1C221C04
:100150002B1C221C121C2B1C571C171C171C171C99
:10016000171C571C2B1C2B1C221C2B1C201C2B1C53
:100170002B1C551C4C1C491C3D1C401C431C4C1C7E
:10018000571C551C551C551C551C571C4C1C461CFB
:10019000491C4C1C4F1C521C551C6F1C7B1C6F1C9B
:1001A0007B1C6F1C841CB71CB71CB71CB71CB71C6E
:1001B000B71C721C841C7B1C841C871C8D1CB21CED
:1001C000AF1CB21CA61CB21CB21CB71CB71CB71CBF
:1001D000B71CB71CB71CA91CAC1CAF1CB21CB51CAF
:1001E000B51C11241FBECFEFD8E0DEBFCDBF11E09C
:1001F000A0E0B1E0E2E8FAE302C005900D92A63675
:10020000B107D9F723E0A6E6B1E001C01D92A831FD
:10021000B207E1F70E9462010C943F1D0C940000AC
:10022000219A229A389A579A569A3C9A5F9A089538
:1002300021980895219A08951F920F920FB60F9258
:1002400011242F933F938F939F93EF93FF9380916C
:10025000C0008C7161F5809169019091C600E82F12
:10026000F0E0E659FD4F90838F5F80936901833002
:1002700021F490916B0290936701209167012223F2
:10028000B1F090E030E02D5F3F4F8217930779F493
:10029000109269011092670180916C028D3321F4F4
:1002A00081E08093660103C081E080936801FF9143
:1002B000EF919F918F913F912F910F900FBE0F90D3
:1002C0001F9018950E94181D0E94100129982A98C5
:1002D00040985F985E98789480916801882321F017
:1002E0000E94621A10926801F7CF20E030E02817D0
:1002F000390749F0EFE9FFE03197F1F700C000005E
:100300002F5F3F4FF4CF089520E030E028173907E2
:1003100039F045E04A95F1F700002F5F3F4FF6CFE7
:1003200008955F988FE99FE00197F1F700C0000002
:10033000219A229A44980E941A0140982A98299852
:1003400087EC90E00197F1F700C000005F9A87EC1E
:1003500090E00197F1F700C000005E9A8FE99FE0FE
:100360000197F1F700C0000008955F988FE99FE0C2
:100370000197F1F700C00000219A229A44980E9448
:100380001A0140982A98299887EC90E00197F1F794
:1003900000C000005E9A87EC90E00197F1F700C082
:1003A00000005F9A8FE39FE10197F1F700C0000022
:1003B00008950F931F93CF93DF9300D0CDB7DEB78F
:1003C0008B014A8389830E941A0129982AE02A9581
:1003D000F1F700C020E030E0898190E04A815AE0E6
:1003E0005A95F1F700C0BC01022E02C075956795C1
:1003F0000A94E2F760FF02C0299A01C029982A9A5C
:100400005AE05A95F1F700C02A982F5F3F4F2630E7
:10041000310529F785E08A95F1F7000029989AE0DF
:100420009A95F1F700C0442321F025E32A95F1F7CE
:1004300026C0B801660F771F80E090E041E050E0F1
:100440002AE02A95F1F700C09A01082E02C0220F77
:10045000331F0A94E2F726233723232B11F0299A1E
:1004600001C029982A9A2AE02A95F1F700C02A9813
:1004700001968031910521F755E25A95F1F7000078
:100480000F900F90DF91CF911F910F910895CF930F
:10049000DF9300D000D0CDB7DEB72C834B836A83C7
:1004A00089830E941A0129983AE03A95F1F700C031
:1004B000E0E0F0E0898190E06A814B812C815AE094
:1004C0005A95F1F700C0DC010E2E02C0B595A79534
:1004D0000A94E2F7A0FF02C0299A01C029982A9A3B
:1004E0003AE03A95F1F700C02A983196E630F105E6
:1004F00031F75AE15A95F1F700C029988AE08A95B8
:10050000F1F700C02A9A9AE09A95F1F700C02A986C
:1005100080E090E030E05AE05A95F1F700C0F90130
:10052000082E02C0F595E7950A94E2F7E0FF02C0B5
:10053000299A01C029982A9A5AE05A95F1F700C0E1
:100540002A9801968830910531F780E090E050E0DC
:100550002AE02A95F1F700C09A01082E02C03595CD
:1005600027950A94E2F720FF02C0299A01C0299832
:100570002A9A3AE03A95F1F700C02A980196883015
:10058000910531F780E090E070E05AE05A95F1F77C
:1005900000C09B01082E02C0359527950A94E2F70A
:1005A00020FF02C0299A01C029982A9A2AE02A9598
:1005B000F1F700C02A9801968730910531F73AE1AA
:1005C0003A95F1F700C00F900F900F900F90DF91C8
:1005D000CF9108950F931F93CF93DF9300D000D056
:1005E000CDB7DEB72C834B836A8389830E941A01BF
:1005F0002998E7E0F0E0898190E06A814B812C81C5
:100600003AE03A95F1F700C0DC010E2E02C0B59534
:10061000A7950A94E2F7A0FF02C0299A01C0299881
:100620002A9A3AE03A95F1F700C02A98319740F7B4
:100630008AE08A95F1F700C0299835E23A95F1F7FA
:100640000000611166C02A9A8AE08A95F1F700C01D
:100650002A9885E090E050E03AE03A95F1F700C042
:10066000BA01082E02C0759567950A94E2F760FFFB
:1006700002C0299A01C029982A9A3AE03A95F1F7DE
:1006800000C02A98019740F787E090E030E04AE008
:100690004A95F1F700C0A901082E02C0559547956B
:1006A0000A94E2F740FF02C0299A01C029982A9AC9
:1006B0004AE04A95F1F700C02A98019740F787E091
:1006C00090E010E02AE02A95F1F700C09801082E8A
:1006D00002C0359527950A94E2F720FF02C0299AB7
:1006E00001C029982A9A3AE03A95F1F700C02A9871
:1006F000019740F78AE08A95F1F700C029982A9A75
:100700002AE02A95F1F700C02A983AE23A95F1F7E3
:1007100000C00F900F900F900F90DF91CF911F911D
:100720000F9108950F931F93CF93DF931F92CDB72F
:10073000DEB789830E941A01299827E030E0898179
:1007400090E04AE04A95F1F700C0AC01022E02C0E9
:10075000559547950A94E2F740FF02C0299A01C0D7
:1007600029982A9A4AE04A95F1F700C02A98215020
:10077000310938F78AE08A95F1F700C00E94180124
:100780002AE22A95F1F700C087E090E04AE14A9515
:10079000F1F700C02A9A2AE12A95F1F700C02A98B9
:1007A0000197A1F72FE030E000E010E081E090E059
:1007B0004AE14A95F1F700C02A9A4AE14A95F1F7D1
:1007C00000C02A98199B09C0AC01022E02C0440F38
:1007D000551F0A94E2F7042B152B2150310940F7DD
:1007E0008AE18A95F1F700C02A9A2AE12A95F1F761
:1007F00000C02A9845E24A95F1F700000E941A01CC
:10080000C8010F90DF91CF911F910F9108950F9321
:100810001F93CF93DF931F92CDB7DEB789830E94DA
:100820001A014AE14A95F1F700C020E030E08981E1
:1008300090E04AE04A95F1F700C0AC01022E02C0F8
:10084000559547950A94E2F740FF02C0299A01C0E6
:1008500029982A9A4AE04A95F1F700C02A982F5F12
:100860003F4F2630310529F78AE08A95F1F700C01D
:1008700029989AE09A95F1F700C02A9A4AE04A9599
:10088000F1F700C02A9885E28A95F1F700000E94EE
:10089000180120E030E000E010E081E090E04AE064
:1008A0004A95F1F700C02A9A4AE04A95F1F700C04C
:1008B0002A98199B09C0AC01022E02C0440F551F93
:1008C0000A94E2F7042B152B2F5F3F4F2E30310592
:1008D00031F78AE08A95F1F700C00E941A01299841
:1008E0002A9A9AE09A95F1F700C02A9845E24A952B
:1008F000F1F70000C8010F90DF91CF911F910F9188
:1009000008950F931F93CF93DF931F92CDB7DEB758
:100910008B0189830E941A01299825E32A95F1F712
:10092000000020E030E0898190E04AE14A95F1F74B
:1009300000C0AC01022E02C0559547950A94E2F71B
:1009400040FF02C0299A01C029982A9A4AE14A9593
:10095000F1F700C02A982F5F3F4F2430310529F767
:100960008AE18A95F1F700C029989AE19A95F1F702
:1009700000C080E090E041E050E02AE12A95F1F7E4
:1009800000C09A01082E02C0220F331F0A94E2F71A
:1009900020233123232B11F0299A01C029982A9A68
:1009A0002AE12A95F1F700C02A9801968031910535
:1009B00021F7299845E34A95F1F700000F90DF9160
:1009C000CF911F910F9108950E941A012A9829989A
:1009D0002AE12A95F1F700C083E090E02AE12A9508
:1009E000F1F700C02A9A2AE12A95F1F700C02A9867
:1009F0000197A1F78AE18A95F1F700C02A9A8FE35F
:100A00009FE10197F1F700C000002A988FE891E07C
:100A10000197F1F700C000000895CF93DF9300D055
:100A200000D0CDB7DEB79A8389837C836B830E9425
:100A30001A012AE62A95F1F700C0FE013196BE019F
:100A40006B5F7F4FA1E0B0E08FE090E025E32A9557
:100A5000F1F7000020813181AD01082E02C0440F62
:100A6000551F0A94E2F724233523232B11F0299AEA
:100A700001C029982A9A25E32A95F1F700002A98BF
:100A8000019720F73296E617F707F1F68AE68A957E
:100A9000F1F700C00F900F900F900F90DF91CF9162
:100AA00008955E980E941A0140982A9829988AE62B
:100AB0008A95F1F700C05F9A8AE68A95F1F700C03F
:100AC000409A8AE68A95F1F700C040988AE68A95AE
:100AD000F1F700C060E578E483E49DE40E940D0531
:100AE0008AE68A95F1F700C0409A0895809117032D
:100AF000853061F018F4823039F010C0863021F072
:100B00008D3061F40C9451050C94B5010E94910153
:100B100060E578E483E49DE40C940D050C94910168
:100B2000CF93DF9300D0CDB7DEB769838A830E946D
:100B30001A01299825E32A95F1F7000020E030E01A
:100B40008A8190E069814AE14A95F1F700C0AC01E1
:100B5000022E02C0559547950A94E2F740FF02C065
:100B6000299A01C029982A9A4AE14A95F1F700C0CA
:100B70002A982F5F3F4F2430310529F78AE18A9563
:100B8000F1F700C029989AE19A95F1F700C080E04A
:100B900090E070E02AE12A95F1F700C09B01082E51
:100BA00002C0359527950A94E2F720FF02C0299AE2
:100BB00001C029982A9A4AE14A95F1F700C02A987B
:100BC00001968830910531F70E9418018AE18A95D3
:100BD000F1F700C020E030E080E041E050E09AE131
:100BE0009A95F1F700C02A9A9AE19A95F1F700C018
:100BF0002A98199B07C0BA01022E01C0660F0A94F9
:100C0000EAF7862B2F5F3F4F2830310541F78A8363
:100C10000E941A01299825E32A95F1F700008A819C
:100C20000F900F90DF91CF9108951F93CF93DF9393
:100C30001F92CDB7DEB7162F682F70E07E6080E080
:100C400049830E94810468EF7EE680E00E9481046F
:100C5000612F70E07E6080E00E94810467EF7EE695
:100C600080E00E9481044981642F70E07E6080E012
:100C70000E94810466EF7EE680E00F90DF91CF91C5
:100C80001F910C9481045E985F9840982A98299847
:100C90008FE193E00197F1F700C0000008954098BC
:100CA0005F9840982A9829988FE193E00197F1F78F
:100CB00000C000000895809117038D3019F40E9440
:100CC0004F0602C00E944306219822982FEF81EE22
:100CD00094E0215080409040E1F700C00000449A29
:100CE0005F9A08950F931F93CF93DF9300D0CDB7F2
:100CF000DEB70E94760540E060E070E080E00E9490
:100D0000D90106E010E041E060E070E086E00E947A
:100D1000D90101501109B9F784E00E9407048983C1
:100D20009A830E945B062EEF20936A0122E02093B3
:100D30006B0120EA20936C019A8190936D01898167
:100D400080936E0165E08AE691E00F900F90DF914D
:100D5000CF911F910F910C940D1A0F93CF93DF93A6
:100D600000D0CDB7DEB70E9476058091170382319F
:100D700039F406E020E840E060E080E80E94EA0202
:100D800080911703833139F40EEF2FEF4FE360E0CA
:100D900080E80E94EA028CEF0E94920389839A8382
:100DA0000E945B062EEF20936A0122E020936B01E4
:100DB00020EA20936C019A8190936D018981809340
:100DC0006E0165E08AE691E00F900F90DF91CF9180
:100DD0000F910C940D1ACF93DF930E9476054EEF7E
:100DE0006FEF8FE30E94150660E089E00E94900596
:100DF000CAE6D1E08C834FEF6FEF8FE30E941506B8
:100E000060E089E00E9490058B830E945B068FE181
:100E10009EE40197F1F700C000008EEF888382E026
:100E2000898380EA8A8365E0CE01DF91CF910C94BB
:100E30000D1AEF92FF920F931F93CF93DF93CDB7CD
:100E4000DEB72E970FB6F894DEBF0FBECDBF0E945F
:100E5000760540E060E070E080E00E94D90107E0A4
:100E600010E041E060E070E086E00E94D9010150AE
:100E70001109B9F7CE0101967C0100E010E08091E4
:100E8000160390E00817190784F484E00E94070411
:100E9000F701819391937F0141E060E070E086E08B
:100EA0000E94D9010F5F1F4FEACF0E945B068EEFB1
:100EB00080936A018EE080936B0183EA80936C01DA
:100EC00089819A8190936D0180936E018B819C81C1
:100ED00090936F01809370018D819E819093710139
:100EE000809372018F819885909373018093740130
:100EF00089859A8590937501809376018B859C8571
:100F000090937701809378018D859E8590937901E8
:100F100080937A0161E18AE691E02E960FB6F8940B
:100F2000DEBF0FBECDBFDF91CF911F910F91FF901C
:100F3000EF900C940D1ACF92DF92EF92FF920F93E5
:100F4000CF93DF93CDB7DEB72E970FB6F894DEBF01
:100F50000FBECDBF0E94760580911703823139F410
:100F600007E020E840E060E080E80E94EA0280912B
:100F70001703833139F400E020E040E360E080E8CB
:100F80000E94EA02CE0101966C01E12CF12C8091C5
:100F9000160390E0E816F90694F48CEF0E94920391
:100FA000F601819391936F0100E020E040E061E061
:100FB00088EF0E94EA02FFEFEF1AFF0AE8CF0E94D3
:100FC0005B068EEF80936A018EE080936B0183EA6B
:100FD00080936C0189819A8190936D0180936E0159
:100FE0008B819C8190936F01809370018D819E8194
:100FF00090937101809372018F8198859093730112
:101000008093740189859A85909375018093760108
:101010008B859C8590937701809378018D859E8543
:101020009093790180937A0161E18AE691E02E96AE
:101030000FB6F894DEBF0FBECDBFDF91CF910F91F9
:10104000FF90EF90DF90CF900C940D1ACF93DF9329
:1010500000D0CDB7DEB70E94760584E00E94070479
:1010600089839A830E945B06EAE6F1E02EEF2083F3
:1010700022E0218323EA22839A81938389818483D6
:1010800065E0CF010F900F90DF91CF910C940D1A76
:101090000F931F93CF93DF938EEF80936A018EE0BF
:1010A00080936B0183EA80936C01C0E0D0E00E94E2
:1010B00076054C2F60E080E30E94150660E088E032
:1010C0000E9490058E0106591E4FF80184834C2F13
:1010D0004F5F60E080E30E94150660E088E00E94B8
:1010E0009005F80183830E945B068FE19EE40197DF
:1010F000F1F700C000002296CE30D105C1F661E1C3
:101100008AE691E0DF91CF911F910F910C940D1A17
:10111000CF93DF930E94760540E060E070E080E0CE
:101120000E94D901C7E0D0E041E060E070E086E0D5
:101130000E94D9012197C1F760916F0270E0762F6C
:10114000662780916E02682B40E082E00E94D90100
:101150008091170341E060E070E0843111F488E190
:1011600001C088E00E94D9018FE19EE40197F1F768
:1011700000C0000041E060E070E08EE00E94D90114
:101180008FE19EE40197F1F700C00000DF91CF915D
:101190000C945B060F93CF93DF930E9476058091AA
:1011A0001703823139F407E020E840E060E080E88E
:1011B0000E94EA0280911703833139F400E020E0B5
:1011C00040E360E080E80E94EA02C0E0D0E0809165
:1011D000160390E0880F991FC817D907ACF58091C6
:1011E0001703823189F4FE01E659FD4F0481258100
:1011F00040E060E080E00E94EA0200E020E040E0A1
:1012000061E080EE0E94EA0280911703833151F47D
:10121000FE01E659FD4F0481258140E060E080EC4D
:101220000E94EA022FEF86E791E021508040904033
:10123000E1F700C0000000E020E040E061E088EF5E
:101240000E94EA022296C3CFDF91CF910F910C94B6
:101250005B060E947605EAE6F2E0658170E0762F93
:1012600066278481682B40E082E00E94D90141E03A
:1012700060E070E088E00E94D9018FE19EE4019770
:10128000F1F700C0000041E060E070E08EE00E94F5
:10129000D9018FE891E00197F1F700C000000C94AC
:1012A0005B06CF93DF930E94760540E060E070E03C
:1012B00080E00E94D901C7E0D0E041E060E070E04A
:1012C00086E00E94D9012197C1F7C0E0D0E080916B
:1012D000160390E0880F991FC817D9070CF5FE0177
:1012E000E659FD4F658170E0762F66278481682B73
:1012F00040E082E00E94D90141E060E070E088E0D7
:101300000E94D9018FE19EE40197F1F700C000002F
:1013100041E060E070E086E00E94D9012296D7CFDC
:10132000DF91CF910C945B06CF93DF930E947605FB
:1013300040E060E070E080E00E94D901C7E0D0E0CA
:1013400041E060E070E086E00E94D9012197C1F79A
:1013500060916F0270E0762F662780916E02682B95
:1013600040E082E00E94D90141E060E070E088E165
:101370000E94D9018FE19EE40197F1F700C00000BF
:10138000DF91CF910C945B06CF93DF93C0E0D0E068
:101390000E9476054C2F60E080E30E941506FE0156
:1013A000E659FD4F648170E0962F8827682B792BD2
:1013B0008FE00E9481040E94E40460E070E080E01D
:1013C0000E94810460E070E080E00E9481042FEFC1
:1013D00080E792E0215080409040E1F700C000009B
:1013E0000E945B062FEF80E792E021508040904002
:1013F000E1F700C000002196CE30D10549F6DF911B
:10140000CF910895CF93DF93C0E0D0E00E9476059E
:101410006FE77EE880E00E9481046FE77CE980E06E
:101420000E9481044C2F60E080E30E941506FE01BB
:10143000E659FD4F648170E0962F8827682B792B41
:101440008FE00E9481040E94E40460E070E080E08C
:101450000E94810460E070E080E00E9481042FEF30
:1014600080E792E0215080409040E1F700C000000A
:101470000E945B062FEF80E792E021508040904071
:10148000E1F700C000002196CE30D10509F0BECFB3
:10149000DF91CF910895BF92CF92DF92EF92FF92AA
:1014A0000F931F93CF93DF930E94760580911703CC
:1014B0008950843030F441E060E070E086E00E94C2
:1014C000D901C12CD12C76011EEF00E881EAB82E9B
:1014D00080910A0390910B03A0910C03B0910D032E
:1014E000C816D906EA06FB0658F5C0E0D0E084E04D
:1014F0000E940704FE01E659FE4F9383848341E076
:1015000060E070E086E00E94D9012296C038D105E3
:1015100071F710936A0100936B01B0926C0163E85C
:101520008AE691E00E940D1A809166018823E1F31A
:101530001092660180E8C80ED11CE11CF11CC8CFD6
:10154000DF91CF911F910F91FF90EF90DF90CF909F
:10155000BF900C945B06BF92CF92DF92EF92FF9206
:101560000F931F93CF93DF930E947605C12CD12C4C
:1015700076011EEF00E831EAB32E80910A039091C4
:101580000B03A0910C03B0910D03C816D906EA060F
:10159000FB0628F5C0E0D0E084E20E940704FE01CB
:1015A000E659FE4F938384832296C038D105A1F774
:1015B00010936A0100936B01B0926C0163E88AE6B4
:1015C00091E00E940D1A809166018823E1F3109248
:1015D000660180E8C80ED11CE11CF11CCECF0E9430
:1015E0005B060E94760520E040EF60E08DE10E94FE
:1015F000470200E010E08EEFF82E90E4E92E29EA91
:10160000D22E809110039091110308171907F0F45E
:10161000CDE6D1E084E20E940704899381E0CD3ACF
:10162000D807C1F7F0926A01E0926B01D0926C0189
:1016300063E48AE691E00E940D1A80916601882396
:10164000E1F310926601005C1F4FDBCFDF91CF9179
:101650001F910F91FF90EF90DF90CF90BF900C946F
:101660005B06CF92DF92EF92FF920F931F93CF937F
:10167000DF930E947605C12CD12C760110E801EA97
:1016800080910A0390910B03A0910C03B0910D037C
:10169000C816D906EA06FB0630F5C0E0D0E08EEFAA
:1016A0000E949203FE01E659FE4F938384832296A3
:1016B000C038D105A1F78EEF80936A0110936B01BA
:1016C00000936C0163E88AE691E00E940D1A809114
:1016D00066018823E1F31092660180E8C80ED11CF0
:1016E000E11CF11CCDCF0E945B060E947605809123
:1016F0001703823139F400E020EF40E060E080E839
:101700000E94EA0280911703833139F400E020E05F
:1017100041E360E080E80E94EA0200E010E080E43B
:10172000F82E99EAE92E8091100390911103081781
:101730001907F8F4CDE6D1E08EEF0E949203899369
:1017400081E0CD3AD807C1F78EEF80936A01F0921D
:101750006B01E0926C0163E48AE691E00E940D1A4D
:10176000809166018823E1F310926601005C1F4FAF
:10177000DACFDF91CF911F910F91FF90EF90DF9023
:10178000CF900C945B06BF92CF92DF92EF92FF92C4
:101790000F931F93CF93DF930E947605C12CD12C1A
:1017A00076011EEF00E831EAB32E80910A03909192
:1017B0000B03A0910C03B0910D03C816D906EA06DD
:1017C000FB0658F5C0E0D0E084E00E940704FE016B
:1017D000E659FE4F9383848341E060E070E086E049
:1017E0000E94D9012296C038D10571F710936A0181
:1017F00000936B01B0926C0163E88AE691E00E946D
:101800000D1A809166018823E1F31092660120E8A9
:10181000C20ED11CE11CF11CC8CF0E945B068FEFE9
:1018200090E722E0815090402040E1F700C00000A6
:101830000E94760500E010E08EEFF82E90E4E92E8D
:1018400029EAD22E809110039091110308171907ED
:1018500020F5CDE6D1E085E00E940704899341E0C0
:1018600060E070E086E00E94D90181E0CD3AD807BF
:1018700091F7F0926A01E0926B01D0926C0163E4FF
:101880008AE691E00E940D1A809166018823E1F3B7
:1018900010926601005C1F4FD5CFDF91CF911F9151
:1018A0000F91FF90EF90DF90CF90BF900C945B066C
:1018B0009F92AF92BF92CF92DF92EF92FF920F93DF
:1018C0001F93CF93DF930E94760540E060E080E0B5
:1018D0000E941506C12CD12C76014EEFB42E50E893
:1018E000A52E61EA962E80910A0390910B03A09198
:1018F0000C03B0910D03C816D906EA06FB0660F585
:10190000C0E0D0E060E089E00E9490058E010659B9
:101910001E4FF801848360E089E00E949005F80181
:1019200083832296C038D10569F7B0926A01A092EC
:101930006B0190926C0163E88AE691E00E940D1AB7
:10194000809166018823E1F310926601F0E8CF0EE2
:10195000D11CE11CF11CC7CF0E945B0680911003D3
:1019600090911103892B09F47EC00E94760566EAE6
:101970007EE980E00E94810466EA7CE980E00E94C2
:101980008104E12CF12C9EEFD92E20E4C22E39EAFD
:10199000B32E8091100390911103E816F90608F018
:1019A00055C000E010E0E801CE0DDF1DBE01772735
:1019B0007E6080E00E94810469EA7EE680E00E9409
:1019C00081046D2F77277E6080E00E9481046AEA9F
:1019D0007EE680E00E94810466EA70E880E00E9472
:1019E000810468EA70E580E00E94810465EF7EE68C
:1019F00080E00E94810460E070E080E00E94810449
:101A000060E082E00E94900560E082E00E94900524
:101A1000F801E659FE4F83830F5F1F4F0034110515
:101A200011F6D0926A01C0926B01B0926C0163E42E
:101A30008AE691E00E940D1A809166018823E1F305
:101A40001092660180E4E80EF11CA3CFDF91CF91E4
:101A50001F910F91FF90EF90DF90CF90BF90AF90CC
:101A60009F900C945B06DF91CF911F910F91FF9097
:101A7000EF90DF90CF90BF90AF909F9008959F928E
:101A8000AF92BF92CF92DF92EF92FF920F931F938C
:101A9000CF93DF930E94760540E060E080E00E94F3
:101AA0001506C12CD12C76014EEFB42E50E8A52E90
:101AB00061EA962E80910A0390910B03A0910C038A
:101AC000B0910D03C816D906EA06FB0660F5C0E022
:101AD000D0E060E089E00E9490058E0106591E4F1B
:101AE000F801848360E089E00E949005F801838317
:101AF0002296C038D10569F7B0926A01A0926B01B5
:101B000090926C0163E88AE691E00E940D1A809140
:101B100066018823E1F310926601F0E8CF0ED11C34
:101B2000E11CF11CC7CF0E945B068FE39CE9019783
:101B3000F1F700C000008091100390911103892BF0
:101B400009F474C0E12CF12C8EEFD82E90E4C92E4C
:101B500029EAB22E8091100390911103E816F9063C
:101B600008F064C000E010E00E947605E801CE0DA8
:101B7000DF1D6FE77EE980E00E9481046FE77CE96A
:101B800080E00E948104BE0177277E6080E00E9491
:101B9000810464E77EE680E00E9481046D2F772750
:101BA0007E6080E00E94810465E77EE680E00E941E
:101BB00081046FE770E880E00E94810463E770E5CC
:101BC00080E00E94810465EF7EE680E00E9481044F
:101BD00060E070E080E00E94810460E082E00E94AA
:101BE0009005F801E659FE4F838360E082E00E9491
:101BF00090050E945B060F5F1F4F0034110509F02E
:101C0000B3CFD0926A01C0926B01B0926C0163E4D1
:101C10008AE691E00E940D1A809166018823E1F323
:101C20001092660190E4E90EF11C94CFDF91CF9100
:101C30001F910F91FF90EF90DF90CF90BF90AF90EA
:101C40009F9008950E947605809117038E3031F49D
:101C500020E048EE60E08DE10E94470241E060E054
:101C600070E089E00E94D9012FEF83EC99E02150C8
:101C700080409040E1F700C000000C945B060F9399
:101C80000E94760580911703823139F400E020E844
:101C900040E060E080E80E94EA028091170383310F
:101CA00039F400E020E040E260E080E80E94EA02CF
:101CB00000E020E040E061E088E10E94EA022FEFCE
:101CC00080E792E0215080409040E1F700C00000A2
:101CD0000E945B06809117038331E1F40E94760530
:101CE00001E020E041E360E080E80E94EA0200E0D9
:101CF00020E040E061E088E10E94EA022FEF80E707
:101D000092E0215080409040E1F700C000000F9128
:101D10000C945B060F9108950F931F93CF93DF935D
:101D2000E0911703EA50E33040F4F0E0EE0FFF1FBC
:101D3000E05AFE4FC081D18102C0C0E0D0E00E94D5
:101D40007605809117038A50833038F500E010E063
:101D50000C171D0749F041E060E070E086E00E944A
:101D6000D9010F5F1F4FF4CF84E00E9407049093C6
:101D700001038093000305E010E041E060E070E0C3
:101D800086E00E94D90101501109B9F784E00E9450
:101D9000070490930503809304030E945B060E944E
:101DA000760541E060E070E086E00E94D90141E004
:101DB00060E070E089E00E94D9012FEF83EC99E0A8
:101DC000215080409040E1F700C000000E945B0677
:101DD0008FE19EE40197F1F700C0000080911703A6
:101DE0008A50833008F060C00E94760500E010E061
:101DF0000C171D0749F041E060E070E086E00E94AA
:101E0000D9010F5F1F4FF4CF609100037091010360
:101E100040E082E00E94D90141E060E070E088E0AB
:101E20000E94D9018FE19EE40197F1F700C0000004
:101E300041E060E070E08EE00E94D9018FE891E01F
:101E40000197F1F700C00000C5E0D0E041E060E09C
:101E500070E086E00E94D9012197C1F760910403E8
:101E60007091050340E082E00E94D90141E060E00A
:101E700070E088E00E94D9018FE19EE40197F1F7BC
:101E800000C0000041E060E070E08EE00E94D901F7
:101E90008FE891E00197F1F700C00000DF91CF914A
:101EA0001F910F910C945B06DF91CF911F910F91C1
:101EB00008950E94760540E060E070E080E00E94B6
:101EC000D9012FEF80E792E0215080409040E1F768
:101ED00000C0000040E06FEF7FE382E00E94D90184
:101EE0002FEF80E792E0215080409040E1F700C062
:101EF000000041E060E070E089E00E94D9012FEF2E
:101F000083EC99E0215080409040E1F700C0000050
:101F10000E945B062FEF83EC99E0215080409040B7
:101F2000E1F700C000000E9476052FEF80E792E005
:101F3000215080409040E1F700C0000041E060E0A7
:101F400070E08BE00E94D9012FEF83EC99E02150E3
:101F500080409040E1F700C000000C945B060E94B6
:101F6000760540E060E070E080E00E94D90141E049
:101F700060E070E08FE10E94D9012FEF83EC99E0DF
:101F8000215080409040E1F700C000000C945B06B7
:101F9000CF93DF930E94760540E06FEF7FE380E010
:101FA0000E94D901C7E0D0E041E060E070E086E047
:101FB0000E94D9012197C1F741E060E070E081E023
:101FC0000E94D90141E060E070E087E00E94D90101
:101FD00041E060E070E088E00E94D9018FE79BEB70
:101FE0000197F1F700C0000041E060E070E081E09F
:101FF0000E94D90141E060E070E087E00E94D901D1
:102000000E945B069FEF20E782E0915020408040D5
:10201000E1F700C00000DF91CF9108950F931F9367
:10202000CF93DF93C0E0D0E00E94760540E0209798
:1020300021F46FEF7FE382E006C0C130D10531F4B7
:102040006FEF7FE383E00E94D90110C060E070E091
:1020500080E00E94D90107E010E041E060E070E01C
:1020600086E00E94D90101501109B9F741E060E012
:1020700070E081E00E94D90141E060E070E087E01B
:102080000E94D90141E060E070E088E00E94D9013F
:102090008FE39CE90197F1F700C0000041E060E0A8
:1020A00070E081E00E94D90141E060E070E087E0EB
:1020B0000E94D9018FED9EE20197F1F700C0000068
:1020C0000E945B062196C330D10509F0ADCFDF91A8
:1020D000CF911F910F9108950F931F93CF93DF938B
:1020E0008091170383508E3070F490E0880F991F11
:1020F000FC01EC5BFE4F00811181FC01E85DFE4FAD
:10210000C081D18104C0C0E0D0E000E010E00E94B6
:10211000760545E060E08CE30E941506B8018CE08E
:102120000E94810444E060E08CE30E941506BE0139
:102130008CE00E9481040E94E40460E070E080E092
:102140000E94810460E070E080E00E9481042FEF33
:1021500080E792E0215080409040E1F700C000000D
:10216000DF91CF911F910F910C945B06CF92DF927C
:10217000EF92FF920F931F93CF93DF93CDB7DEB70C
:102180006C970FB6F894DEBF0FBECDBF8EE0E0E0D7
:10219000F1E0DE011F9601900D928A95E1F78EE045
:1021A000EEE0F1E0DE01119601900D928A95E1F7E3
:1021B0007E012FE0E20EF11C8E010F5F1F4F6E01BA
:1021C0008DE1C80ED11C0E94760544E060E08CE3EE
:1021D0000E941506F701619171917F018CE00E94C8
:1021E000810445E060E08CE30E941506F8016191EE
:1021F00071918F018CE00E94810446E060E08CE3E5
:102200000E94150660E870E88CE00E9481040E943C
:10221000E40460E070E080E00E94810460E070E02F
:1022200080E00E948104FFEF20E782E0F15020402F
:102230008040E1F700C000000E945B06EFE1FEE491
:102240003197F1F700C00000EC14FD0409F0BBCF9A
:102250006C960FB6F894DEBF0FBECDBFDF91CF9165
:102260001F910F91FF90EF90DF90CF9008950F9303
:102270001F93CF93DF93809117038950843018F018
:102280000FEF1FE302C00FEF1FE0C0E0D0E0FE0140
:10229000E659FD4F658170E0762F66278481682BB3
:1022A0006017710711F140E082E00E94D90180912E
:1022B000170341E060E070E0843111F488E101C06F
:1022C00088E00E94D90180910E0390910F030E9433
:1022D000750141E060E070E08EE00E94D9018FE876
:1022E00091E00197F1F700C0000041E060E070E08C
:1022F00086E00E94D9012296C038D10541F6DF91CF
:10230000CF911F910F910895CF93DF93C0E0D0E05C
:10231000FE01E659FD4F658170E0762F66278481C6
:10232000682B6F3F8FE3780781F040E082E00E94E6
:10233000D90141E060E070E088E00E94D90180911D
:102340000E0390910F030E94750141E060E070E080
:1023500086E00E94D9012296C038D105C9F6DF91E6
:10236000CF910895CF93DF93C0E0D0E0FE01E6590E
:10237000FD4F658170E0762F66278481682B6F3F63
:102380008FE37807B1F040E082E00E94D90141E09C
:1023900060E070E088E10E94D90180910E03909185
:1023A0000F030E94750141E060E070E087E10E9448
:1023B000D90141E060E070E086E00E94D9012296F8
:1023C000C038D10599F6DF91CF910895CF93DF936F
:1023D000C0E0D0E0FE01E659FD4F658170E0762F48
:1023E00066278481682B6F3F2FE3720739F441E041
:1023F00060E070E086E00E94D9013AC08091060357
:1024000090910703A0910803B09109038F3F934077
:10241000A105B10521F4609102037091030340E02E
:1024200082E00E94D90141E060E070E088E00E9413
:10243000D90180910E0390910F030E94750141E034
:1024400060E070E086E00E94D901809106039091DF
:102450000703A0910803B09109030196A11DB11DC6
:102460008093060390930703A0930803B093090396
:102470002296C038D10509F0ADCFDF91CF910895F4
:10248000CF93DF93C0E0D0E0FE01E659FD4F6581B8
:1024900070E0762F66278481682B6F3F8FE3780783
:1024A00059F441E060E070E086E00E94D9018AE6DC
:1024B0008A95F1F700C01AC040E082E00E94D9017D
:1024C0008AE68A95F1F700C041E060E070E088E0BC
:1024D0000E94D90180910E0390910F030E94750113
:1024E00041E060E070E086E00E94D9012296C038A9
:1024F000D10551F6DF91CF910895EF92FF920F939E
:102500001F93CF93DF93C0E0D0E04091120350912E
:10251000130320E030E080E090E02417350778F4E2
:10252000F901EC0FFD1FE659FD4F64816F3F21F467
:1025300065816F3309F402962E5F3F4FEECF009115
:1025400006031091070320910803309109038417B3
:10255000950779F496958795080F191F211D311D50
:102560000093060310930703209308033093090395
:102570005AC0BB27A32F922F812F492F5527282FD1
:1025800060E080E80E94EA02E12CF12C80911203C5
:1025900090911303E816F906F8F4F701EC0FFD1F0C
:1025A000E659FD4F0481258140E060E080E00E9413
:1025B000EA0280911203909113030297E816F9063C
:1025C00038F400E020E040E061E088EF0E94EA0299
:1025D00082E0E80EF11CDACF00E020E040E061E0AC
:1025E00080EE0E94EA0280910E0390910F030E94F8
:1025F0007501209112033091130336952795809130
:10260000060390910703A0910803B0910903820F7C
:10261000931FA11DB11D8093060390930703A09300
:102620000803B09309038091120390911303C80F1C
:10263000D91FC038D1050CF468CFDF91CF911F911D
:102640000F91FF90EF9008950F93CF93DF93C0E029
:10265000D0E0FE01E659FD4F04812581802F90E0F6
:10266000922B019641F400E020E040E061E088EF29
:102670000E94EA020BC040E060E080EE0E94EA02A5
:1026800080910E0390910F030E9475012296C0382D
:10269000D105F9F6DF91CF910F910895EF92FF9256
:1026A0000F931F93CF93DF93C0E0D0E040911203CC
:1026B0005091130320E030E080E090E024173507CC
:1026C00078F4F901EC0FFD1FE659FD4F64816F3F6F
:1026D00021F465816F3F09F402962E5F3F4FEECFE4
:1026E00084179507B9F44091060350910703609150
:1026F0000803709109038A019B01080F191F211D0E
:10270000311D0093060310930703209308033093B1
:10271000090377C00E94760566EA7EE880E00E94A1
:10272000810466EA7CE980E00E94810480911703BD
:10273000803129F466EA74E880E00E9481044091C7
:102740000603509107036091080370910903BB27AA
:10275000A72F962F852F682F892F0E9415068E018F
:1027600001591D4FE12CF12C80911203909113031C
:10277000E816F906D0F40297F8013197D8016C9168
:1027800070E0762F6627E816F90620F08081682B26
:102790008FE003C08081682B8DE00E948104B2E04D
:1027A000EB0EF11C0E5F1F4FDFCF0E94E40460E0D0
:1027B00070E080E00E94810460E070E080E00E94B0
:1027C00081042091120330911303809106039091AC
:1027D0000703A0910803B0910903820F931FA11D65
:1027E000B11D8093060390930703A0930803B09351
:1027F00009030E945B068FE39FE10197F1F700C098
:1028000000008091120390911303C80FD91FC038A4
:10281000D1050CF44BCFDF91CF911F910F91FF9019
:10282000EF900895EF92FF920F931F93CF93DF9352
:10283000C0E0D0E0409112035091130320E030E05B
:1028400080E090E02417350778F4F901EC0FFD1FC4
:10285000E659FD4F64816F3F21F465816F3F09F4B4
:1028600002962E5F3F4FEECF84179507B9F4409143
:1028700006035091070360910803709109038A01D0
:102880009B01080F191F211D311D00930603109392
:102890000703209308033093090373C00E94760551
:1028A0006FE77EE880E00E9481046FE77CE980E0CA
:1028B0000E9481046FE774E880E00E9481044091E7
:1028C0000603509107036091080370910903BB2729
:1028D000A72F962F852F682F892F0E9415068E010E
:1028E00001591D4FE12CF12C80911203909113039B
:1028F000E816F906D0F40297F8013197D8016C91E7
:1029000070E0762F6627E816F90620F08081682BA4
:102910008FE003C08081682B8DE00E948104B2E0CB
:10292000EB0EF11C0E5F1F4FDFCF0E94E40460E04E
:1029300070E080E00E94810460E070E080E00E942E
:10294000810420911203309113038091060390912A
:102950000703A0910803B0910903820F931FA11DE3
:10296000B11D8093060390930703A0930803B093CF
:1029700009030E945B068FE39FE10197F1F700C016
:1029800000008091120390911303C80FD91FC03823
:10299000D1050CF44FCFDF91CF911F910F91FF9094
:1029A000EF900895CF93DF93CEE6D2E069916F3F29
:1029B00091F070E040E083E00E94D90141E060E0E6
:1029C00070E088E00E94D90180910E0390910F037E
:1029D00002960E94750141E060E070E086E00E948E
:1029E000D90182E0CE3AD80709F7DF91CF91089557
:1029F000CF93DF93CEE6D2E069916F3FC1F070E0F4
:102A000040E083E00E94D90141E060E070E082E1B3
:102A10000E94D90180910E0390910F0305960E94A8
:102A2000750141E060E070E081E10E94D90141E080
:102A300060E070E086E00E94D90182E0CE3AD807DB
:102A4000D9F6DF91CF910895CF93DF93CEE6D2E010
:102A500069916F3F91F070E040E082E00E94D901FF
:102A600041E060E070E088E00E94D90180910E03AF
:102A700090910F0302960E94750141E060E070E0C2
:102A800086E00E94D90182E0CE3AD80709F7DF91AB
:102A9000CF9108950F93CF93DF93CEE6D2E08CEFE2
:102AA0000E9492030881081781F1809117038231F7
:102AB000D1F420E040E060E080E00E94EA0200E023
:102AC00020E040E061E080EC0E94EA0280910E0389
:102AD00090910F0302960E94750120E040E061E0B2
:102AE00088EF0E94EA02809117038331A9F40881DC
:102AF00020E040E060E080EC0E94EA0280910E035A
:102B000090910F0303960E94750100E020E040E0E1
:102B100061E088EF0E94EA02219682E0CE3AD8076F
:102B200009F0BDCFDF91CF910F9108958F929F92C1
:102B3000AF92BF92CF92DF92EF92FF92CF93DF934B
:102B40000E94760566EA7EE980E00E94810466EADA
:102B50007CE980E00E948104C12CD12C7601E60141
:102B6000C659DD4F8C818F3F09F45EC0809006030B
:102B700090900703A0900803B09009036C2D680D96
:102B800070E07E6080E00E94810469EA7EE680E079
:102B90000E9481048C0C9D1CAE1CBF1C692D70E032
:102BA0007E6080E00E9481046AEA7EE680E00E9406
:102BB00081046C8170E07E6080E00E94810468EA9C
:102BC0007EE680E00E94810466EA74E880E00E946C
:102BD000810466EA72E880E00E94810466EA70E59A
:102BE00080E00E94810465EF7EE680E00E9481041F
:102BF00060E070E080E00E94810460E082E00E947A
:102C00009005C82F60E082E00E9490058C2B31F384
:102C10002A988FE19EE40197F1F700C0000066EA70
:102C200074E980E00E9481049FEFC91AD90AE90A79
:102C3000F90A80E4C816D104E104F10409F08FCF49
:102C40008091060390910703A0910803B0910903B6
:102C5000805C9F4FAF4FBF4F809306039093070355
:102C6000A0930803B0930903DF91CF91FF90EF90F9
:102C7000DF90CF90BF90AF909F908F900C945B06A9
:102C80008F929F92AF92BF92CF92DF92EF92FF927C
:102C9000CF93DF930E9476056FE77EE980E00E9484
:102CA00081046FE77CE980E00E948104C12CD12C73
:102CB0007601E601C659DD4F8C818F3F09F45EC075
:102CC0008090060390900703A0900803B09009033A
:102CD0006C2D680D70E07E6080E00E94810464E7E6
:102CE0007EE680E00E9481048C0C9D1CAE1CBF1C03
:102CF000692D70E07E6080E00E94810465E77EE6D9
:102D000080E00E9481046C8170E07E6080E00E941F
:102D1000810463E77EE680E00E9481046FE774E847
:102D200080E00E9481046FE772E880E00E948104E5
:102D30006FE770E580E00E94810465EF7EE680E049
:102D40000E94810460E070E080E00E94810460E005
:102D500082E00E949005C82F60E082E00E9490050A
:102D60008C2B31F32A988FE19EE40197F1F700C094
:102D700000006FE774E980E00E9481049FEFC91AA8
:102D8000D90AE90AF90A80E4C816D104E104F10479
:102D900009F08FCF8091060390910703A09108035B
:102DA000B0910903805C9F4FAF4FBF4F80930603E4
:102DB00090930703A0930803B0930903DF91CF9189
:102DC000FF90EF90DF90CF90BF90AF909F908F904B
:102DD0000C945B060F931F93CF93DF9300D0CDB776
:102DE000DEB70E9476050FEF13E041E060E070E08F
:102DF00086E00E94D90101501109B9F784E00E94D0
:102E0000070489839A830E945B062EEF20936A0150
:102E100022E020936B012BEA20936C019A8190931E
:102E20006D01898180936E0165E08AE691E00F90E3
:102E30000F90DF91CF911F910F910C940D1ACF93AA
:102E4000DF930E947605809117038E3039F420E0DD
:102E500040EE60E08DE10E94470216C040E060E075
:102E600070E080E00E94D901C0E0D0E080911503BD
:102E700090E0C817D90744F441E060E070E086E0D4
:102E80000E94D9012196F2CF84E00E94070490931A
:102E900003038093020341E060E070E086E00E945B
:102EA000D90184E00E9407049093010380930003FA
:102EB00041E060E070E086E00E94D90184E00E9479
:102EC000070490930503809304030E945B068EEF32
:102ED00080936A0186E080936B018BEA80936C019A
:102EE000809102039091030390936D0180936E0192
:102EF000809100039091010390936F018093700182
:102F00008091040390910503909371018093720165
:102F100069E08AE691E0DF91CF910C940D1A0F934E
:102F20001F93CF93DF93E0911703EA50E33040F40F
:102F3000F0E0EE0FFF1FEE5DFE4F0081118102C039
:102F400000E010E00E947605C0E0D0E0C017D10795
:102F500041F041E060E070E086E00E94D9012196F6
:102F6000F5CF84E00E94070490930303809302034B
:102F70000E945B068EEF80936A0182E080936B0172
:102F80008BEA80936C0180910203909103039093EC
:102F90006D0180936E0165E08AE691E0DF91CF914B
:102FA0001F910F910C940D1A0F931F93CF93DF93E2
:102FB00080916F0290E0982F882720916E02822BDB
:102FC0009093030380930203E0911703EA50E330E8
:102FD00040F4F0E0EE0FFF1FE45EFE4F0081118130
:102FE00002C000E010E00E947605C0E0D0E0C0170B
:102FF000D10741F041E060E070E086E00E94D90135
:103000002196F5CF609102037091030340E082E0C6
:103010000E94D90141E060E070E088E00E94D9019F
:103020008FE19EE40197F1F700C0000041E060E00D
:1030300070E08EE00E94D9018FE891E00197F1F7EE
:1030400000C00000DF91CF911F910F910C945B069F
:10305000CF93DF9380916F0290E0982F8827209183
:103060006E02822B90930303809302030E947605E5
:10307000CFEFD3E041E060E070E086E00E94D9014C
:103080002197C1F7609102037091030340E082E051
:103090000E94D90141E060E070E088E00E94D9011F
:1030A0008FE19EE40197F1F700C0000041E060E08D
:1030B00070E08AE00E94D901DF91CF910C945B0609
:1030C0000F931F93CF93DF930E94760540E060E05B
:1030D00070E080E00E94D901C0E0D0E0809115034B
:1030E00090E0C817D90744F441E060E070E086E062
:1030F0000E94D9012196F2CFCFE6D2E000E010E0A5
:103100008091140390E00817190714F5688170E0A6
:10311000762F6627FE0131978081682B40E082E0A0
:103120000E94D90141E060E070E088E00E94D9018E
:103130008FE19EE40197F1F700C0000041E060E0FC
:1031400070E086E00E94D9010F5F1F4F2296D8CF12
:10315000DF91CF911F910F910C945B06CF93DF937A
:103160000E947605CFEFD3E041E060E070E086E0BA
:103170000E94D9012197C1F784E00E94070490932F
:103180000303809302030E945B068FE19EE4019794
:10319000F1F700C000000E94B50140E060E070E27D
:1031A00080E00E94D901C7E0D0E041E060E070E03B
:1031B00086E00E94D9012197C1F784E00E940704AC
:1031C00090930103809300030E945B0680910003AB
:1031D00090910103882790739093010380930003DB
:1031E0008FE19EE40197F1F700C00000DF91CF91DD
:1031F00008950F931F93CF93DF93C0916F02D0E098
:10320000DC2FCC2780916E02C82B0E94AE18DF7095
:103210008091000390910103C82BD92B0E94760561
:1032200040E060E070E280E00E94D90107E010E039
:1032300041E060E070E086E00E94D9010150110990
:10324000B9F740E0BE0182E00E94D90141E060E0B0
:1032500070E088E00E94D9018FE19EE40197F1F7C8
:1032600000C0000041E060E070E08AE00E94D90107
:10327000DF91CF911F910F910C945B06CF93DF9359
:103280000E94760540E060E070E280E00E94D90193
:10329000C7E0D0E041E060E070E086E00E94D90144
:1032A0002197C1F784E00E9407049093050380935F
:1032B00004030E945B0680910403909105039F70B4
:1032C0002091000330910103822B932B90930503EF
:1032D000809304030E94760540E060E070E280E0A5
:1032E0000E94D901C7E0D0E041E060E070E086E0F4
:1032F0000E94D9012197C1F76091040370910503E1
:1033000040E082E00E94D90141E060E070E088E0A6
:103310000E94D9018FE19EE40197F1F700C00000FF
:1033200041E060E070E08AE00E94D9010E945B0603
:103330000E947605CFEFD3E041E060E070E086E0E8
:103340000E94D9012197C1F7609102037091030394
:1033500040E082E00E94D90141E060E070E088E056
:103360000E94D9018FE19EE40197F1F700C00000AF
:1033700041E060E070E08AE00E94D901DF91CF91E6
:103380000C945B060E94AE180E94760540E060E057
:1033900070E080E00E94D9012FEF80E792E0215099
:1033A00080409040E1F700C0000041E060E070E044
:1033B00089E00E94D9012FEF83EC99E021508040F1
:1033C0009040E1F700C000000E945B062FEF83EC05
:1033D00099E0215080409040E1F700C000000E9439
:1033E00076052FEF80E792E0215080409040E1F792
:1033F00000C0000041E060E070E08BE00E94D90175
:103400002FEF83EC99E0215080409040E1F700C01D
:1034100000000E945B060C943E19EF92FF920F93FE
:103420001F93CF93DF937C018C01C62FD0E0C8019E
:103430008E199F098C179D0734F4F80181918F0133
:103440000E94261DF4CFDF91CF911F910F91FF9025
:10345000EF900895EAE6F2E08EEF808381E08183C9
:103460008CEC8283138264E0CF010C940D1ADF92FE
:10347000EF92FF920F931F93CF93DF93D82E8B0180
:103480007A01E9018EEF0E94261D8E2D0E94261DD5
:103490008D2D0E94261DC00FD11F8E01C8018C1BCF
:1034A0009D0B8E159F0530F4F80181918F010E94CC
:1034B000261DF4CFDF91CF911F910F91FF90EF90D8
:1034C000DF9008950F9380916C02863A09F4C6C18B
:1034D000A0F4823A09F4D3C028F4803A29F1813A61
:1034E000E1F1A4C2E0916D02843A09F418C120917F
:1034F0006E02853A08F4F7C042C18B3A09F43FC224
:1035000038F4873A09F4DBC1883A09F410C28EC254
:103510008F3A09F484C28C3C21F08C3A09F086C2BF
:103520004DC20F910C942A1AE0916D02E09317039B
:103530008E2F90E0FC013197E431F10508F076C25E
:10354000EC5CFF4F0C94391D0F910C94EB060F911E
:103550000C94AD060F910C947206E0916E028E2FC2
:1035600090E0FC013197ED30F10508F040C0E85BD8
:10357000FF4F0C94391D80E091E0A0E0B0E03BC02B
:1035800080E092E0A0E0B0E036C080E094E0A0E00F
:10359000B0E031C080E098E0A0E0B0E02CC080E076
:1035A00090E1A0E0B0E027C080E090E2A0E0B0E0D1
:1035B00022C080E090E4A0E0B0E01DC080E090E890
:1035C000A0E0B0E018C080E090E0A1E0B0E013C05F
:1035D00080E090E0A2E0B0E00EC080E090E0A4E0E7
:1035E000B0E009C080E090ECA0E0B0E004C080E86A
:1035F00090E0A0E0B0E080930A0390930B03A093C7
:103600000C03B0930D038091710290E0982F8827EE
:1036100020917202822B9093110380931003E0910A
:103620006D02E093170380917302809314038091DD
:103630007402809315038E2F90E0FC013197E431E2
:10364000F10508F0F3C1EB5AFF4F0C94391D0F91AF
:103650000C943F0D0E94C30BA8C10E94C30BABC1C9
:103660000F910C94AB0A0F910C94580C0F910C9481
:10367000C30B0F910C94310B0F910C944B0AE091FA
:103680006D02E09317038E2F90E0FC013197E43137
:10369000F10508F5E759FF4F0C94391D0E94C80F3A
:1036A0001AC00E94B61017C00E94C21914C00E940E
:1036B000590F11C00E948C0E0EC00E94AF0F0BC09C
:1036C0000E946C1008C00E940E1005C00E943F0EA0
:1036D00002C00E94220E8EEF80936A0181E08093E7
:1036E0006B0182EA92C1E0931703209316038E2F99
:1036F00090E0FC013197E431F10508F097C1E358FF
:10370000FF4F0C94391D0F910C9426080F910C94C7
:1037100048080F910C949B070F910C941907E093A4
:10372000170380917C02809316038E2F90E0FC019A
:103730003197E431F105D8F4EF56FF4F0C94391D61
:103740000E94940914C00E94020A11C00E94F91834
:103750000EC00E9429090BC00E94C40908C00E9423
:10376000510905C00E94CA0802C00E9488088EEF55
:1037700080936A0181E080936B0184EA46C1E09303
:10378000170380916F0290E0982F88273091700284
:10379000832BAC01990F660B770B30E0922F8827B3
:1037A000092E000CAA0BBB0BBA2FA92F982F882724
:1037B000842B952BA62BB72B80930A0390930B0396
:1037C000A0930C03B0930D038091710290E0982FA9
:1037D000882720917202822B90931103809310030B
:1037E0008091730290E0982F882720917402822B99
:1037F00090930F0380930E038091750290E0909355
:103800001303809312038E2F90E0FC013197E43173
:10381000F10508F04CC0EB55FF4F0C94391D0E9488
:10382000B50145C00E94AE180E94B5010BC00E94B0
:10383000910141E060E070E086E00E94D90137C06C
:103840000E94910110920603109207031092080340
:10385000109209032CC00E94910129C0E0916D02D1
:10386000E09317038E2F90E0FC013197E431F105CE
:10387000F0F4E754FF4F0C94391D0E94401217C01A
:103880000E94121414C00E94E61111C00E94B211CD
:103890000EC00E944E130BC00E94841108C00E94EB
:1038A0007D1205C00E94241302C00E9437118EEFC2
:1038B00080936A0181E080936B0186EAA6C0E09163
:1038C0006D02E09317038E2F90E0FC013297E231F6
:1038D000F10508F04CC0E353FF4F0C94391D0E94D2
:1038E000B50145C00E94910120E040EF60E08DE10C
:1038F0000E9447023CC010920603109207031092E8
:1039000008031092090333C00E94910130C00E9445
:10391000910100E020EF40E005C00E94910100E02D
:1039200020E041E360E080E80E94EA0220C0E091EC
:103930006D02E09317038E2F90E0FC013297E23185
:10394000F105A8F4E152FF4F0C94391D0E94401676
:103950000EC00E9424150BC00E94F81408C00E94DB
:10396000961505C00E94D21402C00E944A158EEF1F
:1039700080936A0181E080936B0188EA46C0809160
:103980006D028093170390916E02909315038A3015
:1039900079F028F4863049F0873069F047C08C30E0
:1039A00039F030F08E3039F041C00F910C94EA16A6
:1039B0000F910C948F170F910C941F1780916D022B
:1039C0008093170390917402909315039091750260
:1039D000909314038A3081F038F4863051F08730A8
:1039E00069F40E9460180AC08B3031F08C3021F0ED
:1039F00005C00E94281802C00E94D4178EEF809341
:103A00006A0181E080936B018CEA80936C011092D3
:103A10006D0164E08AE691E00F910C940D1A80919B
:103A20006D02809317030F910C945B060F9108951C
:103A30001092C00088E98093C10086E08093C200A4
:103A40001092C50080E18093C40008959091C00059
:103A500095FFFCCF8093C6000895CF93DF93EC01D0
:103A60008991882319F00E94261DFACFDF91CF910A
:103A70000895EE0FFF1F0590F491E02D0994F8943E
:023A8000FFCF76
:103A820004040404040404040505020204040101FC
:103A92000202040408080000000000000004000103
:103AA20000020004000100028F8F000000000000ED
:103AB2000000000000000000000000008080000004
:103AC20000008F8F3F3F0000000000000000000058
:103AD20000000000000000000101000000000F0FC4
:063AE200000400010002D7
:00000001FF
