:100000000C9434000C9451000C9451000C94510049
:100010000C9451000C9451000C9451000C9451001C
:100020000C9451000C9451000C9451000C9451000C
:100030000C9451000C9451000C9451000C945100FC
:100040000C9451000C9451000C945F000C945100DE
:100050000C9451000C9451000C9451000C945100DC
:100060000C9451000C94510011241FBECFEFD8E026
:10007000DEBFCDBF11E0A0E0B1E0EAEAF9E302C0E3
:1000800005900D92AA35B107D9F723E0AAE5B1E0B2
:1000900001C01D92AC30B207E1F70E94A0000C94A1
:1000A0002D1C0C940000219A229A389A579A569A3D
:1000B0003C9A5F9A089521980895219A08951F9275
:1000C0001FB61F9211242F938F939F93EF93FF934B
:1000D0008091C0008C71811126C020915D028091B9
:1000E000C600E22FF0E0E25AFD4F80832F5F20939D
:1000F0005D02233021F480915F0280935B02809146
:100100005B02811581F090E003962817190659F4D7
:1001100010925D0210925B02809160028D3361F457
:1001200081E080935A01FF91EF919F918F912F91E0
:100130001F901FBE1F90189581E080935C02F3CF43
:100140000E94061C0E94530029982A9840985F98A4
:100150005E98789480915C02811521F00E9461196B
:1001600010925C02F7CF9C0180E090E08217930729
:1001700009F40895EFE9FFE03197F1F700C00000BE
:100180000196F4CF9C0180E090E08217930709F478
:10019000089545E04A95F1F700000196F6CF5F9883
:1001A0008FE99FE00197F1F700C00000219A229AA1
:1001B00044980E945D0040982A98299887EC90E026
:1001C0000197F1F700C000005F9A87EC90E001977B
:1001D000F1F700C000005E9A8FE99FE00197F1F708
:1001E00000C0000008955F988FE99FE00197F1F744
:1001F00000C00000219A229A44980E945D00409815
:100200002A98299887EC90E00197F1F700C0000048
:100210005E9A87EC90E00197F1F700C000005F9ACA
:100220008FE39FE10197F1F700C0000008950F935D
:100230001F93CF93DF93C82F8B01D42F0E945D00B3
:1002400029982AE02A95F1F700C020E030E08C2FB1
:1002500090E04AE04A95F1F700C0AC01022E02C0DE
:10026000559547950A94E2F740FF20C0299A2A9AAB
:100270004AE04A95F1F700C02A982F5F3F4F263099
:10028000310539F785E08A95F1F7000029982AE0D1
:100290002A95F1F700C0D11559F045E34A95F1F7D9
:1002A0000000DF91CF911F910F9108952998DFCF22
:1002B000000F111F80E090E041E050E02AE02A9515
:1002C000F1F700C09A01082E02C0220F331F0A94D2
:1002D000E2F720233123232B79F0299A2A9A2AE066
:1002E0002A95F1F700C02A9801968031910531F7DF
:1002F00045E24A95F1F7D4CF2998F0CF0F931F9399
:10030000CF93DF93D82F162F042FC22F0E945D00AA
:1003100029982AE02A95F1F700C020E030E08D2FDF
:1003200090E04AE04A95F1F700C0AC01022E02C00D
:10033000559547950A94E2F740FF77C0299A2A9A83
:100340004AE04A95F1F700C02A982F5F3F4F2630C8
:10035000310539F78AE18A95F1F700C029982AE03A
:100360002A95F1F700C02A9A4AE04A95F1F700C0B1
:100370002A9880E090E0D0E02AE02A95F1F700C0CA
:10038000AE01082E02C0559547950A94E2F740FF4A
:100390004EC0299A2A9A4AE04A95F1F700C02A9855
:1003A00001968830910541F780E090E0402F50E0C1
:1003B0002AE02A95F1F700C09A01082E02C035956F
:1003C00027950A94E2F720FF34C0299A2A9A2AE056
:1003D0002A95F1F700C02A9801968830910541F7D7
:1003E00080E090E0612F70E04AE04A95F1F700C0AC
:1003F0009B01082E02C0359527950A94E2F720FF4D
:100400001AC0299A2A9A2AE02A95F1F700C02A9858
:1004100001968730910541F74AE14A95F1F700C00E
:10042000DF91CF911F910F910895299888CF299836
:10043000B1CF2998CBCF2998E5CFFF920F931F9387
:10044000CF93DF93D82FF62EC42F122F0E945D007A
:10045000299847E050E08D2F90E02AE02A95F1F7A7
:1004600000C09C01042E02C0359527950A94E2F73E
:1004700020FF7CC0299A2A9A2AE02A95F1F700C029
:100480002A984150510948F74AE04A95F1F700C0CF
:10049000299885E28A95F1F70000F11061C02A9A47
:1004A0002AE02A95F1F700C02A9885E090E0D0E094
:1004B0004AE04A95F1F700C09E01082E02C035952A
:1004C00027950A94E2F720FF53C0299A2A9A2AE036
:1004D0002A95F1F700C02A98019750F787E090E03D
:1004E000212F30E04AE04A95F1F700C0A901082E1B
:1004F00002C0559547950A94E2F740FF3BC0299A00
:100500002A9A4AE04A95F1F700C02A98019750F7D5
:1005100087E090E010E02AE02A95F1F700C098010A
:10052000082E02C0359527950A94E2F720FF24C0D3
:10053000299A2A9A4AE04A95F1F700C02A98019729
:1005400050F74AE04A95F1F700C029982A9A8AE0C4
:100550008A95F1F700C02A982AE22A95F1F700C09F
:10056000DF91CF911F910F91FF900895299883CF2C
:100570002998ACCF2998C4CF2998DBCFCF93DF93AC
:10058000C82F0E945D00299827E030E0D0E04AE0C3
:100590004A95F1F700C0AE01022E02C0559547956D
:1005A0000A94E2F740FF53C0299A2A9A8AE08A9572
:1005B000F1F700C02A982150310948F78AE08A955E
:1005C000F1F700C00E945B004AE24A95F1F700C0D3
:1005D000C7E0D0E08AE18A95F1F700C02A9A4AE1A3
:1005E0004A95F1F700C02A982197A1F780E090E0A2
:1005F00020E030E84AE14A95F1F700C02A9A4AE142
:100600004A95F1F700C02A98199B09C0A901082E44
:1006100002C0569547950A94E2F7C42BD52B019654
:100620008031910539F78AE18A95F1F700C02A9A5D
:100630004AE14A95F1F700C02A9885E28A95F1F7D8
:1006400000000E945D00CE01DF91CF9108952998AE
:10065000ACCFCF93DF93C82F0E945D004AE14A954B
:10066000F1F700C020E030E0D0E08AE08A95F1F7B1
:1006700000C0AE01022E02C0559547950A94E2F7DC
:1006800040FF55C0299A2A9A4AE04A95F1F700C0DE
:100690002A982F5F3F4F2630310539F78AE08A9537
:1006A000F1F700C029984AE04A95F1F700C02A9A6C
:1006B0008AE08A95F1F700C02A9845E24A95F1F759
:1006C00000000E945B0080E090E0C0E0D0E021E00C
:1006D00030E04AE04A95F1F700C02A9A4AE04A958C
:1006E000F1F700C02A98199B09C0A901082E02C081
:1006F000440F551F0A94E2F7C42BD52B01968E3078
:10070000910539F78AE08A95F1F700C00E945D00F3
:1007100029982A9A4AE04A95F1F700C02A9885E27A
:100720008A95F1F70000CE01DF91CF9108952998C5
:10073000AACF0F931F93CF93C82F8B010E945D0008
:10074000299825E32A95F1F7000020E030E08C2F6E
:1007500090E04AE14A95F1F700C0AC01022E02C0D8
:10076000559547950A94E2F740FF3CC0299A2A9A8A
:100770004AE14A95F1F700C02A982F5F3F4F243095
:10078000310539F78AE18A95F1F700C029982AE105
:100790002A95F1F700C080E090E041E050E02AE1C6
:1007A0002A95F1F700C09A01082E02C0220F331FCC
:1007B0000A94E2F720233123232BB1F0299A2A9AB5
:1007C0002AE12A95F1F700C02A9801968031910517
:1007D00031F7299845E34A95F1F70000CF911F9131
:1007E0000F9108952998C3CF2998E9CF0E945D0001
:1007F0002A9829982AE12A95F1F700C083E090E031
:100800002AE12A95F1F700C02A9A2AE12A95F1F700
:1008100000C02A980197A1F78AE18A95F1F700C0F4
:100820002A9A8FE39FE10197F1F700C000002A9810
:100830008FE891E00197F1F700C000000895CF9391
:10084000DF9300D000D0CDB7DEB79A8389837C8355
:100850006B830E945D008AE68A95F1F700C0FE0175
:100860003196AE014B5F5F4F60E070E820E030E012
:1008700085E38A95F1F70000A081B181CB01022EBA
:1008800002C0969587950A94E2F78A239B23892BC9
:10089000D9F0299A2A9A85E38A95F1F700002A98D7
:1008A0002F5F3F4F2031310519F73296E417F507D6
:1008B000E9F68AE68A95F1F700C00F900F900F9045
:1008C0000F90DF91CF9108952998E4CF5E980E9410
:1008D0005D0040982A9829988AE68A95F1F700C029
:1008E0005F9A8AE68A95F1F700C0409A8AE68A956F
:1008F000F1F700C040988AE68A95F1F700C060E5FC
:1009000078E483E49DE40E941F048AE68A95F1F767
:1009100000C0409A089580910303863059F030F466
:10092000823041F0853041F00C94CF008D30E1F7FA
:100930000C9466040C94F3000E94CF0060E578E408
:1009400083E49DE40C941F04CF93DF93D82FC62F2C
:100950000E945D00299825E32A95F1F7000020E028
:1009600030E08D2F90E04AE14A95F1F700C0AC01EC
:10097000022E02C0559547950A94E2F740FF5DC0EC
:10098000299A2A9A4AE14A95F1F700C02A982F5FDE
:100990003F4F2430310539F78AE18A95F1F700C0DD
:1009A00029982AE12A95F1F700C080E090E0D0E094
:1009B0004AE14A95F1F700C09E01082E02C0359524
:1009C00027950A94E2F720FF3AC0299A2A9A2AE149
:1009D0002A95F1F700C02A9801968830910541F7D1
:1009E0000E945B004AE14A95F1F700C080E090E088
:1009F000C0E021E030E04AE14A95F1F700C02A9AD0
:100A00004AE14A95F1F700C02A98199B07C0A9014D
:100A1000082E01C0440F0A94EAF7C42B01968830CF
:100A2000910549F70E945D00299885E38A95F1F7C1
:100A300000008C2FDF91CF9108952998A2CF29989B
:100A4000C5CFCF93DF93D62FC42F682F70E07E6081
:100A500080E00E94990368EF7EE680E00E9499039F
:100A60006D2F70E07E6080E00E94990367EF7EE664
:100A700080E00E9499036C2F70E07E6080E00E940D
:100A8000990366EF7EE680E0DF91CF910C949903A5
:100A90005E985F9840982A9829988FE193E0019793
:100AA000F1F700C00000089540985F9840982A9898
:100AB00029988FE193E00197F1F700C000000895B5
:100AC000809103038D3081F40E945405219822986F
:100AD0002FEF81EE94E0215080409040E1F700C07C
:100AE0000000449A5F9A08950E944805EFCF0F9343
:100AF0001F93CF93DF930E948B0440E060E070E08F
:100B000080E00E94170106E010E041E060E070E044
:100B100086E00E94170101501040B9F784E00E945E
:100B20002903EC010E9460058EEF80935B0182E057
:100B300080935C0180EA80935D01DC27CD27DC2770
:100B4000D0935F01C0935E0165E08BE591E0DF919A
:100B5000CF911F910F910C9419190F93CF93DF939D
:100B60000E948B0480910303823139F406E020E86F
:100B700040E060E080E80E941D0280910303833121
:100B800039F40EEF2FEF4FE360E080E80E941D0282
:100B90008CEF0E94BE02EC010E9460058EEF8093F4
:100BA0005B0182E080935C0180EA80935D01DC2739
:100BB000CD27DC27D0935F01C0935E0165E08BE514
:100BC00091E0DF91CF910F910C941919CF93DF939E
:100BD0000E948B044EEF6FEF8FE30E94210560E0CF
:100BE00089E00E94A404CBE5D1E08C834FEF6FEF46
:100BF0008FE30E94210560E089E00E94A4048B83BA
:100C00000E9460058FE19EE40197F1F700C00000AB
:100C10008EEF888382E0898380EA8A8365E0CE0153
:100C2000DF91CF910C941919EF92FF920F931F93BC
:100C3000CF93DF93CDB7DEB72E970FB6F894DEBF14
:100C40000FBECDBF0E948B0440E060E070E080E00A
:100C50000E94170107E010E041E060E070E086E0EC
:100C60000E94170101501040B9F7CE0101967C0196
:100C700000E010E080910003081711050CF45BC040
:100C80000E9460058EEF80935B018EE080935C0193
:100C900083EA80935D0189819A8198278927982723
:100CA00090935F0180935E018B819C8198278927B7
:100CB000982790936101809360018D819E81982790
:100CC0008927982790936301809362018F8198858B
:100CD00098278927982790936501809364018985D7
:100CE0009A859827892798279093670180936601B2
:100CF0008B859C85982789279827909369018093F5
:100D000068018D859E8598278927982790936B0188
:100D100080936A0161E18BE591E02E960FB6F8941D
:100D2000DEBF0FBECDBFDF91CF911F910F91FF901E
:100D3000EF900C94191984E00E942903F701819324
:100D400091937F0141E060E070E086E00E9417012E
:100D50000F5F1F4F8FCFCF92DF92EF92FF920F93D3
:100D6000CF93DF93CDB7DEB72E970FB6F894DEBFE3
:100D70000FBECDBF0E948B0480910303823139F4F2
:100D800007E020E840E060E080E80E941D028091DA
:100D90000303833139F400E020E040E360E080E8C1
:100DA0000E941D02CE0101966C01E12CF12C809174
:100DB0000003E816F1040CF45CC00E9460058EEF9D
:100DC00080935B018EE080935C0183EA80935D01F8
:100DD00089819A8198278927982790935F0180932A
:100DE0005E018B819C8198278927982790936101C8
:100DF000809360018D819E81982789279827909301
:100E00006301809362018F819885982789279827AD
:100E1000909365018093640189859A859827892735
:100E2000982790936701809366018B859C8598270E
:100E30008927982790936901809368018D859E8505
:100E400098278927982790936B0180936A0161E125
:100E50008BE591E02E960FB6F894DEBF0FBECDBFA6
:100E6000DF91CF910F91FF90EF90DF90CF900C9496
:100E700019198CEF0E94BE02F601819391936F01C4
:100E800000E020E040E061E088EF0E941D02FFEFFB
:100E9000EF1AFF0A8CCFCF93DF930E948B0484E07C
:100EA0000E942903EC010E946005EBE5F1E08EEF62
:100EB000808382E0818383EA8283DC27CD27DC275D
:100EC000D483C38365E0CF01DF91CF910C941919CE
:100ED0000F931F93CF938EEF80935B018EE08093EF
:100EE0005C0183EA80935D010BE511E0C0E00E94A4
:100EF0008B044C2F60E080E30E94210560E088E0D5
:100F00000E94A404F801848341E04C0F60E080E378
:100F10000E94210560E088E00E94A404F801838318
:100F20000E9460058FE19EE40197F1F700C0000088
:100F3000CE5F0E5F1F4FCE30D1F661E18BE591E0C1
:100F4000CF911F910F910C941919CF93DF930E94A9
:100F50008B0440E060E070E080E00E941701C7E091
:100F6000D0E041E060E070E086E00E941701219748
:100F7000C1F7609162027091630240E082E00E94DA
:100F800017018091030341E060E070E08431C9F40F
:100F900088E10E9417018FE19EE40197F1F700C0FC
:100FA000000041E060E070E08EE00E9417018FE1F8
:100FB0009EE40197F1F700C00000DF91CF910C94FF
:100FC000600588E0E6CFEF92FF920F93CF93DF9317
:100FD0000E948B0480910303823139F407E020E8FA
:100FE00040E060E080E80E941D02809103038331AD
:100FF00039F400E020E040E360E080E80E941D0258
:10100000CEE5D2E0E12CF12C8091000390E0880F36
:10101000991FE816F9063CF0DF91CF910F91FF90F0
:10102000EF900C94600580910303823171F40C8180
:101030002D8140E060E080E00E941D0200E020E0A1
:1010400040E061E080EE0E941D0280910303833145
:1010500039F40C812D8140E060E080EC0E941D029B
:101060002FEF86E791E0215080409040E1F700C0EB
:10107000000000E020E040E061E088EF0E941D02F7
:1010800022E0E20EF11C2296BFCF0E948B046091F9
:1010900062027091630240E082E00E94170141E029
:1010A00060E070E088E00E9417018FE19EE4019704
:1010B000F1F700C0000041E060E070E08EE00E94C7
:1010C00017018FE891E00197F1F700C000000C9440
:1010D00060050F931F93CF93DF930E948B0440E032
:1010E00060E070E080E00E941701C7E0D0E041E0DE
:1010F00060E070E086E00E9417012197C1F7CEE51D
:10110000D2E000E010E022968091000390E0880F8A
:10111000991F0817190734F0DF91CF911F910F9194
:101120000C9460058B816A81782F40E082E00E94F8
:10113000170141E060E070E088E00E9417018FE154
:101140009EE40197F1F700C0000041E060E070E02C
:1011500086E00E9417010E5F1F4FD5CFCF93DF931C
:101160000E948B0440E060E070E080E00E94170184
:10117000C7E0D0E041E060E070E086E00E94170147
:101180002197C1F7609162027091630240E082E0B2
:101190000E94170141E060E070E088E10E941701C1
:1011A0008FE19EE40197F1F700C00000DF91CF913D
:1011B0000C946005EF92FF920F931F93CF9302E67A
:1011C00012E0C0E0EE24E394FE2C0E948B044C2F2E
:1011D00060E080E30E942105F80181918F018E9DDE
:1011E000B0018F9D700D11248FE00E9499030E9421
:1011F000F60360E070E080E00E94990360E070E038
:1012000080E00E949903FFEF20E782E0F150204048
:101210008040E1F700C000000E9460059FEFE0E71A
:10122000F2E09150E040F040E1F700C00000CF5FF5
:10123000CE3059F6CF911F910F91FF90EF90089506
:10124000EF92FF920F931F93CF9302E612E0C0E05C
:10125000EE24E394FE2C0E948B046FE77EE880E08E
:101260000E9499036FE77CE980E00E9499034C2F6C
:1012700060E080E30E942105F80181918F018E9D3D
:10128000B0018F9D700D11248FE00E9499030E9480
:10129000F60360E070E080E00E94990360E070E097
:1012A00080E00E949903FFEF20E782E0F1502040A8
:1012B0008040E1F700C000000E9460059FEFE0E77A
:1012C000F2E09150E040F040E1F700C00000CF5F55
:1012D000CE3009F6CF911F910F91FF90EF900895B6
:1012E000BF92CF92DF92EF92FF920F931F93CF9313
:1012F000DF930E948B04809103038950843030F483
:1013000041E060E070E086E00E941701C12CD12C22
:1013100076011EEF00E881EAB82E809108039091D3
:101320000903A0910A03B0910B03C816D906EA0677
:10133000FB0658F0DF91CF911F910F91FF90EF9036
:10134000DF90CF90BF900C946005CBE5D1E084E0B6
:101350000E9429039B838C8341E060E070E086E07B
:101360000E941701229681E0CB3DD80781F71093A8
:101370005B0100935C01B0925D0163E88BE591E055
:101380000E94191980915A018115E1F310925A01B6
:1013900080E8C80ED11CE11CF11CBFCFBF92CF92D8
:1013A000DF92EF92FF920F931F93CF93DF930E94F0
:1013B0008B04C12CD12C76011EEF00E831EAB32E4C
:1013C0008091080390910903A0910A03B0910B0347
:1013D000C816D906EA06FB0620F10E9460050E94A5
:1013E0008B0420E040EF60E08DE10E947E01C0E0D0
:1013F000D0E08EEFF82E90E4E92E29EAD22E8091EB
:10140000040390910503C817D90770F1DF91CF91BC
:101410001F910F91FF90EF90DF90CF90BF900C94B1
:101420006005CBE5D1E084E20E9429039B838C8395
:10143000229681E0CB3DD807B1F710935B01009372
:101440005C01B0925D0163E88BE591E00E9419199F
:1014500080915A018115E1F310925A01E0E8CE0E15
:10146000D11CE11CF11CACCF0EE511E084E20E941E
:101470002903F80181938F01F1E00E391F07B1F7BD
:10148000F0925B01E0925C01D0925D0163E48BE538
:1014900091E00E94191980915A018115E1F310928F
:1014A0005A01C05CDF4FABCFCF92DF92EF92FF9239
:1014B0000F931F93CF93DF930E948B04C12CD12CE9
:1014C000760110E801EA8091080390910903A09148
:1014D0000A03B0910B03C816D906EA06FB0688F189
:1014E0000E9460050E948B0480910303823139F4CD
:1014F00000E020EF40E060E080E80E941D02809163
:101500000303833139F400E020E041E360E080E848
:101510000E941D02C0E0D0E080E4F82E99EAE92E96
:101520008091040390910503C817D90770F1DF91EA
:10153000CF911F910F91FF90EF90DF90CF900C947F
:101540006005CBE5D1E08EEF0E94BE029B838C83C9
:10155000229681E0CB3DD807B1F78EEF80935B01F7
:1015600010935C0100935D0163E88BE591E00E94BC
:10157000191980915A018115E1F310925A01E0E89E
:10158000CE0ED11CE11CF11C9ECF0EE511E08EEFBA
:101590000E94BE02F80181938F01F1E00E391F070E
:1015A000B1F78EEF80935B01F0925C01E0925D01F8
:1015B00063E48BE591E00E94191980915A0181152D
:1015C000E1F310925A01C05CDF4FAACFBF92CF92D5
:1015D000DF92EF92FF920F931F93CF93DF930E94BE
:1015E0008B04C12CD12C76011EEF00E831EAB32E1A
:1015F0008091080390910903A0910A03B0910B0315
:10160000C816D906EA06FB0638F10E9460059FEF6E
:10161000E0E7F2E09150E040F040E1F700C0000068
:101620000E948B04C0E0D0E08EEFF82E90E4E92E0B
:1016300029EAD22E8091040390910503C817D90797
:10164000A0F1DF91CF911F910F91FF90EF90DF906C
:10165000CF90BF900C946005CBE5D1E084E00E9470
:1016600029039B838C8341E060E070E086E00E9468
:101670001701229621E0CB3DD20781F710935B0141
:1016800000935C01B0925D0163E88BE591E00E94FC
:10169000191980915A018115E1F310925A0180E8DD
:1016A000C80ED11CE11CF11CA3CF0EE511E085E0B2
:1016B0000E942903F80181938F0141E060E070E00E
:1016C00086E00E941701F1E00E391F0781F7F092C2
:1016D0005B01E0925C01D0925D0163E48BE591E0F7
:1016E0000E94191980915A018115E1F310925A0153
:1016F000C05CDF4F9FCFBF92CF92DF92EF92FF92FD
:101700000F931F93CF93DF930E948B0440E060E020
:1017100080E00E942105C12CD12C76011EEF00E84B
:1017200051EAB52E8091080390910903A0910A0314
:10173000B0910B03C816D906EA06FB0680F10E9499
:1017400060058091040390910503892B09F4A3C0DF
:101750000E948B0466EA7EE980E00E94990366EAB3
:101760007CE980E00E949903C0E0D0E02EEFD22E09
:1017700030E4C32E49EAB42E8E0180910403909187
:101780000503C817D90798F1DF91CF911F910F91E9
:10179000FF90EF90DF90CF90BF900C946005CBE569
:1017A000D1E060E089E00E94A4048C8360E089E0DD
:1017B0000E94A4048B83229681E0CB3DD80789F751
:1017C00010935B0100935C01B0925D0163E88BE5CF
:1017D00091E00E94191980915A018115E1F310924C
:1017E0005A01E0E8CE0ED11CE11CF11C9BCF9EE516
:1017F000E92E91E0F92EB80177277E6080E00E9403
:10180000990369EA7EE680E00E949903612F7727B9
:101810007E6080E00E9499036AEA7EE680E00E9492
:10182000990366EA70E880E00E94990368EA70E52F
:1018300080E00E94990365EF7EE680E00E949903B4
:1018400060E070E080E00E94990360E082E00E9426
:10185000A40460E082E00E94A404F70181937F0168
:101860000F5F1F4FFEE9EF16F1E0FF0621F6D09261
:101870005B01C0925C01B0925D0163E48BE591E095
:101880000E94191980915A018115E1F310925A01B1
:10189000C05CDF4F71CFDF91CF911F910F91FF900F
:1018A000EF90DF90CF90BF900895BF92CF92DF92DC
:1018B000EF92FF920F931F93CF93DF930E948B04BD
:1018C00040E060E080E00E942105C12CD12C76012F
:1018D0001EEF00E851EAB52E8091080390910903AC
:1018E000A0910A03B0910B03C816D906EA06FB06BD
:1018F000C8F00E946005EFE3FCE93197F1F700C002
:1019000000008091040390910503892B09F09EC08B
:10191000DF91CF911F910F91FF90EF90DF90CF90CB
:10192000BF900895CBE5D1E060E089E00E94A40477
:101930008C8360E089E00E94A4048B83229681E07E
:10194000CB3DD80789F710935B0100935C01B092FF
:101950005D0163E88BE591E00E94191980915A01BD
:101960008115E1F310925A0190E8C90ED11CE11CD7
:10197000F11CB2CF4EE5E42E41E0F42E0E948B0420
:101980006FE77EE980E00E9499036FE77CE980E0E1
:101990000E949903B80177277E6080E00E94990336
:1019A00064E77EE680E00E949903612F77277E60DE
:1019B00080E00E94990365E77EE680E00E9499033B
:1019C0006FE770E880E00E94990363E770E580E0CC
:1019D0000E94990365EF7EE680E00E94990360E033
:1019E00070E080E00E94990360E082E00E94A4041D
:1019F000F70181937F0160E082E00E94A4040E94CD
:101A000060050F5F1F4FFEE9EF16F1E0FF0609F0DA
:101A1000B5CFD0925B01C0925C01B0925D0163E4EE
:101A20008BE591E00E94191980915A018115E1F32B
:101A300010925A01C05CDF4F8E0180910403909197
:101A40000503C817D90708F495CF62CFC0E0D0E0EE
:101A50008EEFD82E90E4C92E29EAB22EEDCF0E9447
:101A60008B04809103038E3031F420E048EE60E077
:101A70008DE10E947E0141E060E070E089E00E941B
:101A800017012FEF83EC99E0215080409040E1F75F
:101A900000C000000C9460050F930E948B0480919D
:101AA0000303823139F400E020E840E060E080E8A0
:101AB0000E941D0280910303833139F400E020E08D
:101AC00040E260E080E80E941D0200E020E040E08B
:101AD00061E088E10E941D022FEF80E792E0215033
:101AE00080409040E1F700C000000E9460058091B6
:101AF00003038331E1F40E948B0401E020E041E321
:101B000060E080E80E941D0200E020E040E061E02B
:101B100088E10E941D022FEF80E792E02150804073
:101B20009040E1F700C000000F910C9460050F9108
:101B300008950F931F93CF93DF93E0910303EA502F
:101B4000C0E0D0E0E33038F4F0E0EE0FFF1FEC5AD5
:101B5000FE4FC081D1810E948B04809103038A5083
:101B600000E010E0833008F487C00E9460050E9406
:101B70008B0441E060E070E086E00E94170141E0E4
:101B800060E070E089E00E9417012FEF83EC99E09C
:101B9000215080409040E1F700C000000E946005A5
:101BA0008FE19EE40197F1F700C0000080910303EC
:101BB0008A50833008F086C00E948B0400E010E059
:101BC0000C171D0709F075C06091F6027091F702BD
:101BD00040E082E00E94170141E060E070E088E0B0
:101BE0000E9417018FE19EE40197F1F700C0000009
:101BF00041E060E070E08EE00E9417018FE891E024
:101C00000197F1F700C00000C5E0D0E041E060E0DE
:101C100070E086E00E9417012197C1F76091F402FD
:101C20007091F50240E082E00E94170141E060E01F
:101C300070E088E00E9417018FE19EE40197F1F7C0
:101C400000C0000041E060E070E08EE00E941701FB
:101C50008FE891E00197F1F700C00000DF91CF918C
:101C60001F910F910C94600541E060E070E086E008
:101C70000E9417010F5F1F4F0C171D07A9F784E083
:101C80000E9429039093F7028093F60205E010E08A
:101C900041E060E070E086E00E94170101501040D2
:101CA000B9F784E00E9429039093F5028093F4022F
:101CB0005CCF41E060E070E086E00E9417010F5FBA
:101CC0001F4F7ECFDF91CF911F910F9108950E94FA
:101CD0008B0440E060E070E080E00E9417012FEF8D
:101CE00080E792E0215080409040E1F700C0000082
:101CF00040E06FEF7FE382E00E9417012FEF80E763
:101D000092E0215080409040E1F700C0000041E0A7
:101D100060E070E089E00E9417012FEF83EC99E00A
:101D2000215080409040E1F700C000000E94600513
:101D30002FEF83EC99E0215080409040E1F700C004
:101D400000000E948B042FEF80E792E0215080403A
:101D50009040E1F700C0000041E060E070E08BE0FF
:101D60000E9417012FEF83EC99E0215080409040B2
:101D7000E1F700C000000C9460050E948B0440E075
:101D800060E070E080E00E94170141E060E070E0F8
:101D90008FE10E9417012FEF83EC99E021508040E2
:101DA0009040E1F700C000000C946005CF93DF93F2
:101DB0000E948B0440E06FEF7FE380E00E941701F8
:101DC000C7E0D0E041E060E070E086E00E941701EB
:101DD0002197C1F741E060E070E081E00E941701C7
:101DE00041E060E070E087E00E94170141E060E0C0
:101DF00070E088E00E9417018FE79BEB0197F1F7F5
:101E000000C0000041E060E070E081E00E94170146
:101E100041E060E070E087E00E9417010E946005E9
:101E20009FEF20E782E0915020408040E1F700C022
:101E30000000DF91CF9108950F931F93CF93DF930D
:101E40000E948B0440E06FEF7FE382E00E94170165
:101E5000C0E0D0E041E060E070E081E00E94170166
:101E600041E060E070E087E00E94170141E060E03F
:101E700070E088E00E9417018FE39CE90197F1F779
:101E800000C0000041E060E070E081E00E941701C6
:101E900041E060E070E087E00E9417018FED9EE274
:101EA0000197F1F700C000000E9460052196C33041
:101EB000D105F1F00E948B04C130D10539F440E026
:101EC0006FEF7FE383E00E941701C4CF40E060E042
:101ED00070E080E00E94170107E010E041E060E060
:101EE00070E086E00E94170101501040B9F7B2CFB0
:101EF000DF91CF911F910F9108950F931F93CF936F
:101F0000DF93809103038350C0E0D0E000E010E055
:101F10008E3068F490E0880F991FFC01E85CFE4F5A
:101F200000811181845E9E4FFC01C081D1810E949D
:101F30008B0445E060E08CE30E942105B8018CE051
:101F40000E94990344E060E08CE30E942105BE01F9
:101F50008CE00E9499030E94F60360E070E080E04C
:101F60000E94990360E070E080E00E949903FFEF17
:101F700020E782E0F15020408040E1F700C00000FF
:101F8000DF91CF911F910F910C946005CF92DF925A
:101F9000EF92FF920F931F93CF93DF93CDB7DEB7EE
:101FA0006C970FB6F894DEBF0FBECDBF8EE0E0E0B9
:101FB000F1E0DE011F9601900D928A95E1F78EE027
:101FC000EEE0F1E0DE01119601900D928A95E1F7C5
:101FD0007E012FE0E20EF11C8E010F5F1F4F6E019C
:101FE0008DE1C80ED11C0E948B0444E060E08CE3BC
:101FF0000E942105F701619171917F018CE00E949F
:10200000990345E060E08CE30E942105F8016191AD
:1020100071918F018CE00E94990346E060E08CE3AF
:102020000E94210560E870E88CE00E9499030E94FC
:10203000F60360E070E080E00E94990360E070E0E9
:1020400080E00E949903FFEF20E782E0F1502040FA
:102050008040E1F700C000000E946005EFE1FEE46F
:102060003197F1F700C00000EC14FD0409F0BBCF7C
:102070006C960FB6F894DEBF0FBECDBFDF91CF9147
:102080001F910F91FF90EF90DF90CF900895EF9206
:10209000FF920F931F93CF93DF9380910303895097
:1020A0000FEF1FE0843010F00FEF1FE3CEE5D2E01A
:1020B0008EEDE82E82E0F82E8D816C81782F6017EE
:1020C000710789F441E060E070E086E00E9417014A
:1020D0002296EC16FD0681F7DF91CF911F910F91AB
:1020E000FF90EF90089540E082E00E9417018091F8
:1020F000030341E060E070E08431B1F488E10E94C4
:1021000017018091FE029091FF020E94B30041E00E
:1021100060E070E08EE00E9417018FE891E0019787
:10212000F1F700C00000CECF88E0E9CF0F931F93F6
:10213000CF93DF93CEE5D2E00EED12E08D816C817E
:10214000782F6F3F8FE3780779F441E060E070E02B
:1021500086E00E94170122960C171D0779F7DF9180
:10216000CF911F910F91089540E082E00E941701E6
:1021700041E060E070E088E00E9417018091FE027B
:102180009091FF020E94B300E0CF0F931F93CF9373
:10219000DF93CEE5D2E00EED12E08D816C81782FD9
:1021A0006F3F8FE3780779F441E060E070E086E00C
:1021B0000E94170122960C171D0779F7DF91CF9126
:1021C0001F910F91089540E082E00E94170141E0C5
:1021D00060E070E088E10E9417018091FE0290911A
:1021E000FF020E94B30041E060E070E087E10E94DE
:1021F0001701DACF0F931F93CF93DF93CEE5D2E091
:102200000EED12E08D816C81782F6F3F2FE3720706
:1022100079F441E060E070E086E00E9417012296C8
:102220000C171D0779F7DF91CF911F910F9108953A
:102230008091FA029091FB02A091FC02B091FD0204
:102240008F3F9340A105B10521F46091F802709190
:10225000F90240E082E00E94170141E060E070E096
:1022600088E00E9417018091FE029091FF020E9477
:10227000B30041E060E070E086E00E9417018091C9
:10228000FA029091FB02A091FC02B091FD0201962E
:10229000A11DB11D8093FA029093FB02A093FC0252
:1022A000B093FD02BCCF0F931F93CF93DF93CEE586
:1022B000D2E00EED12E08D816C81782F6F3F8FE3BD
:1022C000780799F441E060E070E086E00E94170131
:1022D0008AE68A95F1F700C022960C171D0759F778
:1022E000DF91CF911F910F91089540E082E00E940D
:1022F00017018AE68A95F1F700C041E060E070E0DE
:1023000088E00E9417018091FE029091FF020E94D6
:10231000B30041E060E070E086E00E941701DCCF8E
:10232000CF92DF92EF92FF920F931F93CF93DF93A1
:10233000C0E0D0E08091060390910703FE01E25ACD
:10234000FD4F7F0120E030E040E050E00BC06481B1
:102350006F3F29F465816F3311F44E5F5F4F2E5F3D
:102360003F4F32962817390790F30091FA021091E7
:10237000FB022091FC023091FD0284179507E9F4DD
:10238000AC0156954795040F151F211D311D009373
:10239000FA021093FB022093FC023093FD02C80F57
:1023A000D91FC038D10534F2DF91CF911F910F9121
:1023B000FF90EF90DF90CF900895BB27A32F922F2F
:1023C000812F492F5527282F60E080E80E941D02A9
:1023D000C12CD12C8091060390910703C816D90611
:1023E000E8F000E020E040E061E080EE0E941D02A5
:1023F0008091FE029091FF020E94B300809106033B
:1024000090910703AC01569547950091FA021091FF
:10241000FB022091FC023091FD02B5CFF70104814F
:10242000258140E060E080E00E941D02809106036B
:10243000909107030297C816D90638F400E020E00F
:1024400040E061E088EF0E941D02F2E0CF0ED11C57
:1024500022E0E20EF11CBECFEF92FF920F93CF93DA
:10246000DF93CEE5D2E08EEDE82E82E0F82E0C81EF
:102470002D81922F802F019689F400E020E040E02A
:1024800061E088EF0E941D022296EC16FD0679F7A6
:10249000DF91CF910F91FF90EF90089540E060E0C1
:1024A00080EE0E941D028091FE029091FF020E9428
:1024B000B300EACFEF92FF920F931F93CF93DF9376
:1024C00000E010E04091060350910703E801C25A72
:1024D000DD4FFE0120E030E080E090E00AC0648142
:1024E0006F3F21F465816F3F09F402962E5F3F4FE5
:1024F00032962417350798F34817590721F580912C
:10250000FA029091FB02A091FC02B091FD02840FAF
:10251000951FA11DB11D8093FA029093FB02A09319
:10252000FC02B093FD028091060390910703080F0F
:10253000191F0038110534F2DF91CF911F910F91CF
:10254000FF90EF9008950E948B0466EA7EE880E099
:102550000E94990366EA7CE980E00E9499038091D9
:102560000303803129F466EA74E880E00E9499034D
:102570004091FA025091FB026091FC027091FD02C1
:10258000BB27A72F962F852F682F892F0E94210503
:10259000E12CF12C8091060390910703E816F906CF
:1025A00068F10E94F60360E070E080E00E94990309
:1025B00060E070E080E00E94990320910603309172
:1025C00007038091FA029091FB02A091FC02B09166
:1025D000FD02820F931FA11DB11D8093FA029093FB
:1025E000FB02A093FC02B093FD020E9460058FE302
:1025F0009FE10197F1F700C0000095CF2D816C811C
:10260000722F0297E816F90640F08FE00E949903B6
:1026100082E0E80EF11C2296BDCF8DE0F7CFEF925D
:10262000FF920F931F93CF93DF9300E010E0409150
:10263000060350910703E801C25ADD4FFE0120E076
:1026400030E080E090E00AC064816F3F21F4658152
:102650006F3F09F402962E5F3F4F329624173507DD
:1026600098F34817590721F58091FA029091FB02DF
:10267000A091FC02B091FD02840F951FA11DB11D18
:102680008093FA029093FB02A093FC02B093FD02A8
:102690008091060390910703080F191F0038110558
:1026A00034F2DF91CF911F910F91FF90EF90089539
:1026B0000E948B046FE77EE880E00E9499036FE739
:1026C0007CE980E00E9499036FE774E880E00E9453
:1026D00099034091FA025091FB026091FC027091C3
:1026E000FD02BB27A72F962F852F682F892F0E94C9
:1026F0002105E12CF12C8091060390910703E81647
:10270000F90668F10E94F60360E070E080E00E9444
:10271000990360E070E080E00E9499032091060335
:10272000309107038091FA029091FB02A091FC0284
:10273000B091FD02820F931FA11DB11D8093FA027B
:102740009093FB02A093FC02B093FD020E946005EF
:102750008FE39FE10197F1F700C0000099CF2D8131
:102760006C81722F0297E816F90640F08FE00E9404
:10277000990382E0E80EF11C2296BDCF8DE0F7CFE1
:10278000CF93DF93C2E6D2E069916F3F69F441E0F5
:1027900060E070E086E00E94170182E0C23AD8074C
:1027A00099F7DF91CF91089570E040E083E00E94B7
:1027B000170141E060E070E088E00E94170180911D
:1027C000FE029091FF0205960E94B300E0CFCF93E6
:1027D000DF93C2E6D2E069916F3F69F441E060E0C7
:1027E00070E086E00E94170182E0C23AD80799F7AC
:1027F000DF91CF91089570E040E083E00E941701DF
:1028000041E060E070E082E10E9417018091FE02E9
:102810009091FF0205960E94B30041E060E070E0F5
:1028200081E10E941701DACFCF93DF93C2E6D2E0B5
:1028300069916F3F69F441E060E070E086E00E94DA
:10284000170182E0C23AD80799F7DF91CF91089536
:1028500070E040E082E00E94170141E060E070E03B
:1028600088E00E9417018091FE029091FF0202967B
:102870000E94B300E0CF0F93CF93DF93C2E6D2E084
:102880008CEF0E94BE02099108130FC000E020E007
:1028900040E061E088EF0E941D0282E0C23AD80762
:1028A00079F7DF91CF910F910895809103038231E1
:1028B000D1F420E040E060E080E00E941D0200E0F2
:1028C00020E040E061E080EC0E941D028091FE0269
:1028D0009091FF0202960E94B30020E040E061E088
:1028E00088EF0E941D02809103038331B1F6FE013F
:1028F000029120E040E060E080EC0E941D028091A7
:10290000FE029091FF0203960E94B300BFCF8F9208
:102910009F92AF92BF92CF92DF92EF92FF920F936E
:102920001F93CF930E948B0466EA7EE980E00E94A9
:10293000990366EA7CE980E00E94990302E612E0CE
:10294000C12CD12C7601F80181918F018F3F09F4C0
:1029500060C08090FA029090FB02A090FC02B090C0
:10296000FD02682D6C0D70E07E6080E00E9499038E
:1029700069EA7EE680E00E9499038C0C9D1CAE1CE7
:10298000BF1C692D70E07E6080E00E9499036AEAB6
:102990007EE680E00E949903F801629170E07E601B
:1029A00080E00E94990368EA7EE680E00E94990335
:1029B00066EA74E880E00E94990366EA72E880E0C3
:1029C0000E94990366EA70E580E00E94990365EF32
:1029D0007EE680E00E94990360E070E080E00E9463
:1029E000990360E082E00E94A404C82F60E082E0C6
:1029F0000E94A404C82BC11529F32A988FE19EE4F4
:102A00000197F1F700C0000066EA74E980E00E94D7
:102A100099039FEFC91AD90AE90AF90AE0E4CE1628
:102A2000D104E104F10409F08ECF8091FA02909173
:102A3000FB02A091FC02B091FD02805C9F4FAF4F62
:102A4000BF4F8093FA029093FB02A093FC02B093D5
:102A5000FD02CF911F910F91FF90EF90DF90CF90EB
:102A6000BF90AF909F908F900C9460058F929F9233
:102A7000AF92BF92CF92DF92EF92FF920F931F938C
:102A8000CF930E948B046FE77EE980E00E94990358
:102A90006FE77CE980E00E94990302E612E0C12C16
:102AA000D12C7601F80181918F018F3F09F460C02C
:102AB0008090FA029090FB02A090FC02B090FD0280
:102AC000682D6C0D70E07E6080E00E94990364E7E1
:102AD0007EE680E00E9499038C0C9D1CAE1CBF1CFE
:102AE000692D70E07E6080E00E94990365E77EE6D4
:102AF00080E00E949903F801629170E07E6080E0BE
:102B00000E94990363E77EE680E00E9499036FE7E5
:102B100074E880E00E9499036FE772E880E00E9409
:102B200099036FE770E580E00E94990365EF7EE608
:102B300080E00E94990360E070E080E00E949903C9
:102B400060E082E00E94A404C82F60E082E00E945E
:102B5000A404C82BC11529F32A988FE19EE401979C
:102B6000F1F700C000006FE774E980E00E9499036C
:102B70009FEFC91AD90AE90AF90AE0E4CE16D1048E
:102B8000E104F10409F08ECF8091FA029091FB02EA
:102B9000A091FC02B091FD02805C9F4FAF4FBF4FF0
:102BA0008093FA029093FB02A093FC02B093FD0283
:102BB000CF911F910F91FF90EF90DF90CF90BF903A
:102BC000AF909F908F900C9460050F931F93CF93BD
:102BD000DF930E948B040FEF13E041E060E070E0B0
:102BE00086E00E94170101501040B9F784E00E946E
:102BF0002903EC010E9460058EEF80935B0182E067
:102C000080935C018BEA80935D01DC27CD27DC2774
:102C1000D0935F01C0935E0165E08BE591E0DF91A9
:102C2000CF911F910F910C941919CF93DF930E94AC
:102C30008B04809103038E3009F05AC020E040EEEF
:102C400060E08DE10E947E0184E00E942903909360
:102C5000F9028093F80241E060E070E086E00E94B3
:102C6000170184E00E9429039093F7028093F602F3
:102C700041E060E070E086E00E94170184E00E947D
:102C800029039093F5028093F4020E9460058EEF71
:102C900080935B0186E080935C018BEA80935D0109
:102CA0008091F8029091F9029827892798279093AC
:102CB0005F0180935E018091F6029091F702982760
:102CC0008927982790936101809360018091F40295
:102CD0009091F50298278927982790936301809314
:102CE000620169E08BE591E0DF91CF910C941919B5
:102CF00040E060E070E080E00E941701C0E0D0E0BA
:102D000080910203C817D1050CF09ECF41E060E02E
:102D100070E086E00E9417012196F2CF0F931F9377
:102D2000CF93DF93E0910303EA5000E010E0E3303B
:102D300038F4F0E0EE0FFF1FEC5AFE4F00811181D6
:102D40000E948B04C0E0D0E0C017D10731F584E0C9
:102D50000E9429039093F9028093F8020E94600573
:102D60008EEF80935B0182E080935C018BEA80931D
:102D70005D018091F8029091F902982789279827A0
:102D800090935F0180935E0165E08BE591E0DF91B8
:102D9000CF911F910F910C94191941E060E070E000
:102DA00086E00E9417012196CFCF0F931F93CF93F8
:102DB000DF9380916202909163029093F902809375
:102DC000F802E0910303EA5000E010E0E33038F449
:102DD000F0E0EE0FFF1FEC5AFE4F008111810E94C0
:102DE0008B04C0E0D0E00C171D0731F56091F802AC
:102DF0007091F90240E082E00E94170141E060E03A
:102E000070E088E00E9417018FE19EE40197F1F7DE
:102E100000C0000041E060E070E08EE00E94170119
:102E20008FE891E00197F1F700C00000DF91CF91AA
:102E30001F910F910C94600541E060E070E086E026
:102E40000E9417012196CFCF0F931F93CF93DF934B
:102E50000E948B0440E060E070E080E00E94170177
:102E6000C0E0D0E080910203C817D10584F0CEE520
:102E7000D2E000E010E022968091010308171105CE
:102E800074F0DF91CF911F910F910C94600541E098
:102E900060E070E086E00E9417012196E3CF8B810D
:102EA0006A81782F40E082E00E94170141E060E0F3
:102EB00070E088E00E9417018FE19EE40197F1F72E
:102EC00000C0000041E060E070E086E00E94170171
:102ED0000F5F1F4FD0CFCF93DF930E948B04CFEFB4
:102EE000D3E041E060E070E086E00E9417012197A6
:102EF000C1F784E00E9429039093F9028093F802BD
:102F00000E9460058FE19EE40197F1F700C0000088
:102F10000E94F30040E060E070E280E00E94170150
:102F2000C7E0D0E041E060E070E086E00E94170179
:102F30002197C1F784E00E9429039093F7028093C0
:102F4000F6020E9460058091F6029091F7028827B0
:102F500090739093F7028093F6028FE19EE40197BD
:102F6000F1F700C00000DF91CF9108950F931F93F8
:102F7000CF93DF93C0916202D09163020E946B17DE
:102F8000DF708091F6029091F702C82BD92B0E9436
:102F90008B0440E060E070E280E00E94170107E0EF
:102FA00010E041E060E070E086E00E94170101500F
:102FB0001040B9F740E0BE0182E00E94170141E0F5
:102FC00060E070E088E00E9417018FE59AEE0197BB
:102FD000F1F700C0000041E060E070E08AE00E948C
:102FE0001701DF91CF911F910F910C946005CF9342
:102FF000DF930E948B0440E060E070E280E00E947A
:103000001701C7E0D0E041E060E070E086E00E9498
:1030100017012197C1F784E00E9429039093F502DC
:103020008093F4020E9460058091F4029091F50271
:103030009F702091F6023091F702822B932B909390
:10304000F5028093F4020E948B0440E060E070E29D
:1030500080E00E941701C7E0D0E041E060E070E04E
:1030600086E00E9417012197C1F76091F4027091E8
:10307000F50240E082E00E94170141E060E070E06C
:1030800088E00E9417018FE19EE40197F1F700C0EC
:10309000000041E060E070E08AE00E9417010E94B9
:1030A00060050E948B04CFEFD3E041E060E070E068
:1030B00086E00E9417012197C1F76091F802709194
:1030C000F90240E082E00E94170141E060E070E018
:1030D00088E00E9417018FE19EE40197F1F700C09C
:1030E000000041E060E070E08AE00E941701DF919B
:1030F000CF910C9460050E946B170E948B0440E0F6
:1031000060E070E080E00E9417012FEF80E792E01E
:10311000215080409040E1F700C0000041E060E0B5
:1031200070E089E00E9417012FEF83EC99E02150B5
:1031300080409040E1F700C000000E9460052FEF42
:1031400083EC99E0215080409040E1F700C00000FE
:103150000E948B042FEF80E792E021508040904046
:10316000E1F700C0000041E060E070E08BE00E9409
:1031700017012FEF87E893E1215080409040E1F75D
:1031800000C000000E9460050C94F7170E946B17A6
:103190000E948B0440E060E070E080E00E94170134
:1031A0002FEF80E792E0215080409040E1F700C08F
:1031B000000041E060E070E089E00E9417012FEF1D
:1031C00083EC99E0215080409040E1F700C000007E
:1031D0000E9460052FEF83EC99E0215080409040E1
:1031E000E1F700C000000E948B042FEF80E792E01F
:1031F000215080409040E1F700C0000041E060E0D5
:1032000070E08BE00E9417012FEF87E893E12150D7
:1032100080409040E1F700C000000E94600580916E
:103220006202909163029093F9028093F8020C94E9
:10323000F7170F931F93CF93DF93EC018C01060FC9
:10324000111DC017D10729F4DF91CF911F910F9164
:10325000089589910E94141CF4CFEEE5F2E08EEF00
:10326000808381E081838CEC8283138264E0CF01D0
:103270000C941919CF92DF92FF920F931F93CF9363
:10328000DF93F82EEB018A0169018EEF0E94141C76
:10329000802F0E94141C8F2D0E94141CCC0DDD1D4C
:1032A0000C0F1D1FC017D10741F4DF91CF911F9163
:1032B0000F91FF90DF90CF90089589910E94141C88
:1032C000F1CF0F93E0916002E03B50F4E03A28F137
:1032D000E05AE03110F5F0E0E15DF34E0C94271C6C
:1032E000EC3CD9F40F910C942D19809161028093DC
:1032F00003038031C8F48E30E8F4883080F48115FF
:1033000061F091E001C0990F8A95EAF7892F967DC7
:10331000911110C08872811104C00F9108958D30F1
:10332000E1F70F910C94E605843138F4823140F4D2
:103330008031B9F30F910C9477058431D9F3EDCF37
:103340000F910C94AD05E0916202E25080E890E0AC
:10335000A0E0B0E0EC3048F4F0E0E15CF34E0C9417
:10336000271C80E091E0A0E0B0E0809308039093F8
:103370000903A0930A03B0930B0380916502909117
:103380006602982789279827909305038093040362
:10339000E0916102E093030380916702809301034F
:1033A0008091680280930203E150E43108F0B5CFC8
:1033B000F0E0E55BF34E0C94271C80E092E0A0E087
:1033C000B0E0D3CF80E094E0A0E0B0E0CECF80E0EA
:1033D00098E0A0E0B0E0C9CF80E090E1A0E0B0E0EC
:1033E000C4CF80E090E2A0E0B0E0BFCF80E090E406
:1033F000A0E0B0E0BACF80E090E8A0E0B0E0B5CFC8
:1034000080E090E0A1E0B0E0B0CF80E090E0A2E00A
:10341000B0E0ABCF80E090E0A4E0B0E0A6CF80E0E9
:1034200090ECA0E0B0E0A1CF0F910C9470090F9147
:103430000C94E60A0F910C947B0B0F910C94550C95
:103440000E94E60A0F910C94E5150E94E60A0F917E
:103450000C9415160F910C94CE090F910C94540AEC
:10346000E0916102E0930303E150E43138F4F0E0CD
:10347000E15AF34E0C94271C0E942F0D8EEF80937F
:103480005B0181E080935C0182EA80935D01109290
:103490005E0164E08BE591E00F910C9419190E9494
:1034A000670EECCF0E947D0FE9CF0E94D60EE6CFCB
:1034B0000E94C60FE3CF0E947B18E0CF0E94990DB7
:1034C000DDCF0E94BD0EDACF0E941C0FD7CF0E9425
:1034D0004C0DD4CFE0916102E0930303809162022E
:1034E00080930003E150E43108F017CFF0E0ED588D
:1034F000F34E0C94271C0F910C9414060F910C940E
:1035000068070F910C944B070F910C94AB06E09158
:103510006102E09303038091700280930003E15005
:10352000E43138F4F0E0E957F34E0C94271C0E9484
:10353000A5078EEF80935B0181E080935C0184EAB4
:10354000A4CF0E94DA08F5CF0E94AE08F2CF0E9405
:103550002009EFCF0E94B617ECCF0E946908E9CF8F
:103560000E944508E6CF0E94E307E3CFE0916102A5
:10357000E09303038091620290E0982F8827092E40
:10358000000CAA0BBB0BBA2FA92F982F88274091AC
:10359000630250916402542745275427052E000CDE
:1035A000660B770B842B952BA62BB72B80930803E8
:1035B00090930903A0930A03B0930B0380916502D3
:1035C0009091660298278927982790930503809306
:1035D00004038091670290916802982789279827B1
:1035E0009093FF028093FE028091690290E0909395
:1035F000070380930603E150E43138F4F0E0E55628
:10360000F34E0C94271C0E94CF008EEF80935B0139
:1036100081E080935C0186EA38CF0E94F300F5CF09
:103620000E946B170E94F3001092FA021092FB02A4
:103630001092FC021092FD02E8CF0E94CF0041E000
:1036400060E070E086E00E941701DFCF0E94CF00AB
:10365000EBCFE0916102E0930303E150E431A8F67F
:10366000F0E0E155F34E0C94271C0E944710CDCF9B
:103670000E949610CACF0E945A12C7CF0E945311BF
:10368000C4CF0E940F13C1CF0E94FA10BECF0E9478
:10369000C510BBCF0E949011B8CF0E942C12B5CF9D
:1036A00080916102809303038E30D1F1D8F49EEFB4
:1036B000980F963078F491E001C0990F8A95EAF757
:1036C000892F9475911120C0982F987291111FC065
:1036D00087FD0DC08EEF80935B0181E080935C01DC
:1036E00088EAD3CE813119F028F48F3081F40E941A
:1036F000CF00F0CF8231E9F0833161F70E94CF0033
:1037000000E020E041E31AC00E94F300E3CF1092F2
:10371000FA021092FB021092FC021092FD02DACF24
:103720000E94CF0020E040EF60E08DE10E947E012A
:10373000D1CF0E94CF0000E020EF40E060E080E8C1
:103740000E941D02C7CFE0916102E0930303E250A3
:10375000E23108F0BFCFF0E0ED53F34E0C94271C9C
:103760000E94C013B7CF0E948714B4CF0E943615B1
:10377000B1CF0E941414AECF0E94E713ABCF0E94CA
:103780003B14A8CF80916102809303039091620261
:10379000909302038D3048F48A3048F4863009F45F
:1037A00051CE873009F453CEB8CD8E30FBCF0F9178
:1037B0000C948E16809161028093030390916802AD
:1037C0009093020390916902909301038D3030F43D
:1037D0008A3090F4863051F0873059F08EEF809324
:1037E0005B0181E080935C018CEA4FCE0E94C61899
:1037F000F5CF0E942417F2CF0E94D516EFCF80910B
:103800006102809303030F910C9460051092C00035
:1038100088E98093C10086E08093C2001092C500C1
:1038200080E18093C40008959091C00095FFFCCF83
:103830008093C6000895CF93DF93EC0189918111A5
:1038400003C0DF91CF9108950E94141CF7CFEE0FB3
:10385000FF1F0590F491E02D0994F894FFCF75199E
:10386000A319301A6A1A871AB61A291B501BA31BF0
:103870008D198D19C21BDA1B8D198D19FF1BB119FA
:10388000DD19E219E719EC19F119F619FB19001AFB
:10389000051A0A1A0F1A141A171A1A1A171A1D1AC1
:1038A000201A251A8D19141A141A141A141A1A1A0D
:1038B0002A1A171A1A1A171A2D1A2D1A141A3C1A1C
:1038C0004F1A521A551A581A5B1A4F1A3E1A5E1A94
:1038D0005E1A5E1A5E1A521A3C1A611A521A641A59
:1038E000671A671A3C1A7B1A7B1A7E1A7B1A7E1A91
:1038F0007B1A7B1A8D19811A811A811A811A8D19E6
:103900007B1A7B1A7E1A7B1A841A841A7B1A971ADE
:10391000971AA11AA41AA71AAA1AAD1A991AB01AB4
:10392000B01AB01AB01A991AAD1AAD1AA11AAD1A76
:10393000B31AB31A971A031B0D1B141B031B141B7A
:10394000101B031B051B1D1B1D1B1D1B1D1B051B0E
:10395000031B031B141B031B261B031B031B351B11
:10396000381B3B1B3E1B411B441B381B051B351BD7
:10397000351B351B351B051B381B471B3B1B381BD9
:103980004A1B4D1B351BB01BB31BB01BB61BB01B1A
:10399000B01B6A1B6A1B6A1B6A1B6A1B6A1BB91B6A
:0A39A000BC1BB31BB01BBF1BBF1BF9
:1039AA0004040404040404040505020204040101D5
:1039BA000202040408080000000000008F8F0000C3
:1039CA0000000000000000000000000000000000ED
:1039DA008080000000008F8F3F3F00000000000041
:1039EA0000000000000000000000000001010000CB
:0A39FA0000000F0F0004000100029E
:00000001FF
