:100000000C94BC000C94D9000C94D9000C94D90029
:100010000C94D9000C94D9000C94D9000C94D900FC
:100020000C94D9000C94D9000C94D9000C94D900EC
:100030000C94D9000C94D9000C94D9000C94D900DC
:100040000C94D9000C94D9000C94E5000C94D900C0
:100050000C94D9000C94D9000C94D9000C94D900BC
:100060000C94D9000C94D900211521151F152115C8
:100070001F15211521154517451745174517451714
:100080001F152115311536153B15401545154A1517
:100090004F15541559155E1563156815A215981559
:1000A000A41598159A159C159F154517A215A2150C
:1000B000A215A215A415A615C915C015C615B71504
:1000C000BA15BD15C015CB15C315C315C315C3157A
:1000D000C615C915E715E715E315E715E315E71587
:1000E000E7154517E515E515E515E5154517E71578
:1000F000FA15FA15FD150016031606160C160E163F
:1001000009160916091609160E160C167F1666161C
:100110006D167F166D1669167F16A2167616761660
:1001200076167616A2167F169D16A01691169416B0
:1001300097169A16A016A2169D169D169D169D1628
:10014000A216A016C216B916C216B916C216C51640
:10015000EB16EB16EB16EB16EB16EB16C816E616BF
:10016000E016E616E316E616E616EB16EB16EB16A9
:10017000EB16EB16EB16E91611241FBECFEFD8E0F5
:10018000DEBFCDBF11E0A0E0B1E0EEEDFEE202C0C7
:1001900005900D92AE32B107D9F722E0AEE2B1E0A0
:1001A00001C01D92A03EB207E1F70E942B010C9402
:1001B0006D170C940000219A229A389A579A569AF1
:1001C000089521980895219A08951F920F920FB6CD
:1001D0000F9211242F933F938F939F93EF93FF934D
:1001E0008091C0008C7161F5809131019091C600C1
:1001F000E82FF0E0EE5CFD4F90838F5F809331013C
:10020000833021F49091330290932F0120912F019C
:100210002223B1F090E030E02D5F3F4F821793072B
:1002200079F41092310110922F01809134028D33B4
:1002300021F481E080932E0103C081E0809330019E
:10024000FF91EF919F918F913F912F910F900FBE52
:100250000F901F9018950E9446170E94DB00299866
:100260002A9840985F985E9878948091300188230E
:1002700021F00E94DF1410923001F7CF20E030E02F
:100280002817390749F0EFE9FFE03197F1F700C08F
:1002900000002F5F3F4FF4CF089520E030E0281793
:1002A000390739F045E04A95F1F700002F5F3F4FDD
:1002B000F6CF08950E94E30040982A98299887EC89
:1002C00090E00197F1F700C000005F9A87EC90E0A2
:1002D0000197F1F700C000005E9A8FE99FE0019757
:1002E000F1F700C0000008950E94E30040982A98AA
:1002F000299887EC90E00197F1F700C000005E9A22
:1003000087EC90E00197F1F700C000005F9A8FE35F
:100310009FE10197F1F700C0000008950F931F932C
:10032000CF93DF9300D0CDB7DEB78B014A838983AB
:100330000E94E30029982AE02A95F1F700C020E006
:1003400030E0898190E04A815AE05A95F1F700C087
:10035000BC01022E02C0759567950A94E2F760FF12
:1003600002C0299A01C029982A9A5AE05A95F1F7B1
:1003700000C02A982F5F3F4F2630310529F785E0CE
:100380008A95F1F7000029989AE09A95F1F700C054
:10039000442321F025E32A95F1F726C0B801660F22
:1003A000771F80E090E041E050E02AE02A95F1F7E5
:1003B00000C09A01082E02C0220F331F0A94E2F7F0
:1003C00026233723232B11F0299A01C029982A9A32
:1003D0002AE02A95F1F700C02A980196803191050C
:1003E00021F755E25A95F1F700000F900F90DF9139
:1003F000CF911F910F910895CF93DF9300D000D03C
:10040000CDB7DEB72C834B836A8389830E94E300D8
:1004100029983AE03A95F1F700C0E0E0F0E08981F0
:1004200090E06A814B812C815AE05A95F1F700C027
:10043000DC010E2E02C0B595A7950A94E2F7A0FF45
:1004400002C0299A01C029982A9A3AE03A95F1F710
:1004500000C02A983196E630F10531F75AE15A95F5
:10046000F1F700C029988AE08A95F1F700C02A9A2E
:100470009AE09A95F1F700C02A9880E090E030E089
:100480005AE05A95F1F700C0F901082E02C0F5951F
:10049000E7950A94E2F7E0FF02C0299A01C0299883
:1004A0002A9A5AE05A95F1F700C02A9801968830A6
:1004B000910531F780E090E050E02AE02A95F1F7CD
:1004C00000C09A01082E02C0359527950A94E2F7DC
:1004D00020FF02C0299A01C029982A9A3AE03A9549
:1004E000F1F700C02A9801968830910531F780E035
:1004F00090E070E05AE05A95F1F700C09B01082E99
:1005000002C0359527950A94E2F720FF02C0299A88
:1005100001C029982A9A2AE02A95F1F700C02A9862
:1005200001968730910531F73AE13A95F1F700C02D
:100530000F900F900F900F90DF91CF9108950F9330
:100540001F93CF93DF931F92CDB7DEB789830E94AD
:10055000E3004AE14A95F1F700C020E030E08981EC
:1005600090E04AE04A95F1F700C0AC01022E02C0CB
:10057000559547950A94E2F740FF02C0299A01C0B9
:1005800029982A9A4AE04A95F1F700C02A982F5FE5
:100590003F4F2630310529F78AE08A95F1F700C0F0
:1005A00029989AE09A95F1F700C02A9A4AE04A956C
:1005B000F1F700C02A9885E28A95F1F700000E94C1
:1005C000E10020E030E000E010E081E090E04AE06F
:1005D0004A95F1F700C02A9A4AE04A95F1F700C01F
:1005E0002A98199B09C0AC01022E02C0440F551F66
:1005F0000A94E2F7042B152B2F5F3F4F2E30310565
:1006000031F78AE08A95F1F700C00E94E30029984B
:100610002A9A9AE09A95F1F700C02A9845E24A95FD
:10062000F1F70000C8010F90DF91CF911F910F915A
:1006300008950F931F93CF93DF931F92CDB7DEB72B
:100640008B0189830E94E300299825E32A95F1F71D
:10065000000020E030E0898190E04AE14A95F1F71E
:1006600000C0AC01022E02C0559547950A94E2F7EE
:1006700040FF02C0299A01C029982A9A4AE14A9566
:10068000F1F700C02A982F5F3F4F2430310529F73A
:100690008AE18A95F1F700C029989AE19A95F1F7D5
:1006A00000C080E090E041E050E02AE12A95F1F7B7
:1006B00000C09A01082E02C0220F331F0A94E2F7ED
:1006C00020233123232B11F0299A01C029982A9A3B
:1006D0002AE12A95F1F700C02A9801968031910508
:1006E00021F7299845E34A95F1F700000F90DF9133
:1006F000CF911F910F9108950E94E3002A982998A5
:100700002AE12A95F1F700C083E090E02AE12A95DA
:10071000F1F700C02A9A2AE12A95F1F700C02A9839
:100720000197A1F78AE18A95F1F700C02A9A8FE331
:100730009FE10197F1F700C000002A988FE891E04F
:100740000197F1F700C000000895CF93DF9300D028
:1007500000D0CDB7DEB79A8389837C836B830E94F8
:10076000E3002AE62A95F1F700C0FE013196BE01AA
:100770006B5F7F4FA1E0B0E08FE090E025E32A952A
:10078000F1F7000020813181AD01082E02C0440F35
:10079000551F0A94E2F724233523232B11F0299ABD
:1007A00001C029982A9A25E32A95F1F700002A9892
:1007B000019720F73296E617F707F1F68AE68A9551
:1007C000F1F700C00F900F900F900F90DF91CF9135
:1007D00008955E980E94E30040982A9829988AE636
:1007E0008A95F1F700C05F9A8AE68A95F1F700C012
:1007F000409A8AE68A95F1F700C040988AE68A9581
:10080000F1F700C060E578E483E49DE40E94A5036D
:100810008AE68A95F1F700C0409A08958091DF0238
:10082000853061F018F4823039F010C0863021F044
:100830008D3061F40C94E9030C9474010E945A0108
:1008400060E578E483E49DE40C94A5030C945A01DC
:10085000CF93DF9300D0CDB7DEB769838A830E9440
:10086000E300299825E32A95F1F7000020E030E025
:100870008A8190E069814AE14A95F1F700C0AC01B4
:10088000022E02C0559547950A94E2F740FF02C038
:10089000299A01C029982A9A4AE14A95F1F700C09D
:1008A0002A982F5F3F4F2430310529F78AE18A9536
:1008B000F1F700C029989AE19A95F1F700C080E01D
:1008C00090E070E02AE12A95F1F700C09B01082E24
:1008D00002C0359527950A94E2F720FF02C0299AB5
:1008E00001C029982A9A4AE14A95F1F700C02A984E
:1008F00001968830910531F70E94E1008AE18A95DE
:10090000F1F700C020E030E080E041E050E09AE103
:100910009A95F1F700C02A9A9AE19A95F1F700C0EA
:100920002A98199B07C0BA01022E01C0660F0A94CB
:10093000EAF7862B2F5F3F4F2830310541F78A8336
:100940000E94E300299825E32A95F1F700008A81A7
:100950000F900F90DF91CF9108951F93CF93DF9366
:100960001F92CDB7DEB7162F682F70E07E6080E053
:1009700049830E94190368EF7EE680E00E94190314
:10098000612F70E07E6080E00E94190367EF7EE6D1
:1009900080E00E9419034981642F70E07E6080E04E
:1009A0000E94190366EF7EE680E00F90DF91CF9101
:1009B0001F910C9419035E985F9840982A98299883
:1009C0008FE193E00197F1F700C00000089540988F
:1009D0005F9840982A9829988FE193E00197F1F762
:1009E00000C0000008958091DF028D3011F40C9456
:1009F000E7040C94DB040F931F93CF93DF9300D095
:100A0000CDB7DEB70E940E0440E060E070E080E009
:100A10000E948E0106E010E041E060E070E086E0B8
:100A20000E948E0101501109B9F784E00E949F02D3
:100A300089839A830E94F3042EEF2093320122E0EF
:100A40002093330120EA209334019A819093350159
:100A500089818093360165E082E391E00F900F90E9
:100A6000DF91CF911F910F910C948A14CF93DF9354
:100A70000E940E044EEF6FEF8FE30E94AD0460E022
:100A800089E00E942804C2E3D1E08C834FEF6FEF2E
:100A90008FE30E94AD0460E089E00E9428048B830C
:100AA0000E94F3048FE19EE40197F1F700C000007B
:100AB0008EEF888382E0898380EA8A8365E0CE01B5
:100AC000DF91CF910C948A14EF92FF920F931F93B2
:100AD000CF93DF93CDB7DEB72E970FB6F894DEBF76
:100AE0000FBECDBF0E940E0440E060E070E080E0E9
:100AF0000E948E0107E010E041E060E070E086E0D7
:100B00000E948E0101501109B9F7CE0101967C01B6
:100B100000E010E08091DE0290E00817190784F4ED
:100B200084E00E949F02F701819391937F0141E04D
:100B300060E070E086E00E948E010F5F1F4FEACFF9
:100B40000E94F3048EEF809332018EE08093330194
:100B500083EA8093340189819A819093350180934F
:100B600036018B819C8190933701809338018D8170
:100B70009E819093390180933A018F81988590935B
:100B80003B0180933C0189859A8590933D01809338
:100B90003E018B859C8590933F01809340018D851C
:100BA0009E85909341018093420161E182E391E04F
:100BB0002E960FB6F894DEBF0FBECDBFDF91CF915A
:100BC0001F910F91FF90EF900C948A14CF93DF93B5
:100BD00000D0CDB7DEB70E940E0484E00E949F02D1
:100BE00089839A830E94F304E2E3F1E02EEF2083ED
:100BF00022E0218323EA22839A819383898184835B
:100C000065E0CF010F900F90DF91CF910C948A1483
:100C10000F931F93CF93DF938EEF809332018EE07B
:100C20008093330183EA80933401C0E0D0E00E94D6
:100C30000E044C2F60E080E30E94AD0460E088E089
:100C40000E9428048E010E5C1E4FF80184834C2FF5
:100C50004F5F60E080E30E94AD0460E088E00E94A6
:100C60002804F80183830E94F3048FE19EE4019736
:100C7000F1F700C000002296CE30D105C1F661E147
:100C800082E391E0DF91CF911F910F910C948A1430
:100C9000CF93DF930E940E0440E060E070E080E0BC
:100CA0000E948E01C7E0D0E041E060E070E086E0A5
:100CB0000E948E012197C1F76091370270E0762F74
:100CC000662780913602682B40E082E00E948E0108
:100CD00041E060E070E088E00E948E018FE19EE4D8
:100CE0000197F1F700C0000041E060E070E08EE0A5
:100CF0000E948E018FE19EE40197F1F700C0000091
:100D0000DF91CF910C94F3040E940E04E2E3F2E031
:100D1000658170E0762F66278481682B40E082E051
:100D20000E948E0141E060E070E088E00E948E0148
:100D30008FE19EE40197F1F700C0000041E060E020
:100D400070E08EE00E948E018FE891E00197F1F74C
:100D500000C000000C94F304CF93DF930E940E04B4
:100D600040E060E070E080E00E948E01C7E0D0E0EB
:100D700041E060E070E086E00E948E012197C1F7BB
:100D8000C0E0D0E08091DE0290E0880F991FC81784
:100D9000D9070CF5FE01EE5CFD4F658170E0762F02
:100DA00066278481682B40E082E00E948E0141E04A
:100DB00060E070E088E00E948E018FE19EE4019780
:100DC000F1F700C0000041E060E070E086E00E94C2
:100DD0008E012296D7CFDF91CF910C94F304CF935D
:100DE000DF930E940E0440E060E070E080E00E942B
:100DF0008E01C7E0D0E041E060E070E086E00E9454
:100E00008E012197C1F76091370270E0762F662737
:100E100080913602682B40E082E00E948E0141E022
:100E200060E070E088E10E948E018FE19EE401970E
:100E3000F1F700C00000DF91CF910C94F304CF9341
:100E4000DF93C0E0D0E00E940E044C2F60E080E30E
:100E50000E94AD04FE01EE5CFD4F648170E0962FB0
:100E60008827682B792B8FE00E9419030E947C034E
:100E700060E070E080E00E94190360E070E080E0D4
:100E80000E9419032FEF80E792E0215080409040AC
:100E9000E1F700C000000E94F3042FEF80E792E02A
:100EA000215080409040E1F700C000002196CE30F4
:100EB000D10549F6DF91CF910895CF93DF93C0E03C
:100EC000D0E00E940E046FE77EE880E00E941903E4
:100ED0006FE77CE980E00E9419034C2F60E080E31B
:100EE0000E94AD04FE01EE5CFD4F648170E0962F20
:100EF0008827682B792B8FE00E9419030E947C03BE
:100F000060E070E080E00E94190360E070E080E043
:100F10000E9419032FEF80E792E02150804090401B
:100F2000E1F700C000000E94F3042FEF80E792E099
:100F3000215080409040E1F700C000002196CE3063
:100F4000D10509F0BECFDF91CF910895BF92CF9226
:100F5000DF92EF92FF920F931F93CF93DF930E9444
:100F60000E048091DF028950843030F441E060E06B
:100F700070E086E00E948E01C12CD12C76011EEF1C
:100F800000E881EAB82E8091D2029091D302A0911C
:100F9000D402B091D502C816D906EA06FB0628F598
:100FA000C0E0D0E084E00E949F02FE01EE5CFE4FB4
:100FB0009383848341E060E070E086E00E948E01CC
:100FC0002296C038D10571F7109332010093330196
:100FD000B092340163E882E391E00E948A1480E8D1
:100FE000C80ED11CE11CF11CCECFDF91CF911F9117
:100FF0000F91FF90EF90DF90CF90BF900C94F3048F
:10100000BF92CF92DF92EF92FF920F931F93CF93F5
:10101000DF930E940E04C12CD12C76011EEF00E854
:1010200031EAB32E8091D2029091D302A091D402E2
:10103000B091D502C816D906EA06FB06F8F4C0E05E
:10104000D0E084E20E949F02FE01EE5CFE4F93839B
:1010500084832296C038D105A1F710933201009302
:101060003301B092340163E882E391E00E948A1474
:1010700080E8C80ED11CE11CF11CD4CF0E94F304FF
:101080000E940E0420E040EF60E08DE10E94FC0130
:1010900000E010E08EEFF82E90E4E92E29EAD22E3F
:1010A0008091D8029091D90208171907C0F4C5E3BE
:1010B000D1E084E20E949F02899381E0C537D8077E
:1010C000C1F7F0923201E0923301D092340163E42F
:1010D00082E391E00E948A14005C1F4FE1CFDF9110
:1010E000CF911F910F91FF90EF90DF90CF90BF9025
:1010F0000C94F304BF92CF92DF92EF92FF920F9382
:101100001F93CF93DF930E940E04C12CD12C760144
:101110001EEF00E831EAB32E8091D2029091D30203
:10112000A091D402B091D502C816D906EA06FB06F2
:1011300028F5C0E0D0E084E00E949F02FE01EE5C52
:10114000FE4F9383848341E060E070E086E00E947C
:101150008E012296C038D10571F7109332010093A9
:101160003301B092340163E882E391E00E948A1473
:1011700020E8C20ED11CE11CF11CCECF0E94F3046A
:101180008FEF90E722E0815090402040E1F700C0CF
:1011900000000E940E0400E010E08EEFF82E90E4B4
:1011A000E92E29EAD22E8091D8029091D90208170F
:1011B0001907F0F4C5E3D1E085E00E949F0289930E
:1011C00041E060E070E086E00E948E0181E0C5377A
:1011D000D80791F7F0923201E0923301D0923401B6
:1011E00063E482E391E00E948A14005C1F4FDBCF2E
:1011F000DF91CF911F910F91FF90EF90DF90CF90F3
:10120000BF900C94F3049F92AF92BF92CF92DF9263
:10121000EF92FF920F931F93CF93DF930E940E04E0
:1012200040E060E080E00E94AD04C12CD12C76014A
:101230004EEFB42E50E8A52E61EA962E8091D20290
:101240009091D302A091D402B091D502C816D906CC
:10125000EA06FB0630F5C0E0D0E060E089E00E94DD
:1012600028048E010E5C1E4FF801848360E089E043
:101270000E942804F80183832296C038D10569F7BB
:10128000B0923201A09233019092340163E882E37C
:1012900091E00E948A14F0E8CF0ED11CE11CF11CF1
:1012A000CDCF0E94F3048091D8029091D902892B6E
:1012B00009F478C00E940E0466EA7EE980E00E948C
:1012C000190366EA7CE980E00E941903E12CF12C05
:1012D0009EEFD92E20E4C22E39EAB32E8091D80297
:1012E0009091D902E816F90608F04FC000E010E02E
:1012F000E801CE0DDF1DBE0177277E6080E00E94F1
:10130000190369EA7EE680E00E9419036D2F7727B2
:101310007E6080E00E9419036AEA7EE680E00E9417
:10132000190366EA70E880E00E94190368EA70E534
:1013300080E00E94190365EF7EE680E00E941903B9
:1013400060E070E080E00E94190360E082E00E94AB
:10135000280460E082E00E942804F801EE5CFE4F61
:1013600083830F5F1F4F0034110511F6D0923201B5
:10137000C0923301B092340163E482E391E00E94B1
:101380008A1480E4E80EF11CA9CFDF91CF911F9160
:101390000F91FF90EF90DF90CF90BF90AF909F9014
:1013A0000C94F304DF91CF911F910F91FF90EF9078
:1013B000DF90CF90BF90AF909F9008959F92AF9293
:1013C000BF92CF92DF92EF92FF920F931F93CF9332
:1013D000DF930E940E0440E060E080E00E94AD04D4
:1013E000C12CD12C76014EEFB42E50E8A52E61EA27
:1013F000962E8091D2029091D302A091D402B09106
:10140000D502C816D906EA06FB0630F5C0E0D0E0E2
:1014100060E089E00E9428048E010E5C1E4FF801F6
:10142000848360E089E00E942804F8018383229687
:10143000C038D10569F7B0923201A0923301909281
:10144000340163E882E391E00E948A14F0E8CF0E51
:10145000D11CE11CF11CCDCF0E94F3048FE39CE969
:101460000197F1F700C000008091D8029091D90255
:10147000892B09F46EC0E12CF12C8EEFD82E90E46C
:10148000C92E29EAB22E8091D8029091D902E8168D
:10149000F90608F05EC000E010E00E940E04E801CA
:1014A000CE0DDF1D6FE77EE980E00E9419036FE734
:1014B0007CE980E00E941903BE0177277E6080E00E
:1014C0000E94190364E77EE680E00E9419036D2FF5
:1014D00077277E6080E00E94190365E77EE680E062
:1014E0000E9419036FE770E880E00E94190363E728
:1014F00070E580E00E94190365EF7EE680E00E94BF
:10150000190360E070E080E00E94190360E082E06F
:101510000E942804F801EE5CFE4F838360E082E0C5
:101520000E9428040E94F3040F5F1F4F003411052E
:1015300009F0B3CFD0923201C0923301B09234019E
:1015400063E482E391E00E948A1490E4E90EF11CC6
:101550009ACFDF91CF911F910F91FF90EF90DF9085
:10156000CF90BF90AF909F9008950E940E048091FD
:10157000DF028E3031F420E048EE60E08DE10E9421
:10158000FC0141E060E070E089E00E948E012FEFF5
:1015900083EC99E0215080409040E1F700C00000CA
:1015A0000C94F3040F931F93CF93DF93E091DF022A
:1015B000EA50E33040F4F0E0EE0FFF1FE85DFE4F2D
:1015C000C081D18102C0C0E0D0E00E940E048091B1
:1015D000DF028A50833038F500E010E00C171D0759
:1015E00049F041E060E070E086E00E948E010F5F0C
:1015F0001F4FF4CF84E00E949F029093C902809312
:10160000C80205E010E041E060E070E086E00E9482
:101610008E0101501109B9F784E00E949F02909356
:10162000CD028093CC020E94F3040E940E0441E09C
:1016300060E070E086E00E948E0141E060E070E0D2
:1016400089E00E948E012FEF83EC99E021508040C9
:101650009040E1F700C000000E94F3048FE19EE497
:101660000197F1F700C000008091DF028A508330BB
:1016700008F060C00E940E0400E010E00C171D0787
:1016800049F041E060E070E086E00E948E010F5F6B
:101690001F4FF4CF6091C8027091C90240E082E010
:1016A0000E948E0141E060E070E088E00E948E01BF
:1016B0008FE19EE40197F1F700C0000041E060E097
:1016C00070E08EE00E948E018FE891E00197F1F7C3
:1016D00000C00000C5E0D0E041E060E070E086E0DE
:1016E0000E948E012197C1F76091CC027091CD02CA
:1016F00040E082E00E948E0141E060E070E088E01E
:101700000E948E018FE19EE40197F1F700C0000076
:1017100041E060E070E08EE00E948E018FE891E091
:101720000197F1F700C00000DF91CF911F910F9159
:101730000C94F304DF91CF911F910F9108950E94B3
:101740000E0440E060E070E080E00E948E012FEF28
:1017500080E792E0215080409040E1F700C0000017
:1017600040E06FEF7FE382E00E948E012FEF80E781
:1017700092E0215080409040E1F700C0000041E03D
:1017800060E070E089E00E948E012FEF83EC99E029
:10179000215080409040E1F700C000000E94F30417
:1017A0002FEF83EC99E0215080409040E1F700C09A
:1017B00000000E940E042FEF80E792E0215080404D
:1017C0009040E1F700C0000041E060E070E08BE095
:1017D0000E948E012FEF83EC99E0215080409040D1
:1017E000E1F700C000000C94F304CF93DF930E9454
:1017F0000E0440E060EF7FE380E00E948E01C7E0CE
:10180000D0E041E060E070E086E00E948E01219728
:10181000C1F741E060E070E081E00E948E0141E0AC
:1018200060E070E087E00E948E0141E060E070E0DF
:1018300088E00E948E018FE79BEB0197F1F700C0D3
:10184000000041E060E070E081E00E948E0141E034
:1018500060E070E087E00E948E010E94F3049FEF39
:1018600020E782E0915020408040E1F700C0000076
:101870000E940E0440E06FEF7FE382E00E948E0141
:1018800041E060E070E089E00E948E0141E060E0AC
:1018900070E088E10E948E019FEF20E782E0915086
:1018A00020408040E1F700C000000E94F3040E9445
:1018B0000E0440E06FEF7FE383E00E948E0141E081
:1018C00060E070E08BE00E948E0141E060E070E03B
:1018D00088E10E948E019FEF20E782E09150204036
:1018E0008040E1F700C00000DF91CF910C94F30439
:1018F0000F931F93CF93DF938091DF02833039F0F2
:101900008D3051F4C0E8D0E801E011E009C0CFE823
:10191000DFE80FE31FE304C0C0E0D0E000E010E028
:101920000E940E0445E060E08CE30E94AD04B80123
:101930008CE00E94190344E060E08CE30E94AD0457
:10194000BE018CE00E9419030E947C0360E070E0FD
:1019500080E00E94190360E070E080E00E941903BB
:101960002FEF80E792E0215080409040E1F700C0E7
:101970000000DF91CF911F910F910C94F304CF924F
:10198000DF92EF92FF920F931F93CF93DF93CDB728
:10199000DEB76C970FB6F894DEBF0FBECDBF8EE0FA
:1019A000E0E0F1E0DE011F9601900D928A95E1F7EB
:1019B0008EE0EEE0F1E0DE01119601900D928A9545
:1019C000E1F77E012FE0E20EF11C8E010F5F1F4F49
:1019D0006E018DE1C80ED11C0E940E0444E060E04F
:1019E0008CE30E94AD04F701619171917F018CE05D
:1019F0000E94190345E060E08CE30E94AD04F80109
:101A0000619171918F018CE00E94190346E060E0C2
:101A10008CE30E94AD0460E870E88CE00E9419033A
:101A20000E947C0360E070E080E00E94190360E0A7
:101A300070E080E00E941903FFEF20E782E0F150A0
:101A400020408040E1F700C000000E94F304EFE175
:101A5000FEE43197F1F700C00000EC14FD0409F03A
:101A6000BBCF6C960FB6F894DEBF0FBECDBFDF9133
:101A7000CF911F910F91FF90EF90DF90CF9008953D
:101A80000F931F93CF93DF938091DF0289508430AF
:101A900018F00FEF1FE302C00FEF1FE0C0E0D0E02F
:101AA000FE01EE5CFD4F658170E0762F6627848134
:101AB000682B60177107E1F040E082E00E948E0120
:101AC00041E060E070E088E00E948E018091D602E3
:101AD0009091D7020E943E0141E060E070E08EE00C
:101AE0000E948E018FE891E00197F1F700C000009D
:101AF00041E060E070E086E00E948E012296C038EE
:101B0000D10571F6DF91CF911F910F910895CF9379
:101B1000DF93C0E0D0E0FE01EE5CFD4F658170E038
:101B2000762F66278481682B6F3F8FE3780781F0DB
:101B300040E082E00E948E0141E060E070E088E0D9
:101B40000E948E018091D6029091D7020E943E01A0
:101B500041E060E070E086E00E948E012296C0388D
:101B6000D105C9F6DF91CF910895CF93DF93C0E0FF
:101B7000D0E0FE01EE5CFD4F658170E0762F6627B8
:101B80008481682B6F3F2FE3720739F441E060E0F6
:101B900070E086E00E948E013AC08091CE02909162
:101BA000CF02A091D002B091D1028F3F9340A10506
:101BB000B10521F46091CA027091CB0240E082E04D
:101BC0000E948E0141E060E070E088E00E948E019A
:101BD0008091D6029091D7020E943E0141E060E0E0
:101BE00070E086E00E948E018091CE029091CF023B
:101BF000A091D002B091D1020196A11DB11D809398
:101C0000CE029093CF02A093D002B093D10222963D
:101C1000C038D10509F0ADCFDF91CF910895CF93B2
:101C2000DF93C0E0D0E0FE01EE5CFD4F658170E027
:101C3000762F66278481682B6F3F8FE3780759F4EE
:101C400041E060E070E086E00E948E018AE68A95BD
:101C5000F1F700C01AC040E082E00E948E018AE6DF
:101C60008A95F1F700C041E060E070E088E00E94F2
:101C70008E018091D6029091D7020E943E0141E0F0
:101C800060E070E086E00E948E012296C038D105A7
:101C900051F6DF91CF910895EF92FF920F931F932A
:101CA000CF93DF93C0E0D0E04091DA025091DB02A5
:101CB00020E030E080E090E02417350778F4F90167
:101CC000EC0FFD1FEE5CFD4F64816F3F21F46581D9
:101CD0006F3F09F402962E5F3F4FEECF84179507B2
:101CE000B9F44091CE025091CF026091D002709130
:101CF000D1028A019B01080F191F211D311D00937C
:101D0000CE021093CF022093D0023093D1026EC046
:101D10000E940E0466EA7EE880E00E94190366EAEB
:101D20007CE980E00E9419034091CE025091CF02DD
:101D30006091D0027091D102BB27A72F962F852FDB
:101D4000682F892F0E94AD048E01095C1D4FE12C84
:101D5000F12C8091DA029091DB02E816F906D0F4BA
:101D60000297F8013197D8016C9170E0762F6627C1
:101D7000E816F90620F08081682B8FE003C080818F
:101D8000682B8DE00E941903B2E0EB0EF11C0E5F90
:101D90001F4FDFCF0E947C0360E070E080E00E9474
:101DA000190360E070E080E00E9419032091DA02DC
:101DB0003091DB028091CE029091CF02A091D002AF
:101DC000B091D102820F931FA11DB11D8093CE024D
:101DD0009093CF02A093D002B093D1020E94F3045B
:101DE0008FE39FE10197F1F700C000008091DA02D4
:101DF0009091DB02C80FD91FC038D1050CF454CF25
:101E0000DF91CF911F910F91FF90EF900895EF9286
:101E1000FF920F931F93CF93DF93C0E0D0E04091E8
:101E2000DA025091DB0220E030E080E090E02417FD
:101E3000350778F4F901EC0FFD1FEE5CFD4F64816E
:101E40006F3F21F465816F3F09F402962E5F3F4F8B
:101E5000EECF84179507B9F44091CE025091CF028E
:101E60006091D0027091D1028A019B01080F191F65
:101E7000211D311D0093CE021093CF022093D0027A
:101E80003093D10273C00E940E046FE77EE880E0B9
:101E90000E9419036FE77CE980E00E9419036FE755
:101EA00074E880E00E9419034091CE025091CF0265
:101EB0006091D0027091D102BB27A72F962F852F5A
:101EC000682F892F0E94AD048E01095C1D4FE12C03
:101ED000F12C8091DA029091DB02E816F906D0F439
:101EE0000297F8013197D8016C9170E0762F662740
:101EF000E816F90620F08081682B8FE003C080810E
:101F0000682B8DE00E941903B2E0EB0EF11C0E5F0E
:101F10001F4FDFCF0E947C0360E070E080E00E94F2
:101F2000190360E070E080E00E9419032091DA025A
:101F30003091DB028091CE029091CF02A091D0022D
:101F4000B091D102820F931FA11DB11D8093CE02CB
:101F50009093CF02A093D002B093D1020E94F304D9
:101F60008FE39FE10197F1F700C000008091DA0252
:101F70009091DB02C80FD91FC038D1050CF44FCFA8
:101F8000DF91CF911F910F91FF90EF900895CF9324
:101F9000DF93C6E3D2E069916F3F91F070E040E0DB
:101FA00083E00E948E0141E060E070E088E00E94E2
:101FB0008E018091D6029091D70202960E943E0136
:101FC00041E060E070E086E00E948E0182E0C6376A
:101FD000D80709F7DF91CF910895CF93DF93C6E338
:101FE000D2E069916F3F91F070E040E082E00E94A2
:101FF0008E0141E060E070E088E00E948E018091F7
:10200000D6029091D70202960E943E0141E060E024
:1020100070E086E00E948E0182E0C637D80709F79B
:10202000DF91CF9108958F929F92AF92BF92CF92FE
:10203000DF92EF92FF92CF93DF930E940E0466EA45
:102040007EE980E00E94190366EA7CE980E00E9454
:102050001903C12CD12C7601E601CE5CDD4F8C81B9
:102060008F3F09F45EC08090CE029090CF02A09086
:10207000D002B090D1026C2D680D70E07E6080E0DF
:102080000E94190369EA7EE680E00E9419038C0C25
:102090009D1CAE1CBF1C692D70E07E6080E00E941C
:1020A00019036AEA7EE680E00E9419036C8170E001
:1020B0007E6080E00E94190368EA7EE680E00E946C
:1020C000190366EA74E880E00E94190366EA72E880
:1020D00080E00E94190366EA70E580E00E9419031F
:1020E00065EF7EE680E00E94190360E070E080E02A
:1020F0000E94190360E082E00E942804C82F60E07B
:1021000082E00E9428048C2B31F32A988FE19EE410
:102110000197F1F700C0000066EA74E980E00E94D0
:1021200019039FEFC91AD90AE90AF90A80E4C81607
:10213000D104E104F10409F08FCF8091CE02909197
:10214000CF02A091D002B091D102805C9F4FAF4FDF
:10215000BF4F8093CE029093CF02A093D002B09352
:10216000D102DF91CF91FF90EF90DF90CF90BF90A1
:10217000AF909F908F900C94F3048F929F92AF92A8
:10218000BF92CF92DF92EF92FF92CF93DF930E94A4
:102190000E046FE77EE980E00E9419036FE77CE997
:1021A00080E00E941903C12CD12C7601E601CE5C9F
:1021B000DD4F8C818F3F09F45EC08090CE029090FD
:1021C000CF02A090D002B090D1026C2D680D70E0CB
:1021D0007E6080E00E94190364E77EE680E00E9452
:1021E00019038C0C9D1CAE1CBF1C692D70E07E6019
:1021F00080E00E94190365E77EE680E00E941903F3
:102200006C8170E07E6080E00E94190363E77EE6E7
:1022100080E00E9419036FE774E880E00E941903D0
:102220006FE772E880E00E9419036FE770E580E0D5
:102230000E94190365EF7EE680E00E94190360E0CA
:1022400070E080E00E94190360E082E00E942804B0
:10225000C82F60E082E00E9428048C2B31F32A987A
:102260008FE19EE40197F1F700C000006FE774E989
:1022700080E00E9419039FEFC91AD90AE90AF90AF6
:1022800080E4C816D104E104F10409F08FCF8091F5
:10229000CE029091CF02A091D002B091D102805C89
:1022A0009F4FAF4FBF4F8093CE029093CF02A0932A
:1022B000D002B093D102DF91CF91FF90EF90DF90E9
:1022C000CF90BF90AF909F908F900C94F3040F939A
:1022D0001F93CF93DF9300D0CDB7DEB70E940E04DB
:1022E0000FEF13E041E060E070E086E00E948E01B5
:1022F00001501109B9F784E00E949F0289839A83F3
:102300000E94F3042EEF2093320122E02093330148
:102310002BEA209334019A8190933501898180932F
:10232000360165E082E391E00F900F90DF91CF914D
:102330001F910F910C948A14CF93DF930E940E0487
:102340008091DF028E3039F420E040EE60E08DE1D4
:102350000E94FC0116C040E060E070E080E00E9456
:102360008E01C0E0D0E08091DD0290E0C817D9076F
:1023700044F441E060E070E086E00E948E01219626
:10238000F2CF84E00E949F029093CB028093CA0216
:1023900041E060E070E086E00E948E0184E00E94EF
:1023A0009F029093C9028093C80241E060E070E010
:1023B00086E00E948E0184E00E949F029093CD02ED
:1023C0008093CC020E94F3048EEF8093320186E06A
:1023D000809333018BEA809334018091CA029091FB
:1023E000CB0290933501809336018091C802909181
:1023F000C90290933701809338018091CC0290916B
:10240000CD029093390180933A0169E082E391E033
:10241000DF91CF910C948A140F931F93CF93DF9386
:10242000E091DF02EA50E33040F4F0E0EE0FFF1FEE
:10243000EE5DFE4F0081118102C000E010E00E94BD
:102440000E04C0E0D0E0C017D10741F041E060E0E9
:1024500070E086E00E948E012196F5CF84E00E9414
:102460009F029093CB028093CA020E94F3048EEFE6
:102470008093320182E0809333018BEA80933401B0
:102480008091CA029091CB029093350180933601DE
:1024900065E082E391E0DF91CF911F910F910C9461
:1024A0008A140F931F93CF93DF938091370290E0AC
:1024B000982F882720913602822B9093CB0280930D
:1024C000CA02E091DF02EA50E33040F4F0E0EE0FA0
:1024D000FF1FE45EFE4F0081118102C000E010E0AA
:1024E0000E940E04C0E0D0E0C017D10741F041E0E7
:1024F00060E070E086E00E948E012196F5CF609149
:10250000CA027091CB0240E082E00E948E0141E05D
:1025100060E070E088E00E948E018FE19EE4019708
:10252000F1F700C0000041E060E070E08EE00E9442
:102530008E018FE891E00197F1F700C00000DF9174
:10254000CF911F910F910C94F304CF93DF9380915F
:10255000370290E0982F882720913602822B9093A3
:10256000CB028093CA020E940E04CFEFD3E041E079
:1025700060E070E086E00E948E012197C1F76091D3
:10258000CA027091CB0240E082E00E948E0141E0DD
:1025900060E070E088E00E948E018FE19EE4019788
:1025A000F1F700C0000041E060E070E08AE00E94C6
:1025B0008E01DF91CF910C94F3040F931F93CF936F
:1025C000DF930E940E0440E060E070E080E00E9433
:1025D0008E01C0E0D0E08091DD0290E0C817D907FD
:1025E00044F441E060E070E086E00E948E012196B4
:1025F000F2CFC7E3D2E000E010E08091DC0290E08F
:102600000817190714F5688170E0762F6627FE0118
:1026100031978081682B40E082E00E948E0141E08A
:1026200060E070E088E00E948E018FE19EE40197F7
:10263000F1F700C0000041E060E070E086E00E9439
:102640008E010F5F1F4F2296D8CFDF91CF911F9140
:102650000F910C94F304CF93DF930E940E04CFEFFD
:10266000D3E041E060E070E086E00E948E012197B7
:10267000C1F784E00E949F029093CB028093CA022C
:102680000E94F3048FE19EE40197F1F700C000007F
:102690000E94740140E060E070E280E00E948E01E0
:1026A000C7E0D0E041E060E070E086E00E948E018B
:1026B0002197C1F784E00E949F029093C902809302
:1026C000C8020E94F3048091C8029091C902882731
:1026D00090739093C9028093C8028FE19EE40197A2
:1026E000F1F700C00000DF91CF9108950F931F9381
:1026F000CF93DF93C0913702D0E0DC2FCC278091BD
:102700003602C82B0E942B13DF708091C802909173
:10271000C902C82BD92B0E940E0440E060E070E291
:1027200080E00E948E0107E010E041E060E070E090
:1027300086E00E948E0101501109B9F740E0BE0108
:1027400082E00E948E0141E060E070E088E00E943B
:102750008E018FE19EE40197F1F700C0000041E097
:1027600060E070E08AE00E948E01DF91CF911F91BE
:102770000F910C94F304CF93DF930E940E0440E07A
:1027800060E070E280E00E948E01C7E0D0E041E0AE
:1027900060E070E086E00E948E012197C1F784E03E
:1027A0000E949F029093CD028093CC020E94F3047A
:1027B0008091CC029091CD029F702091C8023091FF
:1027C000C902822B932B9093CD028093CC020E945E
:1027D0000E0440E060E070E280E00E948E01C7E0FD
:1027E000D0E041E060E070E086E00E948E01219739
:1027F000C1F76091CC027091CD0240E082E00E946E
:102800008E0141E060E070E088E00E948E018FE17F
:102810009EE40197F1F700C0000041E060E070E045
:102820008AE00E948E010E94F3040E940E04CFEF02
:10283000D3E041E060E070E086E00E948E012197E5
:10284000C1F76091CA027091CB0240E082E00E9421
:102850008E0141E060E070E088E00E948E018FE12F
:102860009EE40197F1F700C0000041E060E070E0F5
:102870008AE00E948E01DF91CF910C94F3040E94B4
:102880002B130E940E0440E060E070E080E00E94A4
:102890008E012FEF80E792E0215080409040E1F7D9
:1028A00000C0000041E060E070E089E00E948E011D
:1028B0002FEF83EC99E0215080409040E1F700C079
:1028C00000000E94F3042FEF83EC99E02150804038
:1028D0009040E1F700C000000E940E042FEF80E757
:1028E00092E0215080409040E1F700C0000041E0BC
:1028F00060E070E08BE00E948E012FEF83EC99E0A6
:10290000215080409040E1F700C000000E94F30495
:102910000C94BB13EF92FF920F931F93CF93DF930F
:102920007C018C01C62FD0E0C8018E199F098C173D
:102930009D0734F4F80181918F010E945417F4CF60
:10294000DF91CF911F910F91FF90EF900895E2E3F7
:10295000F2E08EEF808381E081838CEC82831382AE
:1029600064E0CF010C948A14DF92EF92FF920F93F0
:102970001F93CF93DF93D82E8B017A01E9018EEF5D
:102980000E9454178E2D0E9454178D2D0E945417AB
:10299000C00FD11F8E01C8018C1B9D0B8E159F058A
:1029A00030F4F80181918F010E945417F4CFDF9128
:1029B000CF911F910F91FF90EF90DF90089580913C
:1029C0003402863A09F49EC1A0F4823A09F4C0C0E8
:1029D00028F4803A21F1813AB1F10895E09135026D
:1029E000843A09F4F6C020913602853A08F4DBC037
:1029F0001DC18B3A09F4F7C138F4873A09F4AAC12A
:102A0000883A09F4CEC108958F3A09F438C28C3C53
:102A100021F08C3A09F039C202C20C94A714E0915B
:102A20003502E093DF028E2F90E0FC013197EE300B
:102A3000F10508F02AC2EC5CFF4F0C9467170C9468
:102A400036050C94FB04E09136028E2F90E0FC01D9
:102A50003197EC30F10508F047C0EE5BFF4F0C9466
:102A6000671780E890E0A0E0B0E036C080E091E039
:102A7000A0E0B0E031C080E092E0A0E0B0E02CC087
:102A800080E094E0A0E0B0E027C080E098E0A0E023
:102A9000B0E022C080E090E1A0E0B0E01DC080E0A6
:102AA00090E2A0E0B0E018C080E090E4A0E0B0E0E8
:102AB00013C080E090E8A0E0B0E00EC080E090E0BD
:102AC000A1E0B0E009C080E090E0A2E0B0E004C086
:102AD00080E090E0A4E0B0E08093D2029093D30233
:102AE000A093D402B093D5028091390290E0982F40
:102AF000882720913A02822B9093D9028093D802A2
:102B0000E0913502E093DF0280913B028093DC028A
:102B100080913C028093DD028E2F90E0FC01319782
:102B2000EE30F10508F0B1C1E25BFF4F0C9467177E
:102B30000C947A080C94DE090E947A086AC10E94FB
:102B40007A086BC10C94A6070C9403090C94000836
:102B5000E0913502E093DF028E2F90E0FC01319787
:102B6000EE30F105C0F4E45AFF4F0C9467170E9451
:102B7000F50B11C00E94BF0C0EC00E943F140BC089
:102B80000E949F0B08C00E94D20A05C00E94780CC8
:102B900002C00E94B50A8EEF8093320181E08093DB
:102BA000330182EA63C1E093DF022093DE028E2FBD
:102BB00090E0FC013197EE30F10508F066C1E6596E
:102BC000FF4F0C9467170C9408060C94E6050C94C0
:102BD0006405E093DF02809144028093DE028E2F31
:102BE00090E0FC013197EE30F105C0F4E858FF4F5A
:102BF0000C9467170E94480611C00E941F070EC060
:102C00000E94EF060BC00E945D0708C00E94761369
:102C100005C00E94840602C00E94AC068EEF80931D
:102C2000320181E08093330184EA20C1E093DF0226
:102C30008091370290E0982F882730913802832BBB
:102C4000AC01990F660B770B30E0922F8827092E85
:102C5000000CAA0BBB0BBA2FA92F982F8827842B07
:102C6000952BA62BB72B8093D2029093D302A093DF
:102C7000D402B093D5028091390290E0982F882732
:102C800020913A02822B9093D9028093D8028091AE
:102C90003B0290E0982F882720913C02822B909352
:102CA000D7028093D60280913D0290E09093DB02A0
:102CB0008093DA028E2F90E0FC013197EE30F1051F
:102CC00008F040C0EA57FF4F0C9467170E94740148
:102CD00039C00E942B130E9474011092CE021092F0
:102CE000CF021092D0021092D1022CC00E945A0141
:102CF00041E060E070E086E00E948E0123C00E9407
:102D00005A0120C0E0913502E093DF028E2F90E05F
:102D1000FC013197EE30F105A8F4EC56FF4F0C940E
:102D200067170E944C0E0EC00E940F0E0BC00E942F
:102D3000070F08C00E94B50D05C00E94400D02C0DB
:102D40000E94870D8EEF8093320181E080933301E2
:102D500086EA8CC0E0913502E093DF028E2F90E08E
:102D6000FC013297ED30F105B0F5EE55FF4F0C94B4
:102D700067171092CE021092CF021092D0021092DA
:102D8000D10229C00E94740126C00E945A0123C0AA
:102D90000E945A0120E040EF60E08DE10E94FC01BA
:102DA0001AC0E0913502E093DF028E2F90E0FC0123
:102DB0003297ED30F10578F4E155FF4F0C94671729
:102DC0000E94131008C00E94BD1005C00E94C70FCA
:102DD00002C00E94ED0F8EEF8093320181E080935C
:102DE000330188EA43C0809135028093DF029091DD
:102DF00036029093DD028A3071F028F4863049F073
:102E0000873059F008958C3031F028F08E3029F059
:102E100008950C9467110C940C120C949C118091E1
:102E200035028093DF0290913C029093DD029091F5
:102E30003D029093DC028A3081F038F4863051F004
:102E4000873069F40E94DD120AC08B3031F08C307B
:102E500021F005C00E94A51202C00E9451128EEFFF
:102E60008093320181E0809333018CEA80933401B6
:102E70001092350164E082E391E00C948A14809111
:102E800035028093DF020C94F30408951092C00081
:102E900088E98093C10086E08093C2001092C5004B
:102EA00080E18093C40008959091C00095FFFCCF0D
:102EB0008093C6000895CF93DF93EC018991882316
:102EC00019F00E945417FACFDF91CF910895EE0FB9
:0E2ED000FF1F0590F491E02D0994F894FFCFB8
:102EDE0004040404040404040505020204040101AC
:102EEE0002020404080800000000000000040001B3
:0E2EFE000002000400010002000400010002B6
:00000001FF
